:400000000080002011000000690500006905000008B5044B1A6803F53F5302331A6000F0C3FA00BFFA46004010B5054C237833B9044B13B10448AFF300800123237010BDDE
:400040001082FF1F00000000D03C0000084B10B51BB108490848AFF300800848036803B910BD074B002BFBD0BDE81040184700BF000000001482FF1FD03C0000C880FF1F58
:400080000000000070B5AAB0012001F011F900F085F85021214800F08BF80646002413E01E4B33F914302AAA02EB440232F9A02C1B4D00921B4A4FF48071284602F070FA54
:4000C000284600F015FB01344F2CE9D944230093502302AA3146144800F082F8002413E00E4B33F914302AAA02EB440232F9A02C0B4D00920B4A4FF48071284602F050FACF
:40010000284600F0F5FA01344F2CE9D9502000F05BF8002001F0CCF82AB070BD2C82FF1FF482FF1FD83C0000CC80FF1F38B562B6174800F071FF01F0ADF800F0BFFA00F0A0
:400140002DFF00F03FFF41F6FF734FF480420121022000F0F1FB054600F07AFB044606230246502100F08EFB0A4A92B244F61061204600F09BFB2146284600F03BFB0121B6
:40018000284600F0EFFA044800F0B2FAFEE700BF850000002C82FF1FE03C000008B54FF493720021014801F081FD08BDF483FF1F10B5044C4A000146204601F051FD204616
:4001C00010BD00BF7A84FF1F08B5044B862203EB4001184601F04FFD08BD00BFF483FF1F2DE9F047DDF820804FF0000925E04FEA490A01EB0A06054600244FF4804708E0C8
:40020000B5F900E0B6F900C00CFB0E770134023E02354445F4DBB7F1804F03DAB7F1404F03DB04E06FF0404701E04FF0404747F3CF3722F80A7009F101099945D7DBBDE84A
:40024000F08700BFFEE700BFF0B40022174611E050F82760F3B226F0FF0608E001EB420511F812406D78A5550132013BDBB2002BF4D101371D2FEBD9F0BC7047184B1B781F
:40028000DBB203F00701174A11701B09013213700422154B1A7048F2800210331A80092203F5E6631A708023104A1370202210490A7040204731087001310A7024310A70FB
:4002C0000C4A13704FF4817142321180123213700122094B1A704422A3F2E5231A707047CF0100496E5800402C510040935A0040945A0040045B00405B5B004008B50A4606
:40030000002101F0D3FC08BD08B501F0A9FC08BD38B50024314B1C80502202331A700B2202331A8018232E4A13701925023215800232137004222B492B48FFF7E5FF0222AA
:400340002A4B1A7008224FF040231A70032103F500731970264B1B78DBB226490B70264B1A8041F25122023B1A800CE0234B1B7803F0010343EA440404F003044FF4F07016
:4003800000F0A2FF013D0DB1032CEFD115B90320FFF758FF1A4B4FF480721A8007221A70002218490A704820023108701A700222033B1A7004220A331A70134A137843F00E
:4003C00007031370013A137843F001031370013A137843F08003137038BD00BF804000408640004050060048004100400043004008010049A14600402242004025420040D1
:400400000440004006400040A243004038B572B63D4A137843F00403137000240CE03B4D630019194A0011462A44084691882858FFF764FF0134E4B2062CF0D900240BE058
:400440003249A3001819420088188022016BC06AFFF75AFF0134E4B2002CF1D02C494FF09040FFF7F1FE0A252A4B1D7004222A492A48FFF749FF2A4A2A4B1A602A4A1378C7
:4004800043F0020313701032137843F002031370264C237843F040032370A2F58632513A137843F010031370082221492148FFF72BFF2A4620492148FFF726FF08222049A8
:4004C0002048FFF721FF08221F492048FFF71CFF08221F491F48FFF717FF1F4A137843F0080313701D4D61232B70FFF711FF81232B7001221A4B1A70FFF7C0FE0E2221468E
:400500001848FFF701FF38BDE8460040F03C000078000048835800405406004850760040040404A45818014003500140A043004024060048025100402C060048C05100406B
:4005400038060048F251004040060048125100404806004822510040224300400048004004000840B043004008B501F04DFB03680C2B00D1FEE7FEE708B5094B1A68104432
:40058000084BC31A802B02DC054B186005E001F03BFB0C2303604FF0FF32104608BD00BF5481FF1F2885FF1F08B5104E104D16E029686B68AC68002204E051F8040B43F895
:4005C000040B0432A242F8D1E868002203E0002143F8041B04328242F9D11035013E002EE6D101F017FBFFF7A1FDFEE701000000B03E000008B5114A114B1A60114A1368DD
:4006000043F40073136000230AE0032B03D80E4A52F8231000E00D490D4A42F8231001332F2BF2D90B4B1A780B4B1A70084A0B4B1A60FFF7EBFE00F07BF808BD0004FA056B
:400640000CED00E014ED00E000000000690500000080FF1FBC760040C080FF1F08ED00E07222074B1A702022023B1A700622613B1A70472210331A700022AF3B1A707047C5
:400680008B65004010B500F027FE04460A4A137843F020031370023A137843F010031370A2F58072137843F01003137000F032F8204600F015FE10BD9B65004008B5054B24
:4006C0001B7823B9FFF7CCFF0122024B1A70FFF7D9FF08BDCD82FF1F034B1B7813F0040FFAD1024B18707047696400404964004038B5074B1B782BB938BDFFF7EDFF0134C6
:40070000A4B201E005460024285D0028F5D138BDCD82FF1F054A137843F0040313701032137843F004031370704700BFA24300400B4A7F2313708021517007E0DA0002F1F2
:40074000804202F5F042013BDBB21370002BF5D1DB0003F1804303F5F04300221A7070475881FF1F172815D831B103010A495A5C42F020025A5405E0030107495A5C02F03C
:40078000DF025A540001044A835C43F00103835400207047012070471070004017280BD80001064A835C03F0F103490001F00E0119438154002070470120704710700040DD
:4007C00041F6FF73994201D14FF4005141F6FF739A4201D14FF40052172808D8C00000F1804000F5EC408180C280002070470120704700BF172805D8034B03EB00104172A6
:4008000000207047012070471070004017281BD810B4C00000F1804404F5EC44D201D2B201F07F01114321709DF804201201D2B203F00F03134363709DF8083003F00F03B8
:40084000A3700020E07001E00120704710BC704710B500F041FD0A4B5B78182B0BD9084A1478013B5370E30003F1804303F5F0431B78137000E0FF2400F032FD204610BD6A
:400880005881FF1F10F0800F0CD111F4704F0BD1C00000F1804000F5F04001808270C37000207047012070470120704710F0800F08D1C00000F1804000F5F0408180C28031
:4008C000002070470120704701BE704708B5034B1B7A00FB03F000F0F7FC08BD6081FF1F70B504460E46074B1D681F2802D90020FFF7EAFF04F01F04103455F8240045F8DA
:40090000246070BD08ED00E038B504460D46072902D90020FFF7D8FF1F2C02D90020FFF7D3FF04F01F0000F1604000F564406D01EDB2057038BD00BFF0B583B016461F4695
:400940000B4C0A2525700023019300932B460A4601462846FFF75AFF3A4631462078FFF72FFF02212078FFF719FF207803B0F0BD7081FF1F38B59DF81040651EEDB2032DA6
:4009800051D8013809282ED8DFE800F0052D2D052D2D0F192D230F2B03D92548007840B222E02448007840B21EE00F2B03D92248007840B218E02148007840B214E00F2B0B
:4009C00003D91F48007840B20EE01E48007840B20AE00F2B03D91C48007840B204E01B48007840B200E0002001EB401101FB02F2D20B91B20D2B0BD8C3F10E0192B20A4153
:400A000091B2621E124800EB82020133937005E0631E0F4A02EB83030F229A70013C0C4B23F8241038BD0020FFF74EFF38BD00BF180100491C010049190100491D01004905
:400A40001A0100491E0100491B0100491F010049D082FF1FF8B5074600F03EFC06460D4D2B7843F003032B700B4C237843F0030323700A4B1F700320FFF728FF2B7803F0B3
:400A8000FC032B70237803F0FC032370304600F027FCF8BDF8460040F946004092580040F8B504460022B94B1A74012856D13822B74B1A700423B74A1370072101321170AF
:400AC000002501321570013215700F210132117002321570013215700132157001260A321670142102F527621170013213700922A94B1A7001331D70222203331A702422CB
:400B000001331A7001331E7002331D7001331D700A2201331A70432201331A705220FFF799FF58229D4B1A7001331D7002239C4A1370013213709B4B1D7001331D7033222B
:400B4000994B1A603146052000F08CFA3146BA2000F00CFB95491D20FFF7C2FE022C5AD138228B4B1A70042202331A70072201331A70002501331D7001331D703F220133D1
:400B80001A7002331D7001331D7001331D7001260A331E70502203F527631A70272201331A702C2201331A7001331D70552203331A705A2201331A70052701331F7002338E
:400BC0001E70112201331A70192201331A70972201331A704420FFF73DFF58226F4B1A7001331D7005331F7001331E7001331D700A2201331A704FF4FA426B4B1A60314697
:400C0000384600F02FFA3146252000F0AFFA68491D20FFF765FE032C5AD138225C4B1A70042202331A70072201331A70002501331D7001331D703F2201331A7002331D7048
:400C400001331D7001331D7001260A331E70502203F527631A70272201331A702C2201331A7001331D70552203331A705A2201331A70052701331F7002331E701122013324
:400C80001A70192201331A70972201331A704420FFF7E0FE5822414B1A7001331D7005331F7001331E7001331D700A2201331A704FF4FA423C4B1A603146384600F0D2F94D
:400CC0003146252000F052FA3A491D20FFF708FE042C5AD138222E4B1A70042202331A70072201331A70002401331C7001331C703F2201331A7002331C7001331C70013344
:400D00001C7001250A331D70502203F527631A70272201331A702C2201331A7001331C70552203331A705A2201331A70052601331E7002331D70112201331A701922013366
:400D40001A70972201331A704420FFF783FE5822124B1A7001331C7005331E7001331D7001331C700A2201331A704FF4FA420E4B1A602946304600F075F92946252000F00C
:400D8000F5F90D491D20FFF7ABFDF8BDD082FF1F004E0040024E004086580040945800409A5800409C5800401C85FF1FD50F0000D90F0000DD0F0000E10F00002DE9F04173
:400DC00082B0394E4FF0010886F80080374F00247C74102000F034F9102000F0B5F907211D20FFF791FD0425314B1D7001331C7007331C702F4A137843F0180313702E4B50
:400E00001C7003F2F5231C7001331C700A22A3F209331A7001331C7002331C70122205331A70132201331A7004331C701422A3F68C231A70CDF8008008234FF4004248F6DE
:400E40005C710520FFF796FD0223009310234FF4004249F2DA012846FFF78CFD0323009310234FF4004249F2DA012846FFF782FD009510234FF4004249F2DA012846FFF753
:400E800079FD3378013B07EB83039A780B4B1A703378013B37F82320094B1A803078FFF7FFFD02B0BDE8F0817181FF1FD082FF1F96580040075B0040935800400E4E0040AB
:400EC0000C4E004070B500F007FA06462A4B1B782A4B1A7842F001021A701A7842F010021A7010331A7842F001021A701A7842F010021A70224D2B7843F002032B70214C82
:400F0000237843F0020323701F4A137843F0030313700320FFF7DAFC2B7803F0FD032B70237803F0FD032370184A137843F0060313707A22164B1A70164A137843F0010305
:400F400013701032137843F0010313700F3A137843F0010313701032137843F0010313704FF000530C4A1360A2F5C0721360304600F0B6F970BD00BF7181FF1FAA4300407D
:400F8000F8460040F9460040915800407758004082580040A143004080E200E008B5084B9B7C4BB9064BDB7C13F0FF0F01D1FFF705FF0122024B9A74FFF784FF08BD00BF51
:400FC000D082FF1F024A137843F0010313707047004E0040704700BF704700BF704700BF704700BF014B1B681864704708ED00E04001C0B2014B1870704700BF00E400E03B
:401000000122014B1A60704700E100E00122014B1A60704780E100E010B50446FFF7F6FF2046FFF7DFFF0720FFF7E2FFFFF7E8FF10BD00BF014B188880B2704780400040FE
:40104000034B1A7800F0F80010431870704700BF82400040024B187800F00700704700BF8240004070B505460E46FFF7F3FF0446FFF7E0FFA84256D02B4B1B7803F001022F
:4010800094B900B185B938B9284B1D80284A137803F0BF03137070BD254A137843F040031370224B1D8070BD22B3002321490B7001240F310C7004310B700C390B7803F03E
:4010C0007F030B701A4B1B7813F0080F00D08DB9194B18800721013B1970164B1B7813F0010FFAD110490B7803F0FE030B700021104B19700C4B1B7813F0010F0DD00E4B8D
:401100001D800EB1032200E001220A4B1A70094B1B7813F0010FFAD170BD044B1D8002490B7813430B7070BDA243004080400040824000400140004002400040014B18888C
:4011400080B2704700410040034B1A7800F0F80010431870704700BF02410040024B187800F00700704700BF0241004070B505460E46FFF7F3FF0446FFF7E0FFA84256D0C1
:401180002B4B1B7803F0010294B900B185B938B9284B1D80284A137803F0BF03137070BD254A137843F040031370224B1D8070BD22B3002321490B70012413310C70043968
:4011C0000B7008390B7803F07F030B701A4B1B7813F0080F00D08DB9194B18800721013B1970164B1B7813F0010FFAD110490B7803F0FE030B700021104B19700C4B1B78A3
:4012000013F0010F0DD00E4B1D800EB1032200E001220A4B1A70094B1B7813F0010FFAD170BD044B1D8002490B7813430B7070BDA1430040004100400241004001400040AF
:4012400002400040084A137843F060031370A2F5A652133A137843F0080313701032137843F008031370704777580040054B1A7802F0FC021A701A7800F0030010431870BE
:40128000704700BF5E58004008B50320FFF7EEFF08BD00BF08B5054B1B7823B90122034B1A70FFF7F1FFFFF7CDFF08BDE882FF1F044A137803F0DF03400100F020001843B5
:4012C00010707047005100400230800803D000BF01380046FCD17047EFF3108072B6704780F31088704700BF81F0004102E000BF83F0004330B54FEA41044FEA430594EA9A
:40130000050F08BF90EA020F1FBF54EA000C55EA020C7FEA645C7FEA655C00F0E2804FEA5454D4EB5555B8BF6D420CDD2C4480EA020281EA030382EA000083EA010180EA40
:40134000020281EA0303362D88BF30BD11F0004F4FEA01314FF4801C4CEA113102D0404261EB410113F0004F4FEA03334CEA133302D0524263EB430394EA050F00F0A7808D
:40138000A4F10104D5F1200E0DDB02FA0EFC22FA05F2801841F1000103FA0EF2801843FA05F359410EE0A5F120050EF1200E012A03FA0EFC28BF4CF0020C43FA05F3C01829
:4013C00051EBE37101F0004507D54FF0000EDCF1000C7EEB00006EEB0101B1F5801F1BD3B1F5001F0CD349085FEA30004FEA3C0C04F101044FEA445212F5800F80F09A8056
:40140000BCF1004F08BF5FEA500C50F1000041EB045141EA050130BD5FEA4C0C404141EB010111F4801FA4F10104E9D191F0000F04BF01460020B1FA81F308BF2033A3F195
:401440000B03B3F120020CDA0C3208DD02F1140CC2F10C0201FA0CF021FA02F10CE002F11402D8BFC2F1200C01FA02F120FA0CFCDCBF41EA0C019040E41AA2BF01EB0451F8
:40148000294330BD6FEA04041F3C1CDA0C340EDC04F11404C4F1200220FA04F001FA02F340EA030021FA04F345EA030130BDC4F10C04C4F1200220FA02F001FA04F340EAF2
:4014C0000300294630BD21FA04F0294630BD94F0000F83F4801306BF81F480110134013D4EE77FEA645C18BF7FEA655C29D094EA050F08BF90EA020F05D054EA000C04BF29
:401500001946104630BD91EA030F1EBF0021002030BD5FEA545C05D14000494128BF41F0004130BD14F580043CBF01F5801130BD01F0004545F0FE4141F470014FF0000007
:4015400030BD7FEA645C1ABF194610467FEA655C1CBF0B46024650EA013406BF52EA033591EA030F41F4002130BD00BF90F0000F04BF0021704730B54FF4806404F1320491
:401580004FF000054FF0000150E700BF90F0000F04BF0021704730B54FF4806404F1320410F0004548BF40424FF000013EE700BF42004FEAE2014FEA31014FEA02701FBF0C
:4015C00012F07F4393F07F4F81F06051704792F0000F14BF93F07F4F704730B54FF4607401F0004521F0004120E700BF50EA010208BF704730B54FF000050AE050EA01023C
:4016000008BF704730B511F0004502D5404261EB41014FF4806404F132045FEA915C3FF4DCAE4FF003025FEADC0C18BF03325FEADC0C18BF033202EBDC02C2F1200300FA7C
:4016400003FC20FA02F001FA03FE40EA0E0021FA02F11444C1E600BF70B54FF0FF0C4CF4E06C1CEA11541DBF1CEA135594EA0C0F95EA0C0F00F0DEF82C4481EA030621EAC7
:401680004C5123EA4C5350EA013518BF52EA033541F4801143F4801338D0A0FB02CE4FF00005E1FB02E506F00042E0FB03E54FF00006E1FB03569CF0000F18BF4EF0010EE8
:4016C000A4F1FF04B6F5007F64F5407404D25FEA4E0E6D4146EB060642EAC62141EA55514FEAC52040EA5E504FEACE2EB4F1FD0C88BFBCF5E06F1ED8BEF1004F08BF5FEAAD
:40170000500E50F1000041EB045170BD06F0004646EA010140EA020081EA0301B4EB5C04C2BFD4EB0C0541EA045170BD41F480114FF0000E013C00F3AB8014F1360FDEBF01
:40174000002001F0004170BDC4F10004203C35DA0C341BDC04F11404C4F1200500FA05F320FA04F001FA05F240EA020001F0004221F0004110EBD37021FA04F642EB06017E
:401780005EEA430E08BF20EAD37070BDC4F10C04C4F1200500FA04F320FA05F001FA04F240EA020001F0004110EBD37041F100015EEA430E08BF20EAD37070BDC4F120053C
:4017C00000FA05F24EEA020E20FA04F301FA05F243EA020321FA04F001F0004121FA04F220EA020000EBD3705EEA430E08BF20EAD37070BD94F0000F0FD101F0004640002B
:4018000041EB010111F4801F08BF013CF7D041EA060195F0000F18BF704703F00046520043EB030313F4801F08BF013DF7D043EA0603704794EA0C0F0CEA135518BF95EA4C
:401840000C0F0CD050EA410618BF52EA4306D1D181EA030101F000414FF0000070BD50EA410606BF1046194652EA430619D094EA0C0F02D150EA013613D195EA0C0F05D14B
:4018800052EA03361CBF104619460AD181EA030101F0004141F0FE4141F470014FF0000070BD41F0FE4141F4780170BD70B54FF0FF0C4CF4E06C1CEA11541DBF1CEA13552A
:4018C00094EA0C0F95EA0C0F00F0A7F8A4EB050481EA030E52EA03354FEA013100F088804FEA03334FF0805545EA131343EA12634FEA022245EA111545EA10654FEA00260C
:401900000EF000419D4208BF964244F1FD0404F5407402D25B084FEA3202B61A65EB03055B084FEA32024FF480104FF4002CB6EB020E75EB030E22BFB61A754640EA0C0065
:401940005B084FEA3202B6EB020E75EB030E22BFB61A754640EA5C005B084FEA3202B6EB020E75EB030E22BFB61A754640EA9C005B084FEA3202B6EB020E75EB030E22BF8C
:40198000B61A754640EADC0055EA060E18D04FEA051545EA16754FEA06164FEAC30343EA52734FEAC2025FEA1C1CC0D111F4801F0BD141EA00014FF000004FF0004CB6E7E6
:4019C00011F4801F04BF01430020B4F1FD0C88BFBCF5E06F3FF6AFAEB5EB030C04BFB6EB020C5FEA500C50F1000041EB045170BD0EF0004E4EEA113114EB5C04C2BFD4EB7B
:401A00000C0541EA045170BD41F480114FF0000E013C90E645EA060E8DE60CEA135594EA0C0F08BF95EA0C0F3FF43BAF94EA0C0F0AD150EA01347FF434AF95EA0C0F7FF4B1
:401A400025AF104619462CE795EA0C0F06D152EA03353FF4FDAE1046194622E750EA410618BF52EA43067FF4C5AE50EA41047FF40DAF52EA43057FF4EBAE12E74FF0FF3CD5
:401A800006E000BF4FF0010C02E000BF4FF0010C4DF804CD4FEA410C7FEA6C5C4FEA430C18BF7FEA6C5C1BD001B050EA410C0CBF52EA430C91EA030F02BF90EA020F002079
:401AC000704710F1000F91EA030F58BF994208BF90422CBFD8176FEAE37040F0010070474FEA410C7FEA6C5C02D150EA013C07D14FEA430C7FEA6C5CD6D152EA033CD3D042
:401B00005DF8040B704700BF8446104662468C461946634600E000BF01B5FFF7B7FF002848BF10F1000F01BD4DF808EDFFF7F4FF0CBF012000205DF808FB00BF4DF808EDAB
:401B4000FFF7EAFF34BF012000205DF808FB00BF4DF808EDFFF7E0FF94BF012000205DF808FB00BF4DF808EDFFF7CEFF94BF012000205DF808FB00BF4DF808EDFFF7C4FFE6
:401B800034BF012000205DF808FB00BF4FEA410C7FEA6C5C02D150EA013C0AD14FEA430C7FEA6C5C02D152EA033C02D14FF0000070474FF0010070474FEA410212F50012A2
:401BC00015D211D56FF47873B3EB625212D94FEAC12343F0004343EA505311F0004F23FA02F018BF404270474FF00000704750EA013005D111F0004008BF6FF00040704726
:401C00004FF00000704700BF014B1868704700BFD481FF1F0E4B70B51E460E4C0025E41AA410A54204D056F8253098470135F8E702F02CF9084B094C1E46E41AA4100025DB
:401C4000A54204D056F8253098470135F8E770BD983E0000983E0000983E0000A03E000010B5431E0A44914204D011F8014B03F8014FF8E710BD884210B501EB020301D8C5
:401C8000421E0BE09842FBD28118D21AD34204D013F8014D01F8014DF8E710BD994204D011F8014B02F8014FF8E710BD03460244934202D003F8011BFAE770472DE9F0474C
:401CC00088B0149F002B1E461299B8BF03F1004327F02007B6BF1E4600232D23462F1446109DDDF84CA00B7003D0452F03D1013501E0032300E0022307AA049206AA0392E6
:401D00008DE828042246334600F012FD472F804602D1119BDB0728D5462F08EB050911D198F80030302B0AD10022002320463146FFF7FAFE18B9C5F10105CAF80050DAF8B9
:401D4000003099440022002320463146FFF7ECFE08B9302202E0CDF81C9006E0079B994503D9591C07911A70F8E74046079B159AC8EB0303136008B0BDE8F087034673B5EE
:401D80000029B8BF494203F8022BB4BF2D222B22092942701ADD0DF1070216460A2591FBF5F405FB1411092C01F1300102F8011D2146F4DC3031541E02F8011CB4421A46D3
:401DC0000AD214F8012B03F8012BF7E71A463024214402F8024B5970101A02B070BD00002DE9F04F91B00C46DDF8688016461F46054601F035FA03681846099300F002FC74
:401E000000230E93D8F800300A90073323F0070303F1080294F81890D4F800B0C8F80020D3E90023C4E91223D4F84CA0D4F848802AF000430B934FF0FF32A74B40460B99CB
:401E4000FFF7A4FEA0B94FF0FF32A34B40460B99FFF77EFE60B90022002340465146FFF76DFE10B12D2384F843309C4B9C4A0AE04246534640465146FFF788FE002800F012
:401E80009281984B984AB9F1470F8CBF90469846032323612BF0040323604FF0000A3DE0B9F1670F00F08A81B9F1470F00F0868123600193636800210DF133020590029225
:401EC0000093424653460691CDF81090CDF80CE02846FFF7F3FE09F0DF03472B804600F08481B9F1650F0D9900F28D8101394A4604F150000D91FFF741FF0E9A8246831872
:401F0000012A236100F37C812268D10700F178819DF8333013B12D2384F84330009733460FAA2146284600F09FF9013002D14FF0FF3096E123685A0501D4236965E0B9F172
:401F4000650F40F2D580D4E9120100220023FFF7EBFD78B30123654A31462846B8470130E5D00E9B0D9A9A420BDB2368D80708D423689B0740F111814FF0000804F1190905
:401F800006E10A9B099A31462846B8470130CED04FF0000804F11A090E9B013B9845E7DA01234A4631462846B8470130BFD008F10108F1E70D9B002B29DC01234B4A314623
:401FC0002846B8470130B2D00D9B23B90E9B13B92368D907CCD50A9B099A31462846B8470130A4D04FF0000904F11A0A0D9B5B42994509DA0123524631462846B8470130B3
:4020000095D009F10109F1E70E9B4246A7E00E9AA36D9A42A8BF1A46002A914606DC4FF0000A29EAE97904F11A0B11E01346314642462846B8470130F1D178E701235A46C5
:4020400031462846B84701303FF471AF0AF1010AA36DC9EB03029245F0DB08EB03090D9A0E9B9A420FDB2368DA070CD40E9B0D9A9844C9EB08089B1A9845A8BF9846B8F1B6
:40208000000F08DC0FE00A9B099A31462846B8470130EBD14BE743464A4631462846B84701303FF444AF4FF0000928EAE87804F11A0A09E00123524631462846B847013012
:4020C0003FF435AF09F101090D9A0E9B9B1AC8EB03039945EEDB4BE7FFFFEF7F283D00002C3D0000303D0000343D0000383D00000E9A012A01DCDB0738D5012342463146DF
:402100002846B84701303FF412AF0A9B099A31462846B84701303FF40AAFD4E9120100220023FFF701FD20B14FF0000804F11A090EE00E9B08F10102013B19E001234A460F
:4021400031462846B84701303FF4F1AE08F101080E9B013B9845F1DB534604F1500231462846B84701307FF403AFE0E64246012331462846B8470130EED1D8E601234A4616
:4021800031462846B84701303FF4D1AE08F10108E3680F9A9B1A9845F0DBE0680F9B9842B8BF18465DE062680EA8531C0DF1340E4BF480637FF474AE062201E012B901224A
:4021C000626075E6002106910DF133018DE80C00236005904246CDF81090CDF80CE0029153462846FFF76AFD80460D9BD81C02DB626893421DDDA9F102095FFA89F970E6FC
:402200000133236184E6B9F1660F14D10029636807DD216113B92268D2071DD501330B4419E013B92268D00701D5023313E0012311E04FF067090D9B0E9A934205DB226803
:402240002361D10708D5013305E0002BD4BFC3F102030123134423610D9B4FF0000AA36556E611B0BDE8F08F2DE9F04791461F460A698B6806469342B8BF1346C9F80030AB
:4022800091F843200C46DDF8208012B10133C9F800302368990642BFD9F800300233C9F80030256815F0060510D104F1190A07E00123524639463046C04701301AD00135AB
:4022C000E368D9F800209B1A9D42F1DB94F843302268003318BF012392060FD5E118302081F843005A1C94F845102244023382F8431003E04FF0FF30BDE8F08704F14302A4
:4023000039463046C0470130F4D02268D9F80050E36802F00602042A08BF5D1B2269A3680CBF25EAE57500259342C4BF9B1AED184FF000091A344D4509D001232246394642
:402340003046C0470130D5D009F10109F3E70020BDE8F0872DE9F04317460A7E85B06E2A984606460C460C9B01F1430E00F0AE8011D8632A22D009D8002A00F0BB80582A51
:4023800040F0CA8081F84520834955E0642A1ED0692A1CD0C0E0732A00F0B08009D86F2A2ED0702A40F0B8800A6842F020020A603EE0752A24D0782A3AD0ADE01A6801F164
:4023C0004205111D1960136884F84230A8E021681A6811F0800F02D0111D196008E011F0400F02F10401196002D0B2F9003000E01368002B3CDA2D225B4284F8432037E016
:4024000021681A6811F0800F02D0111D196007E011F0400F02F10401196001D0138800E01368227E5C496F2A14BF0A2208221BE078225A4984F845202268186812F0800F5E
:4024400000F104051D6003D1550601D5038800E00368D00744BF42F0200222601BB9226822F0200222601022002084F8430001E049490A226568002DA56008DB206820F01C
:40248000040020602BB9002D7DD175460CE0002B79D07546B3FBF2F002FB1033CB5C05F8013D03460028F5D1082A0BD12368DA0708D5236962689A42DEBF302305F8013C47
:4024C00005F1FF35C5EB0E0323612EE008681A6810F0800F496903D0101D1860136808E010F0400F02F104001860136801D0198000E0196000232361754616E01A68111D4D
:402500001960156800216268284600F0B5FE08B1401B6060636804E004F1420584F8422001232361002384F84330CDF800803B4603AA21463046FFF797FE013002D14FF034
:40254000FF3026E023692A4639463046C0470130F5D023689B0710D5002504F1190907E001234A4639463046C0470130E7D00135E368039A9B1A9D42F2DBE068039B98422C
:40258000B8BF184605E00B7804F1420584F842308AE705B0BDE8F0833A3D00004B3D00000CB430B5164B0C1E9DB01D6804DA8B232B604FF0FF301EE04FF40273ADF8143051
:4025C0000CBF234604F1FF33049307934FF6FF7302900690ADF81630209A21AB02A92846019301F03FFA431CBCBF8B232B6014B1029B00221A701DB0BDE8304002B07047BC
:40260000D481FF1F034613F8012B002AFBD1181A013870472DE9F74F03690C6980469C427FDC013C01F114074FEA840E00F1140606EB0E0357F82450019356F82430013502
:40264000B3FBF5F507EB0E09C5B34FF0000A3846B446D34650F8043B9AB205FB02A21B0C4FEA124A05FB03A392B2C2EB0B0BBCF800204FEA134A5A441FFA83FBDCF80030E4
:402680008145CBEB134303EB224392B242EA03424FEA234B4CF8042BDCD256F80E306BB9019B043B9E421A4602D3C8F8104005E01268043B002AF8D1013CF3E7404600F0AA
:4026C000F6FF00282BDB304601354FF0000E57F8042B036891B2C1EB0E0E120C99B27144C2EB134303EB214389B24FEA234EB94541EA034340F8043BE9D256F8242006EB4E
:40270000840362B9043B9E421A4602D3C8F8104005E01268043B002AF8D1013CF3E7284600E0002003B0BDE8F08F0000000000002DE9F04F456A95B08246219CCDE90223FD
:4027400045B9102000F090FDCAF82400456085600560C560DAF82430196859B15A68012393404A608B60504600F0C9FDDAF8243000221A60039BA04A002BBDBF01232360D1
:40278000039B0023BCBF23F000430393DDF80C80A8BF236028F000431B0D1B0593421DD142F20F73209A1360029B43B9934A944BC8F31300002814BF1846104600E09048D3
:4027C000229B002B00F04685C37813B100F1080300E0C31C229A136000F03CBDDDE902450022002320462946FFF79EF9074658B1209A01231360229B002B00F01E858148C5
:402800001860013800F026BD12AB019313AB009322462B46504600F0C5FFC8F30A56049056B1C5F3130343F07F51204641F44011A6F2FF3611971DE0139B129E1E4406F2B2
:402840003243202B0ADD029A06F21240C3F1400322FA00F008FA03F3184304E0C3F12000029B03FA00F0FEF781FE0123A1F1F871013E11930022644BFEF73AFD58A3D3E909
:402880000023FEF7E9FE58A3D3E90023FEF732FD044630460D46FEF779FE55A3D3E90023FEF7DAFE02460B4620462946FEF722FD04460D46FFF780F90022834600232046F6
:4028C0002946FFF73BF958B15846FEF75FFE02460B4620462946FFF727F908B90BF1FF3BBBF1160F0DD8DDE90223484901EBCB01D1E90001FFF740F930B10BF1FF3B0023BD
:4029000000E00123109300E01090129B9E1B731E079343BFC3F10008002307934FF00008BBF1000F06DB079BCDF82CB05B440793002705E00023CBEB0808CBF100070B93AF
:402940001E9B092B28D8052BC4BF043B1E931E9BC8BF0025A3F10203D8BF0125032B20D8DFE803F0060E0204012302E0012308E000230A931F9B002B1DDD9946059321E0E9
:4029800000230A931F9B0BEB030909F10103012B0593B8BF012315E0012500231E930A9501E001230A934FF0FF390022CDF8149012231F9206E04FF001094B46CDF81490FD
:4029C000CDF87C90DAF8244000226260042101F114029A421CD86268490001326260F6E761436F63A787D23FB3C8608B288AC63FFB799F501344D33F0000F07F5C3D000064
:402A0000653D0000393D00000000F83F783D00006168504600F03EFCDAF8243020601B680693059B0E2B00F25B81002D00F05881DDE90234BBF1000FCDE90E3430DD9F4A05
:402A40000BF00F034FEA2B1502EBC303E80618CBCDE908340CD5DDE90E01994B05F00F05D3E90823FEF722FF0324CDE9020100E00224934E6DB1E90708D5DDE90801D6E97A
:402A80000023FEF7E9FDCDE9080101346D100836F0E7DDE90823DDE90201FEF707FF20E0CBF1000505B3DDE90E01844B05F00F0203EBC203D3E90023FEF7CEFDCDE90201AF
:402AC0007F4E2D110023022455B1EA0705D5D6E90023FEF7C1FD013401236D100836F3E71BB1CDE9020100E00224109BE3B1DDE902560022734B28463146FFF71FF898B12B
:402B0000059B8BB1B9F1000F40F3E6800BF1FF330893314600226C4B2846FEF79DFD0134CDE902014E4602E0059ECDF820B02046FEF72CFDDDE90223FEF78EFD634B0022F6
:402B4000FEF7D8FBA1F1507304460C931D46D6B9DDE9020100225E4BFEF7CAFB22460C9BCDE90201FFF708F8002840F03F820C99224601F10043DDE90201FEF7DFFF002832
:402B800040F02B82A8E00A9A4C4B711E002A49D003EBC103D3E9002300204E49FEF786FE22462B46FEF7A4FBCDE90C01069CDDE90201FFF701F80546FEF7E8FC02460B469B
:402BC000DDE90201FEF794FBDDE90C23303504F8015BCDE90201FEF7B1FF002840F01D83DDE9022300203749FEF782FBDDE90C23FEF7A4FF002840F0D180069BE31AB342BA
:402C00006ADADDE90C0100222F4BFEF725FD0022CDE90C01DDE902012B4BFEF71DFDCDE90201C4E703EBC1012246D1E900012B46FEF712FD069BCDE90C011D469C19DDE9A9
:402C40000201FEF7B9FF0646FEF7A0FC02460B46DDE90201FEF74CFB303605F8016BAC42CDE902014FF0000222D11A4BDDE90C01FEF740FB02460B46DDE90201FEF77CFF45
:402C8000002840F08B80DDE90C2300201149FEF72FFB02460B46DDE90201FEF74FFFD8B114F8013C621E302B40F0B7821446F7E7054BFEF7D1FCCDE90201C0E7783D000009
:402CC000503E00000000F03F0000244000001C40000014400000E03FDDE90E34CDE90234139B002B7CDBBBF10E0F79DCAB4B03EBCB03D3E900671F9B002B14DA059B002B2F
:402D000011DC40F06C810022A54B30463946FEF7A3FCDDE90223FEF725FF059D2E46002840F05F8165E1069CDDE9028932463B4640464946FEF7BAFDFEF73EFF0546FEF737
:402D400025FC32463B46FEF787FC0B46024649464046FEF7CDFA05F1300E069B04F801EBC3EB040E059B73452DD102460B46FEF7C1FA8046894602460B4630463946FEF723
:402D8000DDFE78B942464B4630463946FEF7CCFE002800F04482EB0704D440E2DDF820B000E01C4614F8012C631E392A07D1069A9A42F6D1069930220BF1010B0A701A784C
:402DC00001321A702BE20022764BFEF745FC0022002380468946FEF7A7FE0028A6D01EE20A9A002A2BD01E9A012A0ADC119A12B103F2334302E0129BC3F136033D464446EA
:402E000013E0059B5D1EAF42BFBF0B9BEA1B9B180B93059BB6BF2F467D1B0025002BA7BF4446059BC3EB08040023079A01211A4450469844079200F001FB064602E03D4671
:402E400044460A9E5CB1079B002B08DDA342A8BF2346079AC3EB0808E41AD31A0793002F1DDD0A9BABB18DB131462A46504600F07FFB049A01460646504600F0E8FA049943
:402E80000890504600F03BFA089B04937A1B06D000E03A460499504600F06AFB04900121504600F0CBFA0B9B05465BB31A460146504600F05DFB1E9B0546012B18DC029BEC
:402EC00083B9039BC3F3130373B9039B23F000473F0D3F054FB1079B08F1010801330793012702E0002700E0029F0B9B73B100E000272B6905EB8303186900F052FAC0F10B
:402F0000200004E01E9B012BD9DD0B9F0120079B184410F01F0008D0C0F12003042B02DDC0F11C0002E006D018461C30079B8044034404440793B8F1000F05DD42460499D3
:402F4000504600F063FB0490079B002B05DD29461A46504600F05AFB0546109B23B32946049800F0A4FB00281EDA00230A220499504600F0DBF90A9B0BF1FF3B0490002B1A
:402F800000F05F81314600230A22504600F0CEF9B9F1000F06463FDC3BE000BF783D00000000144000002440059B002B2BDC1E9B022B28DDDDF81490B9F1000F11D1294687
:402FC0004B460522504600F0B1F901460546049800F06DFB00280CDC03E0354600E000252E461F9B069C6FEA030B09E03546DDF820B0069B069A5C1C312313700BF1010B18
:4030000005960026F7E00A9BDDF8149023B9069CB2E01E9B022BCFDC002C05DD31462246504600F0F3FA06469FB17168504600F031F90446326906F10C01023292000C30C9
:40304000FEF70EFE01222146504600F0DFFA059000E00596029B069F03F00103079329460498FFF7D7FA3146044600F13008049800F01DFB059A02902946504600F033FBCF
:40308000C36802463BB901460A90049800F00FFB0A9A034600E00123114650460A9300F02EF90A9B53B91E9A42B9079A32B9B8F1390F2AD0029B002B1CDC1DE0029A002A42
:4030C00004DB1BD11E9ACAB9079ABAB9002B13DD01220499504600F099FA2946049000F0E6FA002803DC07D118F0010F04D0B8F1390F0AD004F131087C1C0CE0002B07F184
:4031000001040BDDB8F1390F03D139233B70013756E008F1010887F800806CE0069B2746E31A4B4504F8018C3BD000230A220499504600F0FBF8059B04909E424FF00A0228
:403140004FF000033146504604D100F0EFF80646059084E700F0EAF8002306460A220599504600F0E3F8059079E700230A220499504600F0DBF8049029460498FFF74AFA89
:40318000069B00F1300804F8018BE31A4B45ECDB069B0596B9F1010FACBF4B4401331F46002601220499504600F030FA2946049000F07DFA002803DC15D118F0010F12D0F9
:4031C0003C4614F8013C621E392B09D1069B934204D10BF1010B3123069A02E01446F0E70133137007E03C4614F8013C621E302B01D11446F8E72946504600F080F8059B90
:403200006BB12EB19E4203D03146504600F077F80599504600F073F801E0DDF820B00499504600F06CF80023209A23700BF101031360229B1BB11C6001E008480AE0069837
:4032400008E0B9F1000F3FF7E2AE1E9B022B7FF7DEAEB1E615B0BDE8F08F00BF383D000000487047D881FF1F024B0146186800F041BB00BFD481FF1F10B5C9B2024490424B
:40328000034605D01C7801308C42F8D1184610BD002010BD70B5456A04460E463DB91020FFF7E2FF6062456085600560C560656AEB6843B1636ADB6853F8260078B102680D
:4032C00043F8262017E021220421204600F0B8FA636AE860DB68002BECD1002070BD012101FA06F56A1D9200204600F0A9FA0028F3D04660856000230361C36070BD70B5BD
:40330000446A06460D463CB91020FFF7ADFF7062446084600460C4603DB1736A6A68DB6853F82210296043F8225070BD2DE9F04106460C460D691F4601F1140E0023DEF80A
:403340000000013381B202FB0171000C0F0C02FB007089B201EB00419D424FEA10474EF8041BECDCD7B1A3689D4212DB616830460131FFF78FFF8046226904F10C01023204
:4033800092000C30FEF76CFC21463046FFF7B7FF444604EB850301355F6125612046BDE8F081030C1B0413B90004102300E0002310F07F4F04BF0002083310F0704F04BFDC
:4033C0000001043310F0404F04BF80000233002803DB420003D5581C70471846704720207047036813F007020BD0D90722D49A074BBF5B089B08036003604CBF012002204A
:40340000704799B209B91B0C102213F0FF0F04BF1B0A0832190704BF1B090432990704BF9B080232D90702D45B0805D00132036010467047002070472020704710B50C464F
:403440000121FFF727FF01224461026110BD2DE9F74F14460A69236988469A42BEBF0B46A0461C46D8F81070D4F81090D8F80830D8F8041007EB09069E42C8BF0131FFF769
:4034800009FF00F114052B4605EB860C0022634502D243F8042BFAE704F1140208F1140102EB890301EB87070093009B0192934257D9B2F800B0BBF1000F23D08946AE4681
:4034C0004FF0000859F8044BBEF800A0A3B20BFB03A34FEA144ADEF8004043444FEA14480BFB0A84F24604EB13449BB243EA04434F454FEA14484AF8043B01D9D646E1E78A
:40350000CEF80480019B0432B3F802A0BAF1000F21D02C4689462B684FF00008B9F800E0B4F802B09BB20AFB0EBEA346F04443EA08434BF8043B59F8043BB4F804E01B0CF1
:403540000AFB03E34F4503EB18434FEA134801D95C46E3E763600435A7E75CF8043D13B9013E002EF9DC066103B0BDE8F08F00002DE9F843154612F0030206460F4607D013
:40358000214C013A002354F82220FFF7CFFE0746AD1036D0746A3CB91020FFF765FE7062446084600460C460D6F82480D8F808404CB940F271213046FFF740FF0446002336
:4035C000C8F8080003604FF00008EB070AD5394622463046FFF73BFF814639463046FFF78EFE4F466D100CD0206808B10446ECE7224621463046FFF72AFF2060C0F8008055
:40360000F4E73846BDE8F883403E00002DE9F0470C460746914626694FEA621A56444968A368751CAB4202DA01315B00FAE73846FFF730FE002380461A4600F114015345E5
:4036400003DA41F823200133F9E72AEAEA73206901EB830319F01F0904F1140101EB800E14D0C9F1200C002208689A4600FA09F0024343F8042B51F8042B8E4522FA0CF279
:40368000F2D8CAF8042042B1B51C06E0043B51F8042B8E4543F8042FF9D8013D3846C8F810502146FFF72BFE4046BDE8F08703690A6910B59B1A11D19200143014318318F2
:4036C0000A4453F8044D52F8041D8C4202D007D3012010BD9842F4D3002010BD184610BD4FF0FF3010BD2DE9F8430C460746114620461546FFF7DBFF061E08D1314638464F
:40370000FFF7C8FD012303614661BDE8F883BCBF23462C4638466168BABF1D4601260026FFF7B8FD2B69C660266905F1140904F1140101EB860709EB830800F114054FF067
:40374000000C51F8042B59F8044B93B29C44A3B2240CC3EB0C03C4EB124202EB23429BB24FEA224CC84543EA02428E4645F8042BE7D8BE450ED25EF8041B8AB26244131497
:4037800003EB114392B242EA03424FEA234C45F8042BEEE755F8043D0BB9013EFAE70661BDE8F8832DE9F3411C4601219046089E099DFFF76FFDC4F31302C4F30A540746B0
:4037C0000CB142F480120192B8F1000F19D002A840F8088DFFF705FE009B48B1019AC0F1200102FA01F10B43C2407B61019200E07B61019B002B14BF02210121BB613961A1
:4038000007E001A8FFF7EDFD019B01217B613961203034B1A4F2334404443460C0F1350009E0A0F2324007EB810330601869FFF7B8FDC0EB41102860384602B0BDE8F081F7
:4038400038B502FB01F4214600F054F8054618B122460021FEF72AFA284638BD38B50546002944D051F8043C0C1F002BB8BFE41800F0FCF91E4A1368114613B963601460C4
:4038800030E0A3420DD92268A018834201BF18685B681218226063600C6023E0A24203D813465A68002AF9D118681918A1420BD12168014458188242196013D11068526876
:4038C000014419605A600DE002D90C232B6009E021686018824201BF106852680918216062605C602846BDE8384000F0C0B938BDF082FF1F70B5CD1C25F0030508350C2DF4
:4039000038BF0C25002D064601DBA94202D90C23336046E000F0AAF9234B1C681A462146A1B10B685B1B0ED40B2B03D90B60CC18CD501EE08C420BBF63684B68136063602B
:4039400018BF0C4615E00C464968E9E7174C23681BB9304600F07AF920602946304600F075F9431C18D0C41C24F00304A0420DD12560304600F07BF904F10B00231D20F047
:403980000700C31A0ED05A42E25070BD211A304600F05CF90130EBD10C233360304600F066F9002070BD00BFF082FF1FEC82FF1F2DE9F0478E6882469E420C4691469846C6
:4039C0003ED88A8912F4906F3AD02568096902236F1A656905EB450595FBF3F57B1C43449D4238BF1D4653050FD52946FFF782FF064698B13A462169FEF732F9A38923F4E7
:403A0000906343F08003A38113E02A4600F030F9064670B921695046FFF720FF0C23CAF80030A3894FF0FF3043F04003A381BDE8F08726613E44266046466561ED1BA56034
:403A4000464528BF4646494632462068FEF713F9A36800209B1BA36023681E442660BDE8F08700002DE9F04F9DB003938B8980461C060D4616460DD50B695BB94021FFF7A1
:403A800039FF2860286118B90C23C8F80030CDE040236B610023099320238DF82930DFF89CB130238DF82A3037463C4614F8013B1BB9B7EB060910D003E0252BF9D02746A6
:403AC000F3E74B46324629464046FFF771FF013000F0A780099B4B4409933B78002B00F0A08000234FF0FF3204930793059206938DF853301A930126052221784E48FFF767
:403B0000BBFB671C049B38B14B4A3C46801A06FA00F018430490EFE7D90644BF20228DF853201A0744BF2B228DF8532022782A2A03D0079A00210A200BE0039A111D1268FC
:403B40000391002A10DA524243F00200079204900BE027463B780134303B092B03D800FB02320121F5E701B107923B782E2B1ED17B782A2B0AD1039B02371A1D1B68039231
:403B8000002BB8BF4FF0FF33059310E0002319460593781C0A2407463A780130303A092A03D804FB01210123F5E703B10591032239782248FFF760FB40B14023CBEB0000E0
:403BC00003FA00F0049B013718430490397806221B487E1C8DF82810FFF74EFB88B1194B33B9039B073323F007030833039314E003AB00932A46144B04A94046FEF7F0F8DD
:403C000007E003AB00932A460F4B04A94046FEF7A1FBB0F1FF3F824603D0099B5344099342E7AB895B0601D4099801E04FF0FF301DB0BDE8F08F00BF783E00007E3E0000D8
:403C4000823E0000E11D0000B139000038B5064C0023054608462360FCF78EFC431C02D1236803B12B6038BD2085FF1F70477047F8B5074615460E4621B91146BDE8F840C8
:403C8000FFF738BE1AB9FFF7E9FD2846F8BD00F015F885420ED929463846FFF72BFE044650B131462A46FDF7DBFF31463846FFF7D5FD01E03046F8BD2046F8BD51F8040C52
:403CC0000028BEBF091851F8043CC01804387047000000000000000025642C25640A00005374617274696E672E2E2E0A0000000040510040300000000140001000140140DB
:403D00008006001B0140000100400140000A004C014000020050014020000000801A0140A405004880004300494E4600696E66004E414E006E616E003000303132333435B3
:403D400036373839414243444546003031323334353637383961626364656600496E66696E697479004E614E00504F534958002E0000000000000000000000000000F03F37
:403D8000000000000000244000000000000059400000000000408F40000000000088C34000000000006AF8400000000080842E4100000000D01263410000000084D797419E
:403DC0000000000065CDCD41000000205FA00242000000E876483742000000A2941A6D42000040E59C30A2420000901EC4BCD64200003426F56B0C430080E03779C3414387
:403E000000A0D8855734764300C84E676DC1AB43003D9160E458E143408CB5781DAF154450EFE2D6E41A4B4492D54D06CFF08044F64AE1C7022DB544B49DD9794378EA449F
:403E400005000000190000007D000000000000000080E03779C34143176E05B5B5B89346F5F93FE9034F384D321D30F94877825A3CBF737FDD4F1575232D302B2000686C89
:403E80004C0065666745464700000000F8B500BFF8BC08BC9E4670474D000000F5050000F8B500BFF8BC08BC9E46704729000000C03E0000C880FF1F48010000180300007C
:403EC00000000000560051004C0045003A0026000900DEFFA4FF5AFF02FF9CFE2EFEBDFD4EFDEBFC9BFC66FC54FC6CFCB1FC27FDCBFD9CFE92FFA600CB01F5021704230574
:403F00000B06C5064607880788074607C5060B0623051704F502CB01A60092FF9CFECBFD27FDB1FC6CFC54FC66FC9BFCEBFC4EFDBDFD2EFE9CFE02FF5AFFA4FFDEFF09005B
:403F400026003A0045004C00510056002885FF1F7F800000000400000000E02EC05D00001800000000366E01FF0100000000000000000000000000000000000000000000F3
:403F8000000000000000000000000000263D00000000000000000000000000000000000000000000000000000000000000000000000000000000000000000000000000009E
:403FC0000000000000000000000000007481FF1F6F3D00007D3E00007D3E00007D3E00007D3E00007D3E00007D3E00007D3E00007D3E00007D3E0000FFFFFFFFFFFFFFFF77
:40400000FFFFFFFFFFFF0000000000000000000000000000000000000000000000000000000000000000000000000000000000000000000000000000000000000000000086
:404040000000000000000000000000000000000000000000000000000000000000000000000000000000000000000000000000000000000000000000000000000000000040
:404080000000000000000000000000000000000000000000000000000000000000000000000000000000000000000000000000000000000000000000000000000000000000
:4040C00000000000000000000000000000000000000000000000000000000000000000000000000000000000000000000000000000000000000000000000000000000000C0
:40410000000000000000000000000000000000000000000000000000000000000000000000000000000000000000000000000000000000000000000000000000000000007F
:020000040003F7
:0200000480007A
:4000000003520040016400400565004005050140080701404D0801403A090140010B0140041401400B150140491601404E1701405118014055190140131A0140521B014065
:40004000044001400D4101400842014008430140024401400145014004460140014701400948014004490140014C01400A4D01400550014001510140000261806440890FA5
:4000800086478778880789388B729104A180A980AD04E002810284808E109104A180E001E603EE400040081F0F011412160518041A1820092206241F28202E20304032030D
:4000C000341C350136203E415608580459045B045C125D105F0184338501860C87168B088C408E1595019608970E9B1C9D1C9F03A00AA234A403A614A833AA04AF03B010BF
:40010000B260B31AB40FB70FB808BA20BB88BE01C024C106C50CC60BC70EC815C9FFCAFFCBFFCEF0CF44D00CD401D804D904DA04DB04DC22DD22DF01E6C0EA40EB020004CB
:40014000030204220A200D080E0810301288158216081704180419201A601B081C401D881E08228827082B02329838043A103F404004430248204A085104534058105A4931
:400180005C085D105E025F806624674281C0874089048A018E049E01B601C055C264C4FECA08CC0ECE16D005D204D6FFD8F0E610EE40E00239803F4059045F01200189106A
:4001C0008C019510AC11AD90B102B32AB440E821EE080B0116031C0221012E023202330136013E043F045441580459045B045C015D105F0180218204870888408B01942101
:40020000960299049D029E01A010A221A302A421A608AA1EAB01B101B21FB308B440B502B620B704BA02BE54BF51C001C106C210C403C5CEC6FDC7B0C82FC9FFCAFFCBFFB4
:40024000CC22CEF0CF0CD08CD110D420D604D804D904DA24DB04DC82DD18DF11E840E901EAC0EB0100020308080809800E111020110112081603181119501A081B021C2024
:400280001E011F80204022282301250828802B042F803080310C332039143E104011484049104A105102536059025D805E205F0862206351650479208028850186048740BE
:4002C00089408B408E018F0C91049210931098809A02A080A180A440A502A880AF10B040B602C00AC2A5C48ECA85CC0CCE26D00AD204D671D84FDE04E209E408E604EA0C02
:40030000000304010602080309101001120213031404150C1711180419101B0C1D1C1F0221142204240429092A042B10320134023604371F38203E444002464049FF4A07D5
:400340004BFF4C404D204EF04F05500856025724580459045A045B245C225D825E085F01604061A86240632080278218830184188502880896239A049C04A010A43FA81C30
:40038000AA22AC1CAE21B038B302B41FB501BA22BF04D418D604D804D904DB04DC22DD20DF010028010204040503072809200B120C010E54108113281424151017011884E0
:4003C0001A401C101D101E0221202204240227022F48352036883702390A3B023F20471056105712580261806201630867086C026D206E146FA17E027F1080208110838064
:4004000084028704880C8D1090409108938094229512960899209C089E199F04A108A28CA308A601A702AB08AE20B380B701C07EC277C47FCAA0CCF0CE23D020D601D82D71
:40044000DE50E080E240E480EA40EC20040708020B010C060E011001120616012004230124072806300737013F40580459045C025F010024018404880581060409020B10BF
:400480000C800D080E081080132815041601172219021D2721802408271029022B402F023520368837013A103D203E04452247084C044F90540156105C106C106D206E046C
:4004C0006F0574947604772080428104880189018B028E018F0890D494209502971099209B089C029D019F14A108A28CA302A494A580AA02AF20B208B318B704C0F7C2ECC8
:40050000C4FECA11CCF0CE64D0E0D230D620E280E414E860EC80300232103640CC700A800B201140520857088D408E109620A402A640C210C440D4608701A402A648A70813
:40054000AA40AF10E040ECC0120883089F01A648A708B402C440E6807C01DE019401450885089401D001940102020520270186409F01A640C0C0C820E640AA02AE02B120E6
:40058000E8C0940110107001800188108C019401C408DC01E204E40800060C0610061A061C04003F33000C0000043300040400000F0030000004000022038000330340002E
:4005C00008020000110080000C0033000C0000003F0000010F003003C00400000008020000001004460305000200C0E028FFFFFF62A0F0410C00000000000211040404043A
:40060000222200010000000000004002001030100010101200000000000000000000000000000000106A6A000A0080008000408080008000000000000C00000000000000F7
:40064000000F0F00000000000000000000000400BB001801000A0000000000000000000000000000000000000000000000000000000000000000000000000000000000007A
:40068000000000000000000000000000000000000000000000000000000000000000000000000000000000000000000000000000000000000000000000000000000000003A
:4006C00000000000000000000000000000000000000000000000000000000000000000000000000000000000000000000000000000000000000000000000000000000000FA
:4007000000000000000000000000000000000000000000000000000000000000000000000000000000000000000000000000000000000000000000000000000000000000B9
:400740000000000000000000000000000000000000000000000000000000000000000000000000000000000000000000000000000000000000000000000000000000000079
:0200000490006A
:0400000000004005B7
:0200000490105A
:04000000BC90ACAF55
:0200000490303A
:02000000C441F9
:0200000490402A
:4000000000000000000000000000000000000000000000000000000000000000000000000000000000000000000000000000000000000000000000000000000000000000C0
:400040000000000000000000000000000000000000000000000000000000000000000000000000000000000000000000000000000000000000000000000000000000000080
:400080000000000000000000000000000000000000000000000000000000000000000000000000000000000000000000000000000000000000000000000000000000000040
:4000C0000000000000000000000000000000000000000000000000000000000000000000000000000000000000000000000000000000000000000000000000000000000000
:0200000490501A
:0C00000000012E16106900012E2FD4AA5A
:00000001FF