:400000000080002011000000CD070000CD07000008B5044B1A6803F53F5302331A6000F0F5FB00BFFA46004010B5054C237833B9044B13B10448AFF300800123237010BDDF
:400040008881FF1F0000000040960000084B10B51BB108490848AFF300800848036803B910BD074B002BFBD0BDE81040184700BF000000008C81FF1F40960000C880FF1FD6
:40008000000000002DE9F04184B0012001F05CF901F022F91A4C214604F5807000F0A0F8E589238A1D44268B638B1E44E78C238D1F44228E638ED418E8B201F091FAF0B2CC
:4000C00001F0F4FAF8B201F057FBE0B201F0BAFBDFF834800294019700962B46094A4FF48071404607F0F8FE404600F051FC002001F02AF901F0E8F804B0BDE8F08100BFF1
:40010000A481FF1F48960000CC83FF1F38B562B61C4801F00BF91C4800F066FC00F002FC01F0BEF801F0D0F801F092FA01F0F6FA01F05AFB01F0BEFB41F6FF734FF48042D3
:400140000121084600F070FD054600F0F9FC0446062302464FF4007100F00CFD0B4A92B244F61061204600F019FD2146284600F0B9FC0121284600F06DFC054800F008FCC6
:40018000FEE700BF85000000B9010000A482FF1F7096000008B5712802D0772804D008BD034800F0F5FB08BD024800F0F1FB08BD809600009096000038B500F0C7FB0446B2
:4001C00009E000F0BDFB054600F0CCFB2846FFF7E1FF013CE4B2002CF3D138BD000000002DE9F04FADF2445D07460B914FF48062002150A807F0F7F9002427E0204606F046
:4002000051F8A9A3D3E9002306F0B2F80022A84B06F0AEF806F084FB01F0C0FC01464FF07E5006F0D1FB4FF07C5106F0D7FC0546385D06F07FFC294606F0D0FC4FF0864164
:4002400006F0C2FB06F0B6FE38550134FF2CD5DD002635460A97F0E01BF80A000AF180031BF80330184406F01DF8CDE90601914B1F685E689C68DD680AFB08F006F012F8FC
:40028000CDE9020100220023CDE90423019500943A4633460CA9084601F044FBDDE90E67DDE9064522462B46DDE90C0106F060F8CDE9060122462B463046394606F058F8F6
:4002C00006460F464FEA480450AD05EB0819D9F8040005F0F9FF32463B4605F097FE06F01FFB064655F8340005F0EEFFDDE9062305F08CFE06F014FB45F83400C9F80460BD
:400300000AF1010A04E04FF0000AA846DDF828B0BAF17F0FA0DD45464FF0000BDDF828A086E01AF80B000BF180031AF80330C01A05F0B8FFCDE906015E4C27696669D4F868
:400340001880D4F81C90584605F0ACFFCDE9020100220023CDE90423CDF80490CDF800803A4633460CA9084601F0DCFADDE90E67DDE9068942464B46DDE90C0105F0F8FF8B
:40038000CDE9060142464B463046394605F0F0FFCDE9080127686668D4F80880E4680BFB05F005F07FFFCDE9020100210022CDE904120194CDF800803A4633460CA90846C6
:4003C00001F0B0FADDE90C01DDE90E23CDE90423CDE90201DDE90834CDE90034DDE906230CA806F007FEDDE90C34CDE90634DDE90E896C00013450AE06EBC407786805F0F5
:4004000063FF42464B4605F001FE06F089FA804656F8340005F058FFDDE9062305F0F6FD06F07EFA46F83400C7F804800BF1010BBBF17F0F7FF775AF01351F2D7FF763AF60
:400440005098014606F0C2FA06F0B4FDC0F30B100B9D288001241FE050AB03EBC40253F83400516801F048FA06F0A4FDC0F30B1025F81400C4F1800325F8130035F8143029
:40048000009323460C4A4FF4807110A807F024FD10A800F07DFA01343F2CDDDD00200DF2445DBDE8F08F00BF182D4454FB2119400000703FA0960000C0960000FEE700BF99
:4004C000F0B40022174611E050F82760F3B226F0FF0608E001EB420511F812406D78A5550132013BDBB2002BF4D101371C2FEBD9F0BC7047154B1B78DBB203F00701144A95
:4005000011701B09013213700123A2F26272137041F208611F321180242102F6F4021170022160321170083213700B3213702022084B1A70102268331A70212258331A709E
:400540004422A3F2E2231A70704700BFCF0100496E580040985A004008B50A46002107F042F808BD08B507F033F808BD38B500242E4B1C80502202331A70192502331D80FB
:40058000182202331A70042229492A48FFF7EAFF0222294B1A7008224FF040231A70032103F500731970254B1B78DBB224490B70244B1A8041F25122023B1A800CE0224B72
:4005C0001B7803F0010343EA440404F003044FF4F07001F081F9013D0DB1032CEFD115B90320FFF76BFF194B4FF480721A8007221A70002216490A704820023108701A7039
:400600000222033B1A7004220A331A70114A137843F003031370013A137843F001031370013A137843F08003137038BD8040004064040048004100400043004008010049C5
:40064000A146004022420040254200400440004006400040A2430040012807D8044B53F820201844017A13780B431370704700BFC8960000012808D8044B53F820201844B1
:40068000017A137823EA010313707047C896000038B572B6394A137843F00403137000240BE0374863001A19510001440A46098AD068FFF751FF0134E4B2072CF1D90024A4
:4006C0000BE02F49A3001819420088188022016CC06BFFF747FF0134E4B2002CF1D029494FF09040FFF7ECFE0A25274B1D70042226492748FFF736FF264A137843F00203C2
:4007000013701032137843F002031370224C237843F040032370A2F58632513A137843F01003137008221D491D48FFF71BFF2A461C491D48FFF716FF08221C491C48FFF73B
:4007400011FF08221B491C48FFF70CFF1B4A137843F0080313701A4D61232B70FFF706FF81232B700122174B1A70FFF7C3FE0E2221461548FFF7F6FE38BD00BFE84600403F
:40078000C89600007400004883580040680400485076004003500140A0430040400400480251004048040048C051004054040048125100405C04004822510040224300404C
:4007C0000048004004000840B043004008B506F0D3FE03680C2B00D1FEE7FEE708B5094B1A681044084BC31A802B02DC054B186005E006F0C1FE0C2303604FF0FF321046D7
:4008000008BD00BFCC80FF1FD884FF1F08B5104E104D16E029686B68AC68002204E051F8040B43F8040B0432A242F8D1E868002203E0002143F8041B04328242F9D1103506
:40084000013E002EE6D106F09DFEFFF75FFCFEE701000000F09E000008B5114A114B1A60114A136843F40073136000230AE0032B03D80E4A52F8231000E00D490D4A42F86B
:40088000231001332F2BF2D90B4B1A780B4B1A70084A0B4B1A60FFF7FBFE00F0C1F808BD0004FA050CED00E014ED00E000000000CD0700000080FF1FBC760040C080FF1F66
:4008C00008ED00E07222084B1A702022023B1A700622A3F5B0731A70472210331A7000224F331A70704700BF8B65004010B500F0FBFF04460A4A137843F020031370023A45
:40090000137843F010031370A2F20112137843F01003137000F076F8204600F0E9FF10BD9B65004008B5054B1B7823B9FFF7CAFF0122024B1A70FFF7D9FF08BDA583FF1FB1
:40094000014B1878704700BF49650040044B1B7813F0200F01D0012070470020704700BF69650040024B1B780BB1024B18707047A583FF1F48640040034B1B7813F0040F85
:40098000FAD1024B18707047686400404864004038B5074B1B782BB938BDFFF7EDFF0134A4B201E005460024285D0028F5D138BDA583FF1F014B1B685864704708ED00E0BB
:4009C0004001C0B2014B1870704700BF01E400E00222014B1A60704700E100E00222014B1A60704780E100E010B50446FFF7F6FF2046FFF7DFFF0720FFF7E2FFFFF7E8FFE2
:400A000010BD00BF054A137843F0020313701032137843F002031370704700BFA24300400B4A7F2313708021517007E0DA0002F1804202F5F042013BDBB21370002BF5D1BA
:400A4000DB0003F1804303F5F04300221A707047D080FF1F172815D831B103010A495A5C42F020025A5405E0030107495A5C02F0DF025A540001044A835C43F0010383541F
:400A800000207047012070471070004017280BD80001064A835C03F0F103490001F00E011943815400207047012070471070004041F6FF73994201D14FF4005141F6FF7312
:400AC0009A4201D14FF40052172808D8C00000F1804000F5EC408180C280002070470120704700BF172805D8034B03EB0010417200207047012070471070004017281BD895
:400B000010B4C00000F1804404F5EC44D201D2B201F07F01114321709DF804201201D2B203F00F03134363709DF8083003F00F03A3700020E07001E00120704710BC704797
:400B400010B500F0D1FE0A4B5B78182B0BD9084A1478013B5370E30003F1804303F5F0431B78137000E0FF2400F0C2FE204610BDD080FF1F10F0800F0CD111F4704F0BD18A
:400B8000C00000F1804000F5F04001808270C37000207047012070470120704710F0800F08D1C00000F1804000F5F0408180C280002070470120704701BE704708B5034B01
:400BC0001B7A00FB03F000F087FE08BDD880FF1F70B504460E46074B1D681F2802D90020FFF7EAFF04F01F04103455F8240045F8246070BD08ED00E038B504460D460729BE
:400C000002D90020FFF7D8FF1F2C02D90020FFF7D3FF04F01F0000F1604000F564406D01EDB2057038BD00BFF0B583B016461F460B4C0A2525700023019300932B460A46AC
:400C400001462846FFF75AFF3A4631462078FFF72FFF02212078FFF719FF207803B0F0BDE880FF1F38B59DF81040651EEDB2032D51D8013809282ED8DFE800F0052D2D059E
:400C80002D2D0F192D230F2B03D92548007840B222E02448007840B21EE00F2B03D92248007840B218E02148007840B214E00F2B03D91F48007840B20EE01E48007840B251
:400CC0000AE00F2B03D91C48007840B204E01B48007840B200E0002001EB401101FB02F2D20B91B20D2B0BD8C3F10E0192B20A4191B2621E124800EB82020133937005E013
:400D0000631E0F4A02EB83030F229A70013C0C4B23F8241038BD0020FFF74EFF38BD00BF180100491C010049190100491D0100491A0100491E0100491B0100491F01004910
:400D4000A883FF1FF8B5074600F0CEFD06460D4D2B7843F003032B700B4C237843F0030323700A4B1F700320FFF728FF2B7803F0FC032B70237803F0FC032370304600F0C0
:400D8000B7FDF8BDF8460040F946004092580040F8B504460022C04B1A7401285BD13822BE4B1A70042202331A70062201331A70002501331D7001331D700F2201331A704E
:400DC00002331D7001331D7001331D7001260A331E70142203F527631A70052701331F70162201331A7001331D70442203331A70482201331A7001331E7002331E701122CF
:400E000001331A70192201331A70972201331A705220FFF797FF5822A14B1A7001331D700223A04A1370013213709F4B1D7001331D70284600F0A4FA33229C4B1A6031462C
:400E4000384600F0C1FA3146952000F041FB98491D20FFF7BDFE022C5DD138228F4B1A70042202331A70062201331A70002501331D7001331D703F2201331A7002331D70B5
:400E800001331D7001331D7001260A331E70502203F527631A70272201331A702C2201331A7001331D70552203331A705A2201331A70052701331F7002331E7011220133E2
:400EC0001A70192201331A70972201331A704420FFF738FF5822724B1A7001331D7005331F70022201331A7001331D7001331D70284600F045FA4FF47A426C4B1A60314676
:400F0000384600F061FA3146252000F0E1FA69491D20FFF75DFE032C5DD138225F4B1A70042202331A70062201331A70002501331D7001331D703F2201331A7002331D70E3
:400F400001331D7001331D7001260A331E70502203F527631A70272201331A702C2201331A7001331D70552203331A705A2201331A70052701331F7002331E701122013321
:400F80001A70192201331A70972201331A704420FFF7D8FE5822424B1A7001331D7005331F70022201331A7001331D7001331D70284600F0E5F94FF47A423C4B1A603146D7
:400FC000384600F001FA3146252000F081FA3A491D20FFF7FDFD042C5DD138222F4B1A70042202331A70062201331A70002401331C7001331C703F2201331A7002331C70A6
:4010000001331C7001331C7001250A331D70502203F527631A70272201331A702C2201331A7001331C70552203331A705A2201331A70052601331E7002331D701122013368
:401040001A70192201331A70972201331A704420FFF778FE5822124B1A7001331C7005331E70022201331A7001331C7001331C70204600F085F94FF47A420C4B1A6029464A
:40108000304600F0A1F92946252000F021FA0B491D20FFF79DFDF8BDA883FF1F004E0040945800409A5800409C580040CC84FF1FE9120000ED120000F1120000F5120000C0
:4010C0002DE9F04182B0394D4FF0010885F80080374E00247474102000F064F9102000F0E5F907211D20FFF787FD0427314B1F7001331C7007331C702F4A137843F01803B3
:4011000013702E4B1C7003F2F5231C7001331C700A22A3F209331A7001331C7002331C70122205331A70132201331A7004331C701422A3F68C231A70CDF8008008234FF45F
:40114000004248F66B510220FFF78CFD0223009310234FF4004249F2DA012046FFF782FD0323009310234FF4004249F2DA012046FFF778FD009710234FF4004249F2DA0174
:401180002046FFF76FFD2B78013B06EB83039A780B4B1A702B78013B36F82320094B1A802878FFF7F5FD02B0BDE8F081E980FF1FA883FF1F96580040075B004093580040C6
:4011C0000E4E00400C4E004070B500F08DFB06462A4B1B782A4B1A7842F001021A701A7842F010021A7010331A7842F001021A701A7842F010021A70224D2B7843F0020364
:401200002B70214C237843F0020323701F4A137843F0030313700320FFF7D0FC2B7803F0FD032B70237803F0FD032370184A137843F0060313707A22164B1A70164A13783B
:4012400043F0010313701032137843F0010313700F3A137843F0010313701032137843F0010313704FF000530C4A1360A2F5C0721360304600F03CFB70BD00BFE980FF1F71
:40128000AA430040F8460040F9460040915800407758004082580040A143004080E200E008B5084B9B7C4BB9064BDB7C13F0FF0F01D1FFF705FF0122024B9A74FFF784FFA5
:4012C00008BD00BFA883FF1F024A137843F0010313707047004E0040024A137803F0FE0313707047004E0040704700BF704700BF704700BF704700BF014B1B6818647047DE
:4013000008ED00E04001C0B2014B1870704700BF00E400E00122014B1A60704700E100E00122014B1A60704780E100E010B50446FFF7F6FF2046FFF7DFFF0720FFF7E2FFA3
:40134000FFF7E8FF10BD00BF044A137803F0FB03800000F004001843107070471051004010B5002404E02046FFF784F90134E4B2012CF8D9FF22014B1A7010BDEA80FF1FD8
:4013800010B50446FFF7ECFF2046FFF765F9014B1C7010BDEA80FF1F014B188880B2704780400040034B1A7800F0F80010431870704700BF82400040024B187800F0070092
:4013C000704700BF8240004070B505460E46FFF7F3FF0446FFF7E0FFA84256D02B4B1B7803F0010294B900B185B938B9284B1D80284A137803F0BF03137070BD254A137802
:4014000043F040031370224B1D8070BD22B3002321490B7001240F310C7004310B700C390B7803F07F030B701A4B1B7813F0080F00D08DB9194B18800721013B1970164BE4
:401440001B7813F0010FFAD110490B7803F0FE030B700021104B19700C4B1B7813F0010F0DD00E4B1D800EB1032200E001220A4B1A70094B1B7813F0010FFAD170BD044BD4
:401480001D8002490B7813430B7070BDA243004080400040824000400140004002400040014B188880B2704700410040034B1A7800F0F80010431870704700BF02410040A7
:4014C000024B187800F00700704700BF0241004070B505460E46FFF7F3FF0446FFF7E0FFA84256D02B4B1B7803F0010294B900B185B938B9284B1D80284A137803F0BF0356
:40150000137070BD254A137843F040031370224B1D8070BD22B3002321490B70012413310C7004390B7008390B7803F07F030B701A4B1B7813F0080F00D08DB9194B18807F
:401540000721013B1970164B1B7813F0010FFAD110490B7803F0FE030B700021104B19700C4B1B7813F0010F0DD00E4B1D800EB1032200E001220A4B1A70094B1B7813F0DC
:40158000010FFAD170BD044B1D8002490B7813430B7070BDA143004000410040024100400140004002400040054A137843F0010313701032137843F001031370704700BFAF
:4015C000A8430040054B1A7802F0FD021A701A7800F0020010431870704700BF20580040014B1870704700BF805B0040064B1B78C3F3810303F19243063393F82031DBB2E8
:40160000024A1370704700BF205800400846004008B5064B1A7802F0F3021A701A7800F00C0010431870FFF7E1FF08BD2058004010B50024054B1C7001331C700420FFF7B3
:40164000E7FF2046FFF7BEFF10BD00BF2058004008B5074B1B7823B9FFF7EAFF0122044B1A70FFF7A1FF0020FFF7BAFF08BD00BFC083FF1F054A137843F0080313701032A7
:40168000137843F008031370704700BFA8430040054B1A7802F0FD021A701A7800F0020010431870704700BF2C580040014B1870704700BF835B0040064B1B78C3F38103C1
:4016C00003F19243063393F83831DBB2024A1370704700BF2C5800400B46004008B5064B1A7802F0F3021A701A7800F00C0010431870FFF7E1FF08BD2C58004010B500240B
:40170000054B1C7001331C700420FFF7E7FF2046FFF7BEFF10BD00BF2C58004008B5074B1B7823B9FFF7EAFF0122044B1A70FFF7A1FF0020FFF7BAFF08BD00BFC183FF1F00
:40174000054A137843F0040313701032137843F004031370704700BFA8430040054B1A7802F0FD021A701A7800F0020010431870704700BF28580040014B1870704700BF6B
:40178000825B0040064B1B78C3F3810303F19243063393F82831DBB2024A1370704700BF285800400A46004008B5064B1A7802F0F3021A701A7800F00C0010431870FFF776
:4017C000E1FF08BD2858004010B50024054B1C7001331C700420FFF7E7FF2046FFF7BEFF10BD00BF2858004008B5074B1B7823B9FFF7EAFF0122044B1A70FFF7A1FF00208B
:40180000FFF7BAFF08BD00BFC283FF1F054A137843F0020313701032137843F002031370704700BFA8430040054B1A7802F0FD021A701A7800F0020010431870704700BF22
:4018400024580040014B1870704700BF815B0040064B1B78C3F3810303F19243063393F83031DBB2024A1370704700BF245800400946004008B5064B1A7802F0F3021A700C
:401880001A7800F00C0010431870FFF7E1FF08BD2458004010B50024054B1C7001331C700420FFF7E7FF2046FFF7BEFF10BD00BF2458004008B5074B1B7823B9FFF7EAFF25
:4018C0000122044B1A70FFF7A1FF0020FFF7BAFF08BD00BFC383FF1F0230800803D000BF01380046FCD17047EFF3108072B6704780F31088704700BF70B50D46044629464D
:40190000204600F0B7F829460646204600F006F801463046BDE8704000F012BC084682B002B0704782B02DE9F04F85B00EA981E80C00DDE914230446DDE9120100F096F854
:40194000DDE9142306460F46DDE9120100F08AFCDDE9102380460D46DDE90E0100F04AFC0022002382468B4604F06AFF70B13E4BD3E90001D3E90223C4E90001C4E902235A
:40198000204605B0BDE8F04F02B07047DDE91023DDE90E0100F04AFC3246CDE902013B465046594600F034FADDE90223CDE900013046394604F0DCFC002206460F4640460A
:4019C0002946002304F03CFF50B33046394600F09DF8DDE900AB02460B465046594604F0C7FC804689463046394600F047F802460B465046594604F0BBFC002206460F46BE
:401A000000234046494604F0B3FC02460B463046394604F0FBFAC4E90289C4E90001AFE7DDE90223404605F1004104F0A1FC00F0F3F802460B46DDE9000104F099FCCDE925
:401A400000015046594600F063F902460B464046294604F08DFC02460B463046394604F0D5FA06460F46B0E71097000084B004B0704700BF82B002B0704700BF30B5214AA1
:401A800021F00043934287B01BDD1F4A934205DD02460B4604F0B8FA07B030BD02AA01F0B7FC00F0030001281AD002280FD008B3DDE9020101230093DDE9042302F024FF2F
:401AC000EAE70022002302F003FA07B030BDDDE90423DDE9020102F0FBF901F10041DBE70090DDE90423DDE9020102F00DFF01F10041D1E7DDE90423DDE9020102F0E8F9F4
:401B0000CAE700BFFB21E93FFFFFEF7F30B5214A21F00043934287B01BDD1F4A934205DD02460B4604F070FA07B030BD02AA01F06FFC00F0030001281ED0022811D0DDE93F
:401B4000042300B3DDE9020102F0C2F901F10041EAE7002300930022002302F0D5FE07B030BD01230093DDE90201DDE9042302F0CBFE01F10041D7E7DDE90423DDE90201DE
:401B800002F0A6F9D0E70124DDE90201009402F0BBFEC9E7FB21E93FFFFFEF7F00B51C4A20F00043934283B018DDB3F1FF4F05DB014604F009FF03B05DF804FB694601F029
:401BC000BFFF00F00302012A15D0022A0CD0CAB101220199009803F061FBECE7002102F049FF03B05DF804FB0199009802F042FF00F10040DFE70199009803F04FFB00F10A
:401C00000040D8E70199009802F034FFD3E700BFD80F493F000000002DE9F0438BB006460F4600F025FBDFF8E480044698F900300D46013337D03046394603F0A9FB0028A9
:401C400031D02BA3D3E900233046394604F020FE814668BB28A3D3E900233046394604F0F9FD00B398F90030254C002000210422022BCDF82090CDE90467CDE90267CDE958
:401C800006018DE814002CD0684603F011FC40B3089B1BB105F070FC089B0360DDE906010BB0BDE8F083204629460BB0BDE8F083134898F9003003210022CDE90467CDE9A0
:401CC00002670190009108922BB90E4B4FF06042CDE90623D8E70C490020022BCDE90601D2D105F049FC22230360D1E7AFF30080EF39FAFE422E864051302DD5104987C0CC
:401D000020970000FFFFEF470000F07FEB80FF1F2DE9F0418AB004460D4600F021FC374B064693F900800F46B8F1FF3F0DD022462B462046294604F0B5FD30B90022002320
:401D40002046294604F0A4FD20B1304639460AB0BDE8F0812A4B0890CDE90245CDE904450193B8F1000F19D1264F4FF060462046294600220023CDE9066704F061FD002813
:401D800034D002230093684603F092FBA8B1089BC3B9DDE906010AB0BDE8F0811A4F00262046294600220023CDE9066704F048FD68B1022398450093E5D105F0DDFB2223A9
:401DC0000360E4E705F0D8FB089B0360E1E70123B8F1020F00930BD105F0CEFB212303600A4803F067FBCDE90601D0E701230093684603F05DFB0028F2D1EDE7EB80FF1F5A
:401E000024970000FFFFEFC70000F0FF8C9600002DE9F04F8DB006460F4614461D4600F093FDDFF81093CDE9000199F90080B8F1FF3F46D022462B462046294604F032FDA1
:401E4000834600283DD132463B463046394604F029FD8246002874D1304639460022002304F0EEFC002833D0002200232046294604F0E6FC8346B8B1A94A01230020002169
:401E8000CDF828A0CDE90467CDE90645CDE9080103920293B8F1000F6CD0A24B0022104619460DB0BDE8F08F2046294603F070FA38B1002200232046294604F0CBFC0028D9
:401EC0006AD1DDE90023104619460DB0BDE8F08FDDE9000103F05CFA804600287DD0DDE900014FF0000A4FF0000B52465B4604F0A7FC0028E5D03046394603F049FA002883
:401F0000DFD02046294603F043FA0028D9D099F90030834804210022022BCDE90467CDE90645CDE908AB039002910A9204D002A803F0BEFA002847D105F01EFB22230360AF
:401F400042E0002200232046294604F079FC0028B7D0744B724800220121B8F1020FCDF828B0CDE90467CDE90645CDE9082303900291A8D002A803F09BFA00287ED00A9B0B
:401F800043B305F0F9FADDE908230A990160104619460DB0BDE8F08F614999F900300122CDF828B0CDE90467CDE9064503910292002B68D05C490020022BCDE9080166D1F7
:401FC00005F0DAFA212303600A9B1BB105F0D4FA0A9B0360DDE9082375E73046394603F0D7F900283FF47BAF2046294603F0D0F900283FF474AFDDE900231046194604F00A
:4020000051FC00286FD1464B99F90080039303230A90CDE90467CDE906450293B8F1000F3BD1DFF814B14FF0604A0022002330463946CDE908AB04F00DFC00283FF477AFD1
:4020400000223A4B2046294604F092F904460D4603F036FA02460B462046294604F0F0FB00283DD1324B4FF06042CDE9082399F90080B8F1020F7FF45AAF5DE705F07CFAEC
:40208000212303607BE700230024CDE9083402A803F00EFA002897D192E7DFF8A0B04FF0000A0022002330463946CDE908AB04F0D1FB0028DDD000221C4B2046294604F036
:4020C00057F904460D4603F0FBF902460B462046294604F0B5FB18B9134B0022CDE9082399F90080C5E70E4A99F900900123CDF82880CDE90467CDE9064503920293B9F109
:40210000000FC0D0002200231046194604F05AFAB9F1020FCDE908013FF452AFB7E700BF289700000000F03F0000F0FF0000E03FFFFFEFC7EB80FF1FFFFFEF470000F07FD7
:402140002DE9F0418AB00746884601F03BFC254D044695F90030013303D003F0B7FA064618B120460AB0BDE8F081384603F0AEFA0028F6D0404603F0A9FA0028F1D01A4ABB
:402180000323384600930192089604F09DF8CDE90201404604F098F895F90030CDE9040183B112490020022BCDE906010FD105F0E3F922230360089B7BB9DDE9060104F068
:4021C000AFFBCFE70A4B4FF06042CDE90623684603F06EF90028EED1E9E705F0CDF9089B0360EAE7EB80FF1F2C9700000000F07FFFFFEF472DE9F04716461F4604460D467F
:4022000032463B4620462946FFF730FC3246804689463B462046294600F024F802460B4640464946BDE8F04703F0F8BA2DE9F04716461F4604460D4632463B462046294697
:4022400000F010F83246804689463B4620462946FFF70CFC02460B4640464946BDE8F04703F0DABA1046194684B004B0704700BF2DE9F04FB04F21F00042BA4283B00C46B9
:402280004FEAD17605460DD9AC4FBA4225D9C1F31303034340F0EF800EB10020014603B0BDE8F08FA64B9A4200F2CC80A54B9A4200F2DE808AA3D3E9002303F0A7FE0022DF
:4022C000A14B04F0E5FA002800F005812846214600229D4B03F09AFEE1E783A3D3E9002304F0D6FA002840F0CB8081A3D3E900232846214604F0AEFA0028CED17EA3D3E9CB
:402300000023924F284607EBC608214604F030F8D8E9002303F07AFE04F0DAFA804603F0C1FF77A3D3E9002306460F4604F020F802460B462846214603F066FE72A3D3E91C
:402340000023CDE900013046394604F011F882468B46DDE9000152465B4603F055FE05460C462A4623462846214604F001F868A3D3E9002306460F4603F0FAFF66A3D3E93E
:40238000002303F041FE32463B4603F0F1FF64A3D3E9002303F03AFE32463B4603F0E8FF61A3D3E9002303F02FFE32463B4603F0DFFF5FA3D3E9002303F028FE32463B4648
:4023C00003F0D6FF02460B462846214603F01CFE06460F462846214632463B46B8F1000F56D003F0C5FF324604460D463B4600204FF0804103F008FE02460B462046294679
:4024000004F0E0F802460B465046594603F0FCFDDDE9002303F0F8FD0B4602464A49002003F0F2FD6FF47F7398454FDA08F57A7801EB085100224FF0B87303F099FF03B0BE
:40244000BDE8F08F424B9A423FF658AF414BF4002344D3E9002303F0D7FD3F4BC6F101081C44CDE90001D4E900ABC6EB080870E74FF0000875E702460B4603F0C7FD0EE73D
:4024800017A3D3E900231046194603F071FF06E703F06EFF0022804689464FF080433046394603F0B1FD02460B464046494604F089F82A46234603F0A7FD02460B46002083
:4024C000214903F0A1FD03B0BDE8F08F01EB085103B0BDE8F08F804643E700BFAFF300809C7500883CE4377EEF39FAFE422E864051302DD5104987C0FE822B654715F73F94
:402500000000E0FE422EE63F763C7935EF39EA3DD0A4BE726937663EF16BD2C541BDBB3E2CDE25AF6A56113F93BDBE166CC1663F3E5555555555C53F412E8640FFFFEF7F37
:40254000422ED63FFFFF2F3E0000F03F38970000B1A2F03F5897000048970000000000002DE9F04FB1F5801F85B006460F460B465ADA024621F00044224300F0F780002996
:40258000C0F279810022D64B03F0F2FE0B460F46D44906468B426FF0350249DCC3F3130505F5152404F6647404F4801E8EF07F5181F440111B15A3F2FF3341EA05079C1853
:4025C00030460022C84B394604EB1E5403F01CFDAB1CC3F31303022B82468B464FF000022FDC002304F02CF9002800F0C880002C00F04A81204603F055FEA5A3D3E9002349
:4026000006460F4603F0B4FEA3A3D3E9002304460D463046394603F0ABFE02460B462046294603F0F3FC09E0AE4900228B42B5DD32463B463046394603F0E8FC05B0BDE831
:40264000F08F4FF0804303F0E1FC02460B465046594603F0B7FF064620460F4603F022FE3246CDE900013B4630463946CDE9026703F07EFE02460B468046894603F078FEAE
:4026800087A3D3E9002306460F4603F071FE86A3D3E9002303F0BAFC32463B4603F068FE83A3D3E9002303F0B1FC32463B4603F05FFE81A3D3E9002303F0A8FC42464B466A
:4026C00003F056FE7EA3D3E90023804689463046394603F04DFE7CA3D3E9002303F096FC32463B4603F044FE79A3D3E9002303F08DFC32463B4603F03BFE0B460246494656
:40270000404603F083FCA5F5C223C5F5D725A3F27A4351351D43002D8046894656DD0022724B5046594603F023FE52465B4603F01FFE06460F46002C68D132463B46404649
:40274000494603F063FCDDE9022303F011FE02460B463046394603F057FC02460B465046594603F051FC05B0BDE8F08F0022002300205F4903F026FF05B0BDE8F08F56A3D9
:40278000D3E900235046594603F0F2FD02460B460020564903F038FC524606460F465B465046594603F0E4FD02460B463046394603F0DEFD06460F46002C40F09B80024605
:4027C0000B465046594603F01FFC37E7002C00F0A5802FA3D3E90023DDE9000103F0C8FD42464B4604460D465046594603F00CFCDDE9022303F0BCFD27A3D3E90023064644
:402800000F46DDE9000103F0B3FD21E020A3D3E90023DDE9000103F0ABFD32463B4604460D464046494603F0F1FBDDE9022303F09FFD19A3D3E9002380468946DDE90001D9
:4028400003F096FD02460B464046494603F0DEFB02460B463046394603F0D6FB52465B4603F0D2FB02460B462046294603F0CCFB05B0BDE8F08F02460B4603F0C5FB00229E
:40288000002303F09FFED9E600200021D6E600BF0000E0FE422EE63F763C7935EF39EA3D44523EDF12F1C23FDE03CB966446C73F599322942449D23F935555555555E53F9F
:4028C0009FC678D0099AC33FAF788E1DC571CC3F04FA97999999D93F555555555555D53F00005043FFFFEF7F0000F03F0000E03F000050C3204603F0D5FC0FA3D3E90023CE
:402900008046894603F034FD0DA3D3E9002304460D464046494603F02BFD99E702460B465046594603F070FBDDE9022303F020FD13E700BFAFF300800000E0FE422EE63F8D
:40294000763C7935EF39EA3D2DE9F04F23F0004858EA020993B03CD0714C21F00046A64283460D460CDD06F1404606F5801656EA0B0038D183466B49584613B0BDE8F08FF7
:402980009A4696462BD0A045EDDC654CA04578D0002D0F468146CDE9002376DB0024BEF1000F27D15E4B984500F08B805D4B984552D0BAF1804F00F0C9835B4B9A4519D13A
:4029C000002D17DB4846394613B0BDE8F04F00F035BFCB465846534913B0BDE8F08F0028C1D1B045D1DD514813B0BDE8F04F02F061BD00244846394602F0C6FCBBF1000FA1
:402A00001CD0ED0F013D54EA050370D0484B984540F3948003F10473984540F30D84454B9E4270DDBAF1000F70DD3BA3D3E900231046194603F09CFC83469DE726B1394BBE
:402A400025F040429A42DCD1BAF1000FC0F2B783002D08DB83468FE7BAF1000FC0F25E84CB46394688E706F1404606F5801656EA040300F08384012CECD101F100418346C2
:402A80007AE7BEF1000F83D06DE72B4B98452CDCA3F15473984581DD4FEA2853A3F2FF33142B40F35384C3F134032EFA03F202FA03F39E457FF472AF02F00102C2F102047C
:402AC0006DE706F1404303F5801353EA0B0300F03A83184B9E4240F36783BAF1000F15DBDDE900349B46214646E7022457E74A4648463B46394603F087FA02460B4603F08A
:402B000061FD834638E7BAF1000F8EDB4FF0000B594631E7AFF300809C7500883CE4377E0000F07F0000F03F0000E03F8C9600000000E041FFFFEF3FFFFF3F43B6F5801FA5
:402B40004FF0000205DAD04B03F012FC0E466FF03402DFF844E33315C6F31306A3F2FF3346F07F57764503EB020A47F4401740F3C983C64B00229E4240F304840023CDE9D8
:402B80000823CDE90C23C24B0022CDE906230AF1010AA7F5801700263946DDE90623CDE90A0103F031FADDE9062380468946DDE90A0103F02BFA02460B460020B44903F035
:402BC00001FD0A4601461346CDE90E1202464946404603F0CDFB8C4683467B1043F0005303F5002399190020CDE904BC06460F464FF0000B6146584632463B46CDE910BC3F
:402C0000CDE9020103F0B4FB02460B464046494603F0FAF9DDE90623804689463046394603F0F2F902460B46DDE90A0103F0ECF9DDE9022303F09CFB02460B4640464946E9
:402C400003F0E2F9DDE90E2303F092FBDDE90478CDE906013A4643463846414603F088FB77A3D3E9002306460F4603F081FB76A3D3E9002303F0CAF932463B4603F078FB76
:402C800073A3D3E9002303F0C1F932463B4603F06FFB71A3D3E9002303F0B8F932463B4603F066FB6EA3D3E9002303F0AFF932463B4603F05DFB6CA3D3E9002303F0A6F9E9
:402CC0003246804689463B463046394603F050FB02460B464046494603F04AFBDDE9022306460F46DDE9040103F090F9DDE9062303F03EFB32463B4603F088F9DDE90267A3
:402D00008046894632463B463046394603F030FB0022604BCDE90A0103F078F942464B4603F074F9DDE910BC0F46DDE902015A463B46CDE90EBC5E4603F01AFB0022CDE9B2
:402D40000201544B3046394603F05EF9DDE90A2303F05AF902460B464046494603F054F9DDE9042303F004FB324680468946DDE906013B4603F0FCFA02460B46404649467A
:402D800003F044F98046894602460B46DDE9020103F03CF9DDE90EBC35A3D3E900235846CDE906BC5E460F4603F0E2FADDE90223CDE904013046394603F026F902460B4659
:402DC0004046494603F020F92BA3D3E9002303F0CFFA2BA3D3E90023804689463046394603F0C6FA02460B464046494603F00EF9DDE90C2303F00AF980465046894603F0AE
:402E000051FA06460F46DDE9040142464B4603F0FDF8DDE9082303F0F9F832463B4603F0F5F8DDE906BC324658463B46DA468B4603F0EAF8DDE9082330E000BFAFF3008065
:402E4000EF4E454A287ECA3F65DBC9934A86CD3F01411DA96074D13F4D268F515555D53FFFAB6FDBB66DDB3F033333333333E33F000000E009C7EE3FFD033ADC09C7EE3F1D
:402E8000F5015B14E02F3EBE0000404379B60B000000F03F000008408E98030003F0B4F8DDE9042303F0B0F802460B464046494603F0AAF880468946DDE90012013C54EAF3
:402EC000050314BFD64CD74C0023CDE904340B461446CDE9023400230293DDE9024508462B461146224603F08FF852465B4603F03FFADDE9002306460F464046494603F056
:402F000037FA02460B463046394603F07FF806460F4622462B4650465946CDE9006703F027FA0B460246804689463046394603F06DF8BD4B064699420D460C4640F30E8177
:402F400001F13F4303F5E003034340F0F081A0A3D3E90023DDE9000103F058F8424682468B464B463046294603F04EF802460B465046594603F08CFC002840F0D8812F46B0
:402F80003B154FF48012A3F2FE3342FA03F32344C3F30A52A54EA2F2FF321641C3F3130B0020C2F1140523EA06014BF4801B02460B46002C4BFA05FB40464946B8BFCBF16C
:402FC000000B03F021F802460B4680468946DDE9000103F01BF84FEA0B5A00247EA3D3E9002320460D4603F0C3F9424606460F464B462046294603F007F802460B46DDE9B5
:40300000000103F001F876A3D3E9002303F0B0F975A3D3E90023804689462046294603F0A7F902460B464046494602F0EFFF8046894602460B463046394602F0E7FF32461A
:403040003B4604460D4602F0DFFF02460B464046494602F0D9FF2246804689462B462046294603F085F962A3D3E9002306460F4603F07EF960A3D3E9002302F0C5FF324637
:403080003B4603F075F95EA3D3E9002302F0BEFF32463B4603F06CF95BA3D3E9002302F0B3FF32463B4603F063F959A3D3E9002302F0ACFF32463B4603F05AF902460B4635
:4030C0002046294602F0A0FF06460F4602460B462046294603F04CF90022CDE900014FF080433046394602F08FFF02460B46DDE9000103F067FA424606460F464B462046FF
:40310000294603F035F942464B4602F07FFF02460B463046394602F077FF22462B4602F073FF02460B4600203D4902F06DFF8A44BAF5801FC0F237815146DDE9042303F0A9
:4031400017F9834618E4F346354915E44A4648463B46394603F00CF983460DE4344B21F000479F4240F30181324B0B4403430CD142464B4602F048FF02460B46DDE90001EC
:4031800003F072FB00283FF4FBAE23A3D3E90023DDE9040103F0ECF81FA3D3E9002303F0E7F88346FFF7E8BBBAF1000FBFF6AEACDDE900349B4604F10041FFF7DDBB0246DF
:4031C0000B460020164903F0FDF941E4AFF30080FE822B654715973C00000000432EE63FEF39FAFE422EE63F396CA80C615C20BED0A4BE726937663EF16BD2C541BDBB3E7F
:403200002CDE25AF6A56113F93BDBE166CC1663F3E5555555555C53F59F3F8C21F6EA5010000F03F0000F0BFFFFF8F40FFFF0F00FFCB904000346F3F6F4B9E427FF763AC33
:403240006E4B9E423FF7EEAB00226C4B02F0DCFE5BA3D3E9002306460F4603F089F85AA3D3E90023804689463046394603F080F8002282468B46624B3046394603F078F8BE
:4032800002460B4652A1D1E9000102F0BDFE32463B4603F06DF802460B460020594902F0B3FE3246CDE902013B463046394603F05FF802460B46DDE9020103F059F846A34B
:4032C000D3E9002303F054F802460B465046594602F09AFE02460B4606460F464046494602F094FE42464B46002082468B4602F08BFE02460B463046394602F085FE80466F
:403300008946D9E500220023CDE90823CDE90C233A4B00220026CDE906233DE44A463B460020364903F04EF98346FFF725BB2CA3D3E90023DDE9040103F01AF828A3D3E99A
:40334000002303F015F88346FFF716BBBEF1000F7FF44FABC3F1140348FA03F202FA03F3984524D07446FFF721BB264B9F423FF707AEDDE902349A469B462EE602460B4677
:40338000FFF7B9BB204B4FF48026CDE9062316A3D3E90023CDE9082315A3D3E90023CDE90C23FFF7F9BB5A4602F01AF9C5E602F00102C2F10204FFF7F9BA00BFAFF3008049
:4033C000000000604715F73F44DF5DF80BAE543E555555555555D53FFE822B654715F73F9C7500883CE4377E0000004003B8E23F06D0CF43EBFD4C3EFEFFEF3F0000F03F26
:403400000000D03F0000E03F0000F83F000000002DE9F04F944C21F00047A7428FB040F381801446914A0E46974226DC84A3D3E90023002940F3A08102F0E6FD8C4B8046E5
:403440009F42894600F083807FA3D3E9002302F0DBFD02460B464046C4E90023494602F0D3FD79A3D3E9002302F0CEFD0125C4E9020128460FB0BDE8F08F7E4A974240F3EB
:4034800083807D4A974258DC3D15A5F21645A7EB05518B46824603F01BFA02F003FF8046894642464B4650465946CDE9088902F0ABFD0022714B02F05BFF8B46824603F0FA
:4034C00007FA02F0EFFE8046894642464B4650465946CDE90A8902F097FD0022674B02F047FF00220023CDE90C0103F0A9F9002800F06A81002340464946002203F0A0F9A8
:40350000002814BF012302235D480221019000912A46214608A800F0FFFD002EC0F24A81054606E0C2E9000100250024C2E90245002528460FB0BDE8F08F02460B4602F026
:4035400063FD0025C4E90201C4E90001F1E740A3D3E9002302F058FD3FA3D3E9002306460F4602F051FD02460B463046C4E90023394602F049FD38A3D3E9002302F044FD62
:403580000125C4E90201D4E701F0FEFE34A3D3E900238046894602F0EBFE0022394B02F035FD03F095F9054602F07CFE24A3D3E90023CDE9040102F0DBFE02460B4640461A
:4035C000494602F021FD20A3D3E9002382468B46DDE9040102F0CCFE1F2DCDE9020155DC294B6A1E53F822309F424FD002460B465046594602F008FD02460B4681468846A8
:40360000C4E900234A4643465046594602F0FCFCDDE9022302F0F8FC02460B46002EC4E9022386DA4A4608F1004301F1004184E80C00E160A0606D427BE700BFAFF300800E
:4036400000004054FB21F93F3163621A61B4D03D0000601A61B4D03D7370032E8A19A33B83C8C96D305FE43FFB21E93F7BD90240FB21F93FFB213941FFFFEF7F00007041EB
:40368000E89700000000E03F68970000DDE902235046594602F0B8FC3F15C1F30A53FB1A102B81468846C4E90001ABDD58A3D3E90023DDE9040102F05BFE8046894602465A
:4036C0000B465046594602F09FFCCDE9060102460B465046594602F097FC42464B4602F093FC4DA3D3E9002380468946DDE9040102F03EFE42464B4602F086FC02460B468A
:40370000CDE90201DDE9060102F07EFC0B4602468846C1F30A517F1A312F8146C4E9002372DD3FA3D3E90023DDE9040102F020FE8046894602460B46DDE9060102F064FC59
:4037400002460B4682468B46DDE9060102F05CFC42464B4602F058FC33A3D3E9002380468946DDE9040102F003FE42464B4602F04BFCCDE9020139E702F048FC2E4B8046F9
:403780009F42894622D02AA3D3E9002302F03EFC02460B464046C4E90023494602F034FC23A3D3E9002302F031FC4FF0FF35C4E90201BEE66268E36802F1004203F10043E3
:4037C00045426260E360B4E603239DE610A3D3E9002302F01BFC10A3D3E9002306460F4602F014FC02460B463046C4E90023394602F00AFC08A3D3E9002302F007FC4FF016
:40380000FF35C4E9020194E6DDE906ABFAE600BF0000601A61B4D03D7370032E8A19A33B0000002E8A19A33BC14920259A837B393163621A61B4D03DFB21F93F2DE9F04147
:403840005F4E0C46B6460E407645054600F0988000290B46024674DD5FEA215E7FD0AEF2FF3EC3F313031EF0010F43F4801363D100273E4603EBD2710B444FEA6E0E5200D0
:4038800016204FF4001174189C424FEAD2754FEA420202DC1B1B66180F44013805EB43034FEA5101EFD1844620244FF0004109E020D003EBD275013C4FEA51012B444FEA6C
:4038C000420220D09E4201EB0C05F1DA002D05EB010C09DBB0469542A3EB060300D9013B4646521B0844E4E7BCF1000FF2DB06F10108F0E7954217D8002D05EB010C49DBE1
:4039000098460023ECE7134310D140087B1003F17F5303F50013FA0703EB0E57394648BF40F00040BDE8F0813346C2E7411C35D000F001031844E8E75B0003EBD2735200F5
:4039400096E721F000460643ECD079BB8E46D30AAEF1150E5205002BF9D0DD0221D4002100E001465B00DC0201F10100F9D5C0F1200422FA04F42343C1EB0E0E82406EE738
:4039800002460B4602F0F4FC2A46234602F03EFBBDE8F081BCF1000FA9DAB1E701372046B4E720244FF0FF310020E2E702460B4602F02AFB02460B4602F004FEB2E700BF31
:4039C0000000F07F2DE9F04720F0004521F00044A54202DB23462C461D46631BB3F1706F2646A84661DCB4F1B14F4FDC0027B5F11A5F12DA002D55D0B5F5000F80F2958033
:403A000040464FF0FD4103F0E9F84FF0FD418046304603F0E3F806467E3F4146304602F0D3FF81460146404603F076FA002842D024F47F6424F00F042146204603F0CEF885
:403A40004146054608F1004003F0C8F821468046304602F0B9FF21468146304602F0B6FF0146484603F0BAF80146404602F0ACFF0146284602F0A8FF00F0D4F99FB1F905B3
:403A800001F17E5103F0AAF8BDE8F087B4F1FF4F43DB04D02046294602F098FF0646B5F1FF4F4AD03046BDE8F0872946204602F08DFFBDE8F08725F47F6504F5000425F0E7
:403AC0000F052146284603F089F84946824609F1004003F083F831468146304602F076FF214602F071FF414603F078F829460646404602F069FF214603F070F80146304682
:403B000002F064FF0146484602F05EFF0146504602F05AFF00F086F9B0E704F15E4405F15E452646A846442761E704F1085405F108552646A846443F6FE74046BDE8F08728
:403B40002DE9F04FAA4A20F00044944289B067DDA84A0D469442074601461CDC0028A64940F3EA8002F030FFA44B24F00F049C42064663D0A24902F027FF0146304629601D
:403B800002F022FF9E4902F01FFF01236860184609B0BDE8F08F9B4A944261DDB4F1FF4F46DAE615863EA4EBC654204603F0DCF902F0C0FF034620461946059302F004FFE6
:403BC0004FF0874103F00AF8804603F0CDF902F0B1FF044640462146069402F0F5FE4FF0874102F0FBFF0021079003F08BF9002800F0C3802046002103F084F9002814BF83
:403C00000123022380480221019000913246294605A800F0F3FF002FC0F2A580034603E0002208604A600023184609B0BDE8F08F02F0CAFE002368602860F5E7734902F03D
:403C4000C3FE7349044602F0BFFE01462046296002F0BAFE6E4902F0B7FE01236860E3E701F030FD6B49804602F0B8FF4FF07C5102F0ACFE03F078F9064602F05BFF5E494E
:403C8000834602F0ABFF0146404602F09DFE5C498146584602F0A2FF1F2E82460146484618DC5D4B721E53F8223024F0FF029A4210D002F089FE8046C5F800804146484693
:403CC00002F082FE514602F07FFE002F686056DB3346A9E702F078FEE215C0F3C753D31A082B8046E8DD49495846039202F076FF80460146484602F067FE01460446484607
:403D000002F062FE414602F05FFE80464049584602F064FF414602F057FE01468246204602F052FE039AC0F3C753D21A192A804641DC2860A146C1E702F048FE2F4B24F03B
:403D40000F049C42064623D02D4902F03FFE01463046296002F038FE294902F037FE4FF0FF33686060E795E80C0002F1004103F10042296043426A6056E7032342E708F197
:403D8000004800F10040C5F80080686073424BE71E4902F01BFE1E49044602F017FE01462046296002F010FE194902F00FFE4FF0FF33686038E71949584602F00FFF01463E
:403DC0008046204602F000FE01468146204602F0FBFD414602F0F8FD04461149584602F0FDFE214602F0F0FD82460146484660E7D80F493FE3CB1640800FC93FD00FC93F91
:403E000043443537800F4943709900000044353708A3852E84F9223FF098000000A3852E32318D2420F00042B2F1FF4F70B504462ED262B3002803463DDBB2F5000F4FEA4E
:403E4000E0502CD3002631467F38C3F31603C20743F4000348BF5B0040105B0019244FF080728D189D4202DC5B1BA9181644013C4FEA43034FEA5202F3D113B106F00103B4
:403E80001E44761006F17C5606EBC05070BD70BD014602F0A3FE214602F098FD70BD14F4000201D00EE00A465B001C0202F10101F9D5801AC6E7014602F086FD014602F070
:403EC00041FF70BD4FF0FF32F3E700BF000000002DE9F04F21F00046B6F1795F85B00C4692469B4605466BDA02F0F2FC002800F0E7802A4623462846214602F039FA74A308
:403F0000D3E900238046894602F032FA72A3D3E9002302F07BF842464B4602F029FA70A3D3E9002302F070F842464B4602F020FA6DA3D3E9002302F069F842464B4602F0AA
:403F400017FA6BA3D3E9002302F05EF842464B4602F00EFA68A3D3E9002302F057F842464B4602F005FACDE900010022644B4046494602F0FDF9DDE9002306460F4640461E
:403F8000494602F0F5F95246804689465B462846214602F0EDF902460B464046494602F033F802460B463046394602F02DF802460B460020534902F027F805B0BDE8F08F68
:403FC00002460B4602F0D4F941A3D3E900238046894602F0CDF940A3D3E9002302F016F842464B4602F0C4F93DA3D3E9002302F00BF842464B4602F0BBF93BA3D3E900239F
:4040000002F004F842464B4602F0B2F938A3D3E9002301F0F9FF42464B4602F0A9F936A3D3E9002301F0F2FF4B46424602F0A0F9354BCDE900019E4297DD344B00229E4242
:4040400038DCA6F5001300202E4916461F4601F0DBFFCDE902010022294B4046494602F087F932463B4601F0CFFFDDE9002306460F464046494602F07BF95246804689469B
:404080005B462846214602F073F902460B464046494601F0B9FF02460B463046394601F0B3FF02460B46DDE9020101F0ADFF05B0BDE8F08F164B0026CDE90223154FCAE755
:4040C0001049002005B0BDE8F08F00BFAFF30080D43888BEE9FAA8BDC4B1B4BD9EEE213EAD529C804F7E923E9015CB19A001FA3E7751C1166CC1563F4C5555555555A53FCE
:404100000000E03F0000F03F3233D33F0000E93F0000E73F0000D23F2DE9F04F794CADF51D7D1F460B93D31E84FB0354DB17C3EBA403A69E744C23EAE37554F826406B1C52
:4041400026460994A3EB83037C1E0D95029402EBC3032D1B341904900A91089316D42C44013422AEA79F08E057F8250002F09AF80135A542E6E9020108D0002DF4DA0135C1
:4041800000200021A542E6E90201F6D1099B002B2FDB099B74AADDF8089002EBC30B0DF5E47A029B002BC0F295810B9B0026C3EB090824AB03EBC808049B0027A3F108050C
:4041C00024AB03EBC904F5E9022374E8020102F0CFF802460B463046394601F017FF444506460F46EFD1EAE90267DA4509F10109D7D1099B10A91D4603F18043023B9B0045
:404200001A1D0A440B440F920E939CAB03EBC503002D53E928672BDD9CAB03EBC504A83C0DF13C0A0DF5E47B0022384B3046394602F09EF802F04CFB02F034F80022344BCA
:404240008046894602F094F802460B463046394601F0DAFE02F03CFB74E802234AF8040F4946404601F0D2FE5C4506460F46DBD1089C30463946224601F0B2F900224FF013
:404280007F5306460F4602F073F801F089F80022204B02F06DF802460B463046394601F0B3FE0F46064602F013FB814601F0FAFF02460B463046394601F0A6FE002C0646BB
:4042C0000F4640F3EE80681E10AB53F82030C4F1180243FA02F101FA02F29B1AC4F1170810AA42F82030894443FA08F8B8F1000F3DDD002D09F1010940F3D3820022144620
:404300000FA911E0ABAAAA2A889C00000000703E0000704100002040C3F180700BB108600124013295420DDD51F8043F002CF3D0C3F1FF13013203F57F4395420B604FF038
:404340000104F1DC089B002B0DDD012B00F0B180022B08D16A1E10AB53F8223010A9C3F3150341F82230B8F1020F00F08180002200233046394602F063FA002800F05B8245
:40438000099B05F1FF3B5B4510DC05F1804310AA013B0F9802EB8303002253F80419834242EA0102F9D1002A40F0B180099B10AA013B52F82330002B40F071820E9A0123B0
:4043C00052F8041901330029FAD0E9186A1C8A420C914BDC0D990B985118DB0001F180410593A79B05440139E80003EB810A24ABD20003EB000B74AB13440193A2F10803D8
:40440000069007934FF000095AF8040F01F04AFF029BEBE80201002B4FF000064FF000071BDB069B03EB0904079B09EB030824AB1C449844049BA3F10805F5E9022374E85F
:40444000020101F095FF02460B463046394601F0DDFD444506460F46EFD1019B09F10809E3E802670193059B9945CDD10C9DCCE632463B460020B04901F0C6FD06460F4624
:40448000002C3FF474AF089A0020AB4901F0A8F802460B463046394601F0B6FD06460F4665E710D16B1E10AA52F823304FEAE3581CE76A1E10AB53F8223010A9C3F3160374
:4044C00041F822304FE700229C4B02F0D7F958B980464CE700260027EAE90267DA4509F101097FF45EAE84E6002D09F10109C8BF4FF002083FF702AF32463B4600208E49B9
:4045000001F082FD4FF0020806460F462FE7089A10AB53F82B30183ACDF81490CDF8048008926BB90BF18043013B10A901EB830353F804190BF1FF3B183A0029F8D00892A5
:40454000089A00207C4901F04BF8BBF1000F04460D46C0F2B6814FEACB030DF5E87810AA02EB8B0608EB03090493043609F1080756F8040D01F096FE22462B4601F0F8FE21
:40458000002267E902016E4B2046294601F0F0FEB84504460D46EBD14B46CDF818B09B460DF5987ACDF808A0DDF824A04FF00009BAF1000FC0F226815DA3D3E90023DFF899
:4045C00084815D4600260027002403E0A14510DBF8E90223F5E8020101F0CAFE02460B463046394601F012FD0134A24506460F46ECDA029BABF1080B03EBC903C3E9006725
:4046000072AB5B4509F10109D2D1A69BDDF818B0DDF808A0032B00F28380DFE813F0D100950095000400BBF1000F40F35481049BCDF808B053449846D3E90067D34658E9FE
:40464000029A32463B464846514601F0DFFC04460D4602460B464846514601F0D5FC32463B4601F0D3FCC8E9000168E90245C34526462F46E3D1DA46DDF808B0BBF1010F8E
:4046800040F32981049B0DF59C7B53449846D3E90067994659E902343046CDE902341A463946234601F0B2FC04460D4602460B46DDE9020101F0A8FC32463B4601F0A6FC0D
:4046C000C9E9000169E90245CB4526462F46E1D100231D4608F1080850AC184678E90223294601F093FC444503460D46F5D1019A002A00F0D880DAF80440DAF80C200A9FB8
:40470000DAF80010DAF8080005F1004504F1004402F100427D613B617C60FA603960B860059B03F007000DF51D7DBDE8F08F00BF00000040FB21F93F0000F03F0000E03FB8
:404740000000703E989C000000242146049D0835554475E90223204601F058FC55450446F7D1019B002B50D00A9F01F100450B46DAE9000187E83000224601F045FCBBF1BA
:40478000000F03460D460DDD01241846FAE90223294601F03BFC0134A34503460D46F4DA019A0AB105F10045184629460A9BC3E90201059B03F007000DF51D7DBDE8F08FAF
:4047C00000231C46049A0832924418467AE90223214601F01BFC0BF1FF3BBBF1FF3F03460C46F2D1019A0AB104F10044184621460A9BC3E90001059B03F007000DF51D7DD7
:40480000BDE8F08F00260027F3E626460F4622460A9C0B46DAE90001C4E9006701F0F4FBBBF1000F03460D46AEDC184629460A9BC3E90201BDE7089B30465A423946CDF8B7
:404840001490CDF8048000F0CBFE00222C4B06460F4602F013F8002840D00022294B3046394601F085FD02F033F8044601F01AFD0022234B01F07CFD0B460246394630462E
:4048800001F0C2FB02F024F8089B05F1010B1833089310AB43F8250043F82B4050E6012393E500244EE51846DAE90067DAE9022329460A9DC5E90067C5E90401C5E90223A6
:4048C0002EE7A69B032B3FF62BAFDFE803F0151010020DF5987A00231D4608E73046394601F0F6FF10ABAB4643F8250028E6002421460DF5987A34E700231C4672E700BF5F
:40490000000070410000703E2DE9F04F21F00046B6F1795F85B00C4690469946054604DA01F0D6FF002800F085802A4623462846214601F01DFD06460F4602460B46284644
:40494000214601F015FD3EA3D3E9002382468B463046394601F00CFD3BA3D3E9002301F053FB32463B4601F003FD39A3D3E9002301F04CFB32463B4601F0FAFC36A3D3E937
:40498000002301F041FB32463B4601F0F1FC34A3D3E9002301F03AFB0E9BCDE900019BB30022334B4046494601F0E2FCDDE90023CDE902015046594601F0DAFC02460B468B
:4049C000DDE9020101F020FB32463B4601F0D0FC42464B4601F018FB23A3D3E9002306460F465046594601F0C3FC02460B463046394601F00BFB02460B462846214601F000
:404A000003FB05B0BDE8F08F02460B463046394601F0AEFC14A3D3E9002301F0F5FA52465B4601F0A5FC2A46234601F0EFFA05B0BDE8F08F2846214605B0BDE8F08F00BF3C
:404A40007CD5CF5A3AD9E53DEB9C2B8AE6E55A3E7DFEB157E31DC73ED561C119A0012A3FA6F810111111813F495555555555C53F0000E03F2DE9F84320F00044B4F1485F9F
:404A800006460F4649DA02F06FFA002800F09D803146304602F0A2F805464E4902F09EF84D4901F093FF294602F098F84B4901F08BFF294602F092F8494901F087FF294643
:404AC00002F08CF8474901F07FFF294602F086F8454901F07BFF294602F080F880464FF07C51284602F07AF841460446284602F075F839460546304602F070F801462846FF
:404B000001F062FF0146204601F05EFF01464FF07E5001F059FFBDE8F883014602F05EF805462C4902F05AF82B4901F04FFF294602F054F8294901F047FF294602F04EF828
:404B4000274901F043FF294602F048F8254901F03BFF294602F042F8234901F037FF294602F03CF8214B80469C42B8DD204B9C4227DC04F17F4421464FF07E5001F024FF64
:404B800081464FF07C51284602F028F8214601F01BFF41460446284602F020F839460546304602F01BF80146284601F00DFF0146204601F009FF0146484601F005FFBDE8DB
:404BC000F883DFF834900B4CDBE74FF07E50BDE8F88300BF4ED747ADF6740F317CF29334010DD037610BB63AABAA2A3D9999993E0000483F0000903E0000383F2DE9F04F4B
:404C00001C46DFB00891611E01910A936899BB4B029053F821300793D31E48BF131DDB1023EAE37319460B930133A2EBC3030693019A079B8D1A9C1815D42C44013421AEE5
:404C4000699F08E057F8250001F074FF0135A54246F8040F07D0002DF4DA01350020A54246F8040FF7D1079B002B2ADB079B0A9A19469346019E49AF01EB0208019B002B32
:404C8000C0F2A18122ABCBEB060503EB8505029B4FF00009A3F1040A22AB03EB86045AF8041F54F8040901F099FF0146484601F08DFEAC428146F2D10136464547F8049F8A
:404CC000DCD1079B0EA91E4603F18043023B9B001A1D0A440B440D920C935EAB03EB8603002E53F8508C23DD5EAB03EB8604543C0DAD49AF4FF06E51404601F06FFF02F03C
:404D000033F901F017FF4FF08741814601F066FF0146404601F058FE02F026F954F8041945F8040F484601F051FEBC428046E1D14046DDF81880414600F016FD4FF0785175
:404D4000044601F04BFF00F0C9FC4FF0824101F045FF0146204601F037FE044602F004F9074601F0E7FE01462046444601F02CFE002C054640F30E81701E0EAB53F8203026
:404D8000C8F1080243FA02F101FA02F29B1AC8F1070A0EAA42F820300F4443FA0AFABAF1000F30DD002E07F1010740F34D82002214460DA907E0C3F580700BB108600124BB
:404DC000013296420BDD51F8043F002CF3D00132C3F1FF0396420B604FF00104F3DC069B002B0DDD012B00F0DD80022B08D1721E0EAB53F822300EA903F03F0341F8223074
:404E0000BAF1020F7CD00021284602F07BF8002800F09080079B741EA34210DC06F180430EAA013B0D9802EB8303002253F80419834242EA0102F9D1002A40F0DE80079BE1
:404E40000EAA013B52F82330002B40F0FB810C9B012753F804290137002AFAD0F219731C9342099240DC0B9AB90003EB02080A9A08F1804803916999164408F1FF38B200A4
:404E800001EB880822A99B00049201EB020A4AAA02EB0309043B0593002658F8040F01F049FE019B4AF8040B002B1FDB049B0027F418059BF51822AB1C441D44029BA3F1AD
:404EC000040B5BF8041F54F8040901F087FE0146384601F07BFDAC420746F2D1039B04369E4249F8047BD8D1099EF6E6039B043600279E4249F8047BCFD1F5E7D89C0000FF
:404F000029464FF07E5001F05FFD0546002C3FF47AAF06994FF07E5000F026FC0146284601F052FD05460021284601F0EBFF00287FF470AF0297069F2846794200F014FC4C
:404F40004FF08741044601F0FBFF002800F081814FF06E51204601F041FE02F005F801F0E9FD4FF08741054601F038FE0146204601F02AFD01F0F8FF0EAB43F826002846D3
:404F800001F0F2FF3B460833741C06930EAB43F8240047E010D1731E0EAA52F823304FEA232AFCE6721E0EAB53F822300EA903F07F0341F8223023E74FF07C5101F0C0FF59
:404FC00050B982461FE701364FF00009464547F8049F7FF453AE74E6002E07F10107C8BF4FF0020A3FF7E3AE29464FF07E5001F0EBFC4FF0020A054605E7069A0EAB53F8DF
:405000002430083A0297069263B904F18043013B0EA901EB830353F80419013C083A0029F9D0069206994FF07E5000F09DFB002C0546C0F21881A3004AAA1F1D02EB03093D
:4050400001930EAB1F4409F1040657F8040D01F071FD294601F0C2FD4FF06E5146F8040D284601F0BBFD0EAB9F420546EDD1A346DDF81C80A9F104090027CDF80CA0B8F155
:40508000000FB8BF002615DB824CCA4682480026002503E0AF420DDB54F8040F5AF8041F01F09CFD0146304601F090FC0135A8450646EFDA5EAB03EB8703A9F1040943F872
:4050C000A06C48AB994507F10107D8D1689B5C46DDF80CA0032B5AD8DFE803F08D5F5F02002C40F3BE80019A5EA98B1836AE53F8A07CB51855F8049C3946484601F066FC56
:4051000080460146484601F05FFC394601F05EFC286045F8048DAE424746EBD1012C40F3A080019B5EAAF418254602EB030858F8A06C0DF1DC0955F8048C3046414601F092
:4051400045FC07460146404601F03EFC314601F03DFC286045F8047DA9453E46EBD10020043438AD54F8041D01F030FCA542F9D1BAF1000F6AD0369A379B00F1004002F162
:40518000004203F10043089CA06022606360029B03F007005FB0BDE8F08F019D36AE04353544002055F8041D01F010FCB542F9D1BAF1000F39D0089A00F1004301461360F0
:4051C000369801F001FC002C0BDD36AE0125013556F8041F01F0FAFBAC42F8DABAF1000F50D0089A00F100435360029B03F007005FB0BDE8F08F019B5EAA13440020A3F1AC
:405200009C05013C55F8041D01F0E0FB631CF8D1BAF1000F01D000F10040089B1860029B03F007005FB0BDE8F08F089B01461860369801F0C9FB002CD8BF0346C5DC089A39
:405240005360D2E7012709E60024C8E5369A379B99E7204601F088FE0EAB344643F82600E0E6002084E7689B032B90D801A252F823F000BF915200008D5200008D520000FD
:40528000635200000346089A5360AEE700208FE70020BDE7E49C00000000C93F2DE9F84320F00043B3F1485F04460F46904603DA01F05AFE002858D02146204601F08EFC02
:4052C00005460146204601F089FC29490646284601F084FC274901F077FB294601F07EFC254901F073FB294601F078FC234901F06BFB294601F072FC214901F067FB814640
:40530000B8F1000F22D04FF07C51384601F066FC49468046304601F061FC0146404601F053FB294601F05AFC394601F04DFB15490546304601F052FC0146284601F046FB0E
:405340000146204601F040FBBDE8F8830146284601F044FC0B4901F037FB314601F03EFC214601F033FBBDE8F8832046BDE8F883D3C92E2F342FD7321BEF3836010D503995
:405380008988083CABAA2A3E21F00041704700BF41F0004101F58010C00F704700000000C1F30A522DE9F843A2F2FF36132E0B4604460D46884607461CDC002E3FDB3A4A5D
:4053C000864642FA06F901EA0902024317D034A3D3E9002300F01AFE0022002301F058FA20B1002D40DB28EA0905002738462946BDE8F883332E06DDB6F5806F2FD020468E
:405400001946BDE8F883A2F213424FF0FF3929FA02F910EA090FF2D021A3D3E9002300F0F5FD0022002301F033FA0028DED0002D20DB454627EA090738462946D8E718A3A2
:40544000D3E9002300F0E2FD0022002301F020FA0028CBD0002D18DB00273D46C6E702460B4600F0D3FDCCE74FF4801343FA06F6B044B8E7142E10D00123C6F1340603FA12
:4054800006F6371928BF9844D3E725F00042074B224318BF1D460027A8E705F10108C8E79C7500883CE4377EFFFF0F000000F0BF0020704700200149704700BF0000F87F1F
:4054C000F0B5C1F30A5EAEF2FF36132E83B002460B460C464FEAD17507462EDC002E49DB3D49314103EA010010432BD049080B4053EA02070CD04FF48023132E24EA010166
:4055000043FA06F444EA01040CBF4FF000470027324B214603EBC505D5E90045384622462B4600F073FDCDE90001DDE9000122462B4600F069FD03B0F0BD332E06DDB6F537
:40554000806F45D01046194603B0F0BDAEF2134E4FF0FF3121FA0EF10842F3D049080842D6D04FF0804320EA010143FA0EFE4EEA0107CDE721F0004101431946E4D0C3F390
:40558000130343EA000CCCF1000343EA0C0C134B640C4FEA1C3C0CF4002C03EBC5036404D3E900674CEA040132463B4600F02EFDCDE90001DDE9000132463B4600F024FDF4
:4055C000024621F0004141EAC57310461946BBE700F01CFDB8E700BFFFFF0F00109D0000F8B5C1F30A5604460D460B46174606BB21F00043034325D000222F4B00F0B8FE98
:405600002E4A044697420D460B462ADBC1F30A56363E40F2FE723E44964228DC002E12DD23F0FF4323F4E00343EA065520462946F8BD40F2FF729642EBD102460B4600F060
:40564000E5FCF8BDF8BD16F1350F1DDA4CF250339F420CDC14A1D1E9000122462B4600F0C1FC11A3D3E9002300F082FEF8BD22460FA1D1E900012B4600F0B4FC0CA3D3E916
:40568000002300F075FEF8BD23F0FF4323F4E003363643EA0655204629460022084B00F067FEF8BDAFF3008059F3F8C21F6EA5019C7500883CE4377E00005043B03CFFFFD2
:4056C0000000903C20F00040704700BF20F00040B0F1FF4FACBF0020012070472DE9F04120F00047FC0D7F3C162C054613DC002C80461BDB194F2741384214D0184901F030
:4057000065F9002101F026FC68B1002D1BDB28EA0700BDE8F081B7F1FF4F04D3014601F055F9BDE8F0812846BDE8F0810C4901F04DF9002101F00EFC0028F4D0002D08DBDB
:405740000020BDE8F0814FF4000343FA04F4A044DDE7002FE7D00348BDE8F081FFFF7F00CAF24971000080BF30F0004238B5034616D0B2F1FF4F0FD2B2F5000F0D4610D31B
:405780000446D20D2A44FE2A2EDC002A1DDD24F0FF4444EAC25038BD014601F017F938BD38BD4FF0984101F019FA184A0346954207DBC0F3C7520446193AE3E7144800F03F
:4057C00019FC134901F00AFA38BD12F1160F13DA4CF2503295421946F0DD0E4800F00AFC0C4901F0FBF938BD19460A4800F002FC084901F0F3F938BD193224F0FF4040EA71
:40580000C2504FF04C5101F0E9F938BDB03CFFFF6042A20DCAF2497100F05AB82DE9F04F8BB0994606460F46904600F01BF9DFF89CA004469AF900300D46013303D0FFF7A5
:40584000A7FD834620B1204629460BB0BDE8F08F30463946FFF79CFD0028F4D040464946FFF796FD0028EED015499AF900300322CDF820B0CDE90267CDE9048901910092E1
:4058800073B110490020022BCDE906010DD101F073FE22230360089B6BB9DDE90601D4E7094B4FF06042CDE906236846FFF700FE0028F0D1EBE701F05FFE089B0360ECE792
:4058C000209D00000000F07FFFFFEF47EB80FF1F2DE9F84F5442144323F00049DFF880E149EAD474744506460D463ED84442044321F0004B4BEAD47474458A4635D803F1C8
:40590000404404F58014144344D09C1704F0020444EAD17450EA0B012FD052EA090133D0F14546D0F3452FD0C9EB0B094FEA2959B9F13C0F34DC002B57DB3046294600F000
:4059400041FEFFF721FD00F0AFF9012C4AD0022C3BD084B132A3D3E9002300F055FB32A3D3E9002300F050FB05E01046194632462B4600F04BFBBDE8F88F022C14D0032C7E
:405980000CD12D482D49F6E7BAF1000F2A480EDB2B49F0E7BDE8F84F00F086B92946EAE723A1D1E90001D0E723482649E3E72649E1E7CB451FD0022CF6D0032CE1D0012C76
:4059C0004FF0000020D00146D5E715A3D3E9002300F01AFB02460B4613A1D1E9000100F013FBC8E701F10041C5E719F13C0FA4DA00200021A9E7022C0ED0032C09D0012C60
:405A00000D4804D01149B6E74FF00041B3E71049B1E710481049AEE70E481049ABE700BF075C143326A6A13C182D4454FB210940182D4454FB21F93F182D4454FB2109C06D
:405A4000FB21F93FFB210940FB21F9BFFB21E93FFB21E9BFD221337F7CD902C07CD902400000F07F2DE9F04F21F0004623F00047BE4289B080F2868034463E462746F11BA1
:405A8000B1F1707F8046B9469246B34600F39880814B9E427ADC00230193804B9F421DDCB7F5801F80F2E78043463B4300F0EE807B4D00242246404649462B4600F058FCAF
:405AC0002246019C80468946504659462B46A4F2FE34019400F04CFC82468B4642464B465046594600F090FA05460C4602460B464046494600F0AEFE00286AD0002433468A
:405B000022463146204600F033FC4246CDE902014B46404609F1004100F02AFC35460F46064622462B465046594600F06DFA2246804689462B465046594600F067FA02469B
:405B40000B464046494600F013FC02460B463046394600F059FA02460B46DDE9020100F053FAFDF76BFE019B4BB11B0503F17F55002405F5401522462B4600F0F9FB09B08A
:405B8000BDE8F08F14460246204678E7454B9E4266DD1346C6F31306334307D01046594642463B4600F032FA82468B46434687F0FF4787F4E0073B4368D140464946DEE743
:405BC00002463B465046314600F020FA09B0BDE8F08F06F580113B460F460022CDE90223104619463B46164600F0C2FB2A46CDE904012346284604F1004100F0B9FB5246D6
:405C0000CDE906015B465046594600F0FFF932463B4600F0F9F942464B4600F0A9FBDDE9022304460D464046494600F0EDF932463B4600F09DFB02460B462046294600F00F
:405C4000E5F902460B46DDE9060100F0DDF902460B46DDE9040100F0D7F9FDF7EFFD82E7A6F11656A7F116574FF41673B9469246B346019311E7019B06F1165607F1165719
:405C8000A3F51673B946B346019327E75046594609B0BDE8F08F00BF0000305FFFFFAF200000D07FFFFFEF7F2DE9F84FC04B21F000469E420D468A4604460FDDBD4B9E4261
:405CC00000F3B28000F0AD80BB4BBC49BC4CBAF1000FC8BF19462046BDE8F88FB94B9E4200F3BC80A3F1DE739E4240F3A7804FF0FF3B22462B462046294600F039FB024658
:405D00000B468046894600F033FB91A3D3E9002306460F4600F02CFB8FA3D3E9002300F075F932463B4600F023FB8DA3D3E9002300F06CF932463B4600F01AFB8AA3D3E9D3
:405D4000002300F063F932463B4600F011FB88A3D3E9002300F05AF932463B4600F008FB85A3D3E9002300F051F942464B4600F0FFFA83A3D3E900238046894630463946B4
:405D800000F0F6FA80A3D3E9002300F03DF932463B4600F0EDFA7EA3D3E9002300F034F932463B4600F0E4FA7BA3D3E9002300F02BF932463B4600F0DBFA79A3D3E900235D
:405DC00000F022F932463B4600F0D2FABBF1FF3F02460B4669D04046494600F017F922462B4600F0C5FA784E784B4FEACB0B5E449B44DBE9002300F007F922462B4600F0D1
:405E000003F902460B46D6E9000100F0FDF8BAF1000F0446BFF65FAF01F100412046BDE8F88F00283FF450AF224620462B46294600F0ECF804462046BDE8F88F5AA3D3E92B
:405E4000002300F0E3F80022614B00F021FD00283FF44DAF29462046BDE8F88FFFF794FA5C4B04469E420D462FDCA3F550239E4254DC02460B4600F0C9F80022544B00F037
:405E8000C3F8002206460F464FF080432046294600F0BCF802460B463046394600F092FB4FF0000B04460D4623E74046494600F0ADF822462B4600F05BFA02460B46204626
:405EC000294600F0A1F8044605E7434B9E421ADC0022424B00F098F8002206460F463F4B2046294600F044FA0022394B00F08EF802460B463046394600F064FB4FF0020B4C
:405F000004460D46F5E602460B460020344900F059FB4FF0030B04460D46EAE600222C4B00F072F8002206460F46294B2046294600F06CF802460B463046394600F042FBA7
:405F40004FF0010B04460D46D3E600BFAFF3008011DA22E33AAD903FEB0D76244B7BA93F513DD0A0660DB13F6E204CC5CD45B73FFF8300922449C23F0D5555555555D53F65
:405F80002F6C6A2C44B4A2BF9AFDDE522DDEAD3F6D9A74AFF2B0B33F711623FEC671BC3FC4EB98999999C93F9C7500883CE4377EFFFF0F440000F07FFB21F93FFB21F9BF91
:405FC000182D4454FFFFDB3F489D0000289D00000000F03FFFFFF23FFF7F03400000F83F0000F0BF03F0004321F0004242EA0301704700BF01F0004120F00040084370474A
:4060000081F0004102E000BF83F0004330B54FEA41044FEA430594EA050F08BF90EA020F1FBF54EA000C55EA020C7FEA645C7FEA655C00F0E2804FEA5454D4EB5555B8BFB4
:406040006D420CDD2C4480EA020281EA030382EA000083EA010180EA020281EA0303362D88BF30BD11F0004F4FEA01314FF4801C4CEA113102D0404261EB410113F0004FA2
:406080004FEA03334CEA133302D0524263EB430394EA050F00F0A780A4F10104D5F1200E0DDB02FA0EFC22FA05F2801841F1000103FA0EF2801843FA05F359410EE0A5F110
:4060C00020050EF1200E012A03FA0EFC28BF4CF0020C43FA05F3C01851EBE37101F0004507D54FF0000EDCF1000C7EEB00006EEB0101B1F5801F1BD3B1F5001F0CD349082A
:406100005FEA30004FEA3C0C04F101044FEA445212F5800F80F09A80BCF1004F08BF5FEA500C50F1000041EB045141EA050130BD5FEA4C0C404141EB010111F4801FA4F1AB
:406140000104E9D191F0000F04BF01460020B1FA81F308BF2033A3F10B03B3F120020CDA0C3208DD02F1140CC2F10C0201FA0CF021FA02F10CE002F11402D8BFC2F1200CB8
:4061800001FA02F120FA0CFCDCBF41EA0C019040E41AA2BF01EB0451294330BD6FEA04041F3C1CDA0C340EDC04F11404C4F1200220FA04F001FA02F340EA030021FA04F336
:4061C00045EA030130BDC4F10C04C4F1200220FA02F001FA04F340EA0300294630BD21FA04F0294630BD94F0000F83F4801306BF81F480110134013D4EE77FEA645C18BFE1
:406200007FEA655C29D094EA050F08BF90EA020F05D054EA000C04BF1946104630BD91EA030F1EBF0021002030BD5FEA545C05D14000494128BF41F0004130BD14F58004CF
:406240003CBF01F5801130BD01F0004545F0FE4141F470014FF0000030BD7FEA645C1ABF194610467FEA655C1CBF0B46024650EA013406BF52EA033591EA030F41F4002153
:4062800030BD00BF90F0000F04BF0021704730B54FF4806404F132044FF000054FF0000150E700BF90F0000F04BF0021704730B54FF4806404F1320410F0004548BF404228
:4062C0004FF000013EE700BF42004FEAE2014FEA31014FEA02701FBF12F07F4393F07F4F81F06051704792F0000F14BF93F07F4F704730B54FF4607401F0004521F000414A
:4063000020E700BF50EA010208BF704730B54FF000050AE050EA010208BF704730B511F0004502D5404261EB41014FF4806404F132045FEA915C3FF4DCAE4FF003025FEA2A
:40634000DC0C18BF03325FEADC0C18BF033202EBDC02C2F1200300FA03FC20FA02F001FA03FE40EA0E0021FA02F11444C1E600BF70B54FF0FF0C4CF4E06C1CEA11541DBF04
:406380001CEA135594EA0C0F95EA0C0F00F0DEF82C4481EA030621EA4C5123EA4C5350EA013518BF52EA033541F4801143F4801338D0A0FB02CE4FF00005E1FB02E506F083
:4063C0000042E0FB03E54FF00006E1FB03569CF0000F18BF4EF0010EA4F1FF04B6F5007F64F5407404D25FEA4E0E6D4146EB060642EAC62141EA55514FEAC52040EA5E5050
:406400004FEACE2EB4F1FD0C88BFBCF5E06F1ED8BEF1004F08BF5FEA500E50F1000041EB045170BD06F0004646EA010140EA020081EA0301B4EB5C04C2BFD4EB0C0541EA5D
:40644000045170BD41F480114FF0000E013C00F3AB8014F1360FDEBF002001F0004170BDC4F10004203C35DA0C341BDC04F11404C4F1200500FA05F320FA04F001FA05F292
:4064800040EA020001F0004221F0004110EBD37021FA04F642EB06015EEA430E08BF20EAD37070BDC4F10C04C4F1200500FA04F320FA05F001FA04F240EA020001F00041DC
:4064C00010EBD37041F100015EEA430E08BF20EAD37070BDC4F1200500FA05F24EEA020E20FA04F301FA05F243EA020321FA04F001F0004121FA04F220EA020000EBD3707D
:406500005EEA430E08BF20EAD37070BD94F0000F0FD101F00046400041EB010111F4801F08BF013CF7D041EA060195F0000F18BF704703F00046520043EB030313F4801F41
:4065400008BF013DF7D043EA0603704794EA0C0F0CEA135518BF95EA0C0F0CD050EA410618BF52EA4306D1D181EA030101F000414FF0000070BD50EA410606BF1046194697
:4065800052EA430619D094EA0C0F02D150EA013613D195EA0C0F05D152EA03361CBF104619460AD181EA030101F0004141F0FE4141F470014FF0000070BD41F0FE4141F494
:4065C000780170BD70B54FF0FF0C4CF4E06C1CEA11541DBF1CEA135594EA0C0F95EA0C0F00F0A7F8A4EB050481EA030E52EA03354FEA013100F088804FEA03334FF0805515
:4066000045EA131343EA12634FEA022245EA111545EA10654FEA00260EF000419D4208BF964244F1FD0404F5407402D25B084FEA3202B61A65EB03055B084FEA32024FF42F
:4066400080104FF4002CB6EB020E75EB030E22BFB61A754640EA0C005B084FEA3202B6EB020E75EB030E22BFB61A754640EA5C005B084FEA3202B6EB020E75EB030E22BFA0
:40668000B61A754640EA9C005B084FEA3202B6EB020E75EB030E22BFB61A754640EADC0055EA060E18D04FEA051545EA16754FEA06164FEAC30343EA52734FEAC2025FEA51
:4066C0001C1CC0D111F4801F0BD141EA00014FF000004FF0004CB6E711F4801F04BF01430020B4F1FD0C88BFBCF5E06F3FF6AFAEB5EB030C04BFB6EB020C5FEA500C50F165
:40670000000041EB045170BD0EF0004E4EEA113114EB5C04C2BFD4EB0C0541EA045170BD41F480114FF0000E013C90E645EA060E8DE60CEA135594EA0C0F08BF95EA0C0FB4
:406740003FF43BAF94EA0C0F0AD150EA01347FF434AF95EA0C0F7FF425AF104619462CE795EA0C0F06D152EA03353FF4FDAE1046194622E750EA410618BF52EA43067FF449
:40678000C5AE50EA41047FF40DAF52EA43057FF4EBAE12E74FF0FF3C06E000BF4FF0010C02E000BF4FF0010C4DF804CD4FEA410C7FEA6C5C4FEA430C18BF7FEA6C5C1BD08F
:4067C00001B050EA410C0CBF52EA430C91EA030F02BF90EA020F0020704710F1000F91EA030F58BF994208BF90422CBFD8176FEAE37040F0010070474FEA410C7FEA6C5C0E
:4068000002D150EA013C07D14FEA430C7FEA6C5CD6D152EA033CD3D05DF8040B704700BF8446104662468C461946634600E000BF01B5FFF7B7FF002848BF10F1000F01BD3E
:406840004DF808EDFFF7F4FF0CBF012000205DF808FB00BF4DF808EDFFF7EAFF34BF012000205DF808FB00BF4DF808EDFFF7E0FF94BF012000205DF808FB00BF4DF808ED7A
:40688000FFF7CEFF94BF012000205DF808FB00BF4DF808EDFFF7C4FF34BF012000205DF808FB00BF4FEA410C7FEA6C5C02D150EA013C0AD14FEA430C7FEA6C5C02D152EA88
:4068C000033C02D14FF0000070474FF0010070474FEA410212F5001215D211D56FF47873B3EB625212D94FEAC12343F0004343EA505311F0004F23FA02F018BF40427047DA
:406900004FF00000704750EA013005D111F0004008BF6FF0004070474FF00000704700BF4FEA4102B2F1E04324BFB3F5001CDCF1FE5C0DD901F0004C4FEAC0024CEA5070E9
:40694000B2F1004F40EB830008BF20F00100704711F0804F21D113F13872BCBF01F00040704741F480114FEA5252C2F11802C2F1200C10FA0CF320FA02F018BF40F00100A9
:406980004FEAC1234FEAD32303FA0CFC40EA0C0023FA02F34FEA4303CCE77FEA625307D150EA01331EBF4FF0FE4040F44000704701F0004040F0FE4040F40000704700BFDA
:4069C00080F0004002E000BF81F0004142001FBF5FEA410392EA030F7FEA226C7FEA236C6AD04FEA1262D2EB1363C1BFD218414048404140B8BF5B42192B88BF704710F006
:406A0000004F40F4000020F07F4018BF404211F0004F41F4000121F07F4118BF494292EA030F3FD0A2F1010241FA03FC10EB0C00C3F1200301FA03F100F0004302D5494223
:406A400060EB4000B0F5000F13D3B0F1807F06D340084FEA310102F10102FE2A51D2B1F1004F40EBC25008BF20F0010040EA03007047490040EB000010F4000FA2F101027D
:406A8000EDD1B0FA80FCACF1080CB2EB0C0200FA0CF0AABF00EBC25052421843BCBFD0401843704792F0000F81F4000106BF80F400000132013BB5E74FEA41037FEA226CEF
:406AC00018BF7FEA236C21D092EA030F04D092F0000F08BF0846704790EA010F1CBF0020704712F07F4F04D1400028BF40F00040704712F100723CBF00F50000704700F0DC
:406B0000004343F0FE4040F4000070477FEA226216BF08467FEA23630146420206BF5FEA412390EA010F40F4800070474FF0000304E000BF10F0004348BF40425FEA000CBF
:406B400008BF704743F0964301464FF000001CE050EA010208BF70474FF000030AE000BF50EA010208BF704711F0004302D5404261EB41015FEA010C02BF84460146002035
:406B800043F0B64308BFA3F18053A3F50003BCFA8CF2083AA3EBC25310DB01FA02FC634400FA02FCC2F12002BCF1004F20FA02F243EB020008BF20F00100704702F1200291
:406BC00001FA02FCC2F1200250EA4C0021FA02F243EB020008BF20EADC7070474FF0FF0C1CEAD0521EBF1CEAD15392EA0C0F93EA0C0F6FD01A4480EA010C400218BF5FEA10
:406C000041211ED04FF0006343EA501043EA5111A0FB01310CF00040B1F5000F3EBF490041EAD3715B0040EA010062F17F02FD2A1DD8B3F1004F40EBC25008BF20F0010055
:406C4000704790F0000F0CF0004C08BF49024CEA502040EA51207F3AC2BFD2F1FF0340EAC250704740F400004FF00003013A5DDC12F1190FDCBF00F000407047C2F10002F5
:406C8000410021FA02F1C2F1200200FA02FC5FEA310040F1000053EA4C0308BF20EADC70704792F0000F00F0004C02BF400010F4000F013AF9D040EA0C0093F0000F01F00F
:406CC000004C02BF490011F4000F013BF9D041EA0C018FE70CEAD15392EA0C0F18BF93EA0C0F0AD030F0004C18BF31F0004CD8D180EA010000F00040704790F0000F17BF6D
:406D000090F0004F084691F0000F91F0004F14D092EA0C0F01D142020FD193EA0C0F03D14B0218BF084608D180EA010000F0004040F0FE4040F40000704740F0FE4040F418
:406D4000400070474FF0FF0C1CEAD0521EBF1CEAD15392EA0C0F93EA0C0F69D0A2EB030280EA010C49024FEA402037D04FF0805343EA111143EA10130CF000408B4238BF96
:406D80005B0042F17D024FF4000C8B4224BF5B1A40EA0C00B3EB510F24BFA3EB510340EA5C00B3EB910F24BFA3EB910340EA9C00B3EBD10F24BFA3EBD10340EADC001B01E5
:406DC00018BF5FEA1C1CE0D1FD2A3FF650AF8B4240EBC25008BF20F0010070470CF0004C4CEA50207F32C2BFD2F1FF0340EAC250704740F400004FF00003013A37E792F06D
:406E0000000F00F0004C02BF400010F4000F013AF9D040EA0C0093F0000F01F0004C02BF490011F4000F013BF9D041EA0C0195E70CEAD15392EA0C0F08D142027FF47DAFA6
:406E400093EA0C0F7FF470AF084676E793EA0C0F04D14B023FF44CAF08466EE730F0004C18BF31F0004CCAD130F000427FF45CAF31F000437FF43CAF5FE700BF4FF0FF3C46
:406E800006E000BF4FF0010C02E000BF4FF0010C4DF804CD4FEA40024FEA41037FEA226C18BF7FEA236C11D001B052EA530C18BF90EA010F58BFB2EB030088BFC81738BFBE
:406EC0006FEAE17018BF40F0010070477FEA226C02D15FEA402C05D17FEA236CE4D15FEA412CE1D05DF8040B704700BF844608466146FFE70FB5FFF7C9FF002848BF10F18F
:406F0000000F0FBD4DF808EDFFF7F4FF0CBF012000205DF808FB00BF4DF808EDFFF7EAFF34BF012000205DF808FB00BF4DF808EDFFF7E0FF94BF012000205DF808FB00BF12
:406F40004DF808EDFFF7D2FF94BF012000205DF808FB00BF4DF808EDFFF7C8FF34BF012000205DF808FB00BF4FEA4002B2F1FE4F0FD34FF09E03B3EB12620DD94FEA0023A2
:406F800043F0004310F0004F23FA02F018BF404270474FF00000704712F1610F01D1420205D110F0004008BF6FF0004070474FF00000704742000ED2B2F1FE4F0BD34FF016
:406FC0009E03B3EB126209D44FEA002343F0004323FA02F070474FF00000704712F1610F01D1420202D14FF0FF3070474FF00000704700BF2DE9F04F984616469DB0289B9E
:40700000DDF8A490059206931A4604464B4630464146FFF7ADF92A9E269A354600920796DDF8ACB0009EDDF89CA02A46CDE914015B4630465146FFF79BF9059E2A46CDE9F5
:4070400016015B4630464146FFF792F9069ECDE91801009A534630464946FFF789F9DDE91423DDE91656CDE91A01CDE90823104619462A463346CDE90A56FEF7C5FFDDE9A3
:40708000182306460F4610461946DDE91A23CDE90C01CDE90E23FEF7B9FF3246CDE902013B4630463946FFF7CBFB48B1DDE902232046C4E90067C4E902231DB0BDE8F08F61
:4070C000DDE9020102460B46FFF7BAFB0028EDD1059D43462A4628464146FEF795FF4346CDE910012A4628464146FFF7A9FB4FF0010300B9034613F0FF0F0FD0DDE9102307
:40710000104619464FF00105FFF79AFB10B14FF000031D4615F0FF0F40F06A81009D53462A4628465146FEF76FFF5346CDE910012A4628465146FFF783FB4FF0010300B9E3
:40714000034613F0FF0F0FD0DDE91023104619464FF00105FFF774FB10B14FF000031D4615F0FF0F40F0D78100231093069D4B462A4628464946FEF747FF4B46CDE9120181
:407180002A4628464946FFF75BFB4FF0010300B9034613F0FF0F0FD0DDE91223104619464FF00105FFF74CFB10B14FF000031D4615F0FF0F40F06481079D5B462A462846FE
:4071C0005946FEF721FF5B46CDE912012A4628465946FFF735FB4FF0010300B9034613F0FF0F0FD0DDE91223104619464FF00105FFF726FB10B14FF000031D4615F0FF0F14
:4072000040F08381109B002B40F0BC80DDE9080102460B46FEF7F8FEDDE90823CDE91201104619464FF00105FFF70AFB10B99DF840301D4615F0FF0F0ED0DDE91223104663
