:400000000080002011000000490500004905000008B5044B1A6803F53F5302331A6000F0B3FA00BFFA46004010B5054C237833B9044B13B10448AFF300800123237010BD2E
:400040005081FF1F0000000020430000084B10B51BB108490848AFF300800848036803B910BD074B002BFBD0BDE81040184700BF000000005481FF1F20430000C880FF1F2C
:400080000000000030B583B0154800F03FFB012001F012F8134800F08FF8134B1860134800F034FB002410E00F4B1B6833F814300F4D009323460F4A4FF48071284603F0BD
:4000C000FDFC284600F022FB01340F2CECD90A4800F01CFB002000F0EFFF03B030BD00BF244300006C81FF1F1082FF1F384300001482FF1F4C4300005443000038B562B625
:40010000174800F0CBFF00F08BFF00F09DFF154800F028FB00F0C4FA41F6FF734FF480420121022000F03EFC054600F0C7FB044606230246402100F0DBFB0B4A92B244F6B4
:400140001061204600F0E8FB2146284600F088FB0121284600F03CFB044800F0D7FAFEE785000000950100006C81FF1F6C43000008B5712802D0772804D008BD034800F074
:40018000C5FA08BD024800F0C1FA08BD7C4300008C43000038B500F097FA044609E000F08DFA054600F09CFA2846FFF7E1FF013CE4B2002CF3D138BD70B582B005460024C8
:4001C0002CE0204602F042FE27A3D3E9002302F0A3FE0022264B02F09FFE03F0AFF801460022684601F0A8F800994FF07E5003F0F9F802F03DFE00221E4B02F08DFE03F009
:400200009DF8064635F8140003F0A2F9314603F0F3F903F0F3FB25F814000134202CD0DD002213E012F0010103D005E00133DBB200E000230F2BF9D919B905E00133DBB25F
:4002400000E000230F2BF9D90132D2B21F2AE9D9012301E00133DBB20F2BFBD9002002B070BD00BFAFF30080182D4454FB2119400000A03F0000E03FFEE700BFF0B400223F
:40028000174611E050F82760F3B226F0FF0608E001EB420511F812406D78A5550132013BDBB2002BF4D101371C2FEBD9F0BC70470A4B1B78DBB203F00701094A11701B090E
:4002C000013213700122074B1A70102203F6F3131A704422A3F28A231A707047CF0100496E5800400D51004008B50A46002103F0DCFB08BD08B503F0CDFB08BD38B50024DD
:400300002E4B1C80502202331A70192502331D80182202331A70042229492A48FFF7EAFF0222294B1A7008224FF040231A70032103F500731970254B1B78DBB224490B707D
:40034000244B1A8041F25122023B1A800CE0224B1B7803F0010343EA440404F003044FF4F07000F0D9FF013D0DB1032CEFD115B90320FFF781FF194B4FF480721A8007228B
:400380001A70002216490A704820023108701A700222033B1A7004220A331A70114A137843F003031370013A137843F001031370013A137843F08003137038BD804000402C
:4003C0005C040048004100400043004008010049A146004022420040254200400440004006400040A2430040012807D8044B53F820201844017A13780B431370704700BFD3
:400400009C430000012808D8044B53F820201844017A137823EA0103137070479C43000038B572B6364A137843F00403137000240BE0344863001A19510001440A46098AF7
:40044000D068FFF751FF0134E4B2072CF1D900240BE02C49A3001819420088188022016CC06BFFF747FF0134E4B2002CF1D026494FF09040FFF702FF0A25244B1D70042208
:4004800023492448FFF736FF234A137843F0020313701032137843F0020313701F4C237843F040032370A2F58632513A137843F01003137008221A491A48FFF71BFF2A4652
:4004C00019491A48FFF716FF082219491948FFF711FF194A137843F008031370174D61232B70FFF70BFF81232B700122144B1A70FFF7DEFE0E2221461248FFF7FBFE38BD16
:40050000E84600409C4300007400004883580040600400485076004003500140A0430040400400480251004048040048C051004054040048125100402243004000480040BA
:4005400004000840B043004008B503F077FA03680C2B00D1FEE7FEE708B5094B1A681044084BC31A802B02DC054B186005E003F065FA0C2303604FF0FF32104608BD00BF23
:40058000CC80FF1F2083FF1F08B5104E104D16E029686B68AC68002204E051F8040B43F8040B0432A242F8D1E868002203E0002143F8041B04328242F9D11035013E002E59
:4005C000E6D103F041FAFFF799FDFEE7010000004048000008B5114A114B1A60114A136843F40073136000230AE0032B03D80E4A52F8231000E00D490D4A42F82310013322
:400600002F2BF2D90B4B1A780B4B1A70084A0B4B1A60FFF705FF00F0C1F808BD0004FA050CED00E014ED00E000000000490500000080FF1FBC760040C080FF1F08ED00E0F5
:400640007222084B1A702022023B1A700622A3F5B0731A70472210331A7000224F331A70704700BF8B65004010B500F05DFE04460A4A137843F020031370023A137843F07D
:4006800010031370A2F20112137843F01003137000F076F8204600F04BFE10BD9B65004008B5054B1B7823B9FFF7CAFF0122024B1A70FFF7D9FF08BDED81FF1F014B18786F
:4006C000704700BF49650040044B1B7813F0200F01D0012070470020704700BF69650040024B1B780BB1024B18707047ED81FF1F48640040034B1B7813F0040FFAD1024B86
:4007000018707047686400404864004038B5074B1B782BB938BDFFF7EDFF0134A4B201E005460024285D0028F5D138BDED81FF1F014B1B685864704708ED00E04001C0B25C
:40074000014B1870704700BF01E400E00222014B1A60704700E100E00222014B1A60704780E100E010B50446FFF7F6FF2046FFF7DFFF0720FFF7E2FFFFF7E8FF10BD00BF8B
:40078000054A137843F0020313701032137843F002031370704700BFA24300400B4A7F2313708021517007E0DA0002F1804202F5F042013BDBB21370002BF5D1DB0003F1FA
:4007C000804303F5F04300221A707047D080FF1F172815D831B103010A495A5C42F020025A5405E0030107495A5C02F0DF025A540001044A835C43F001038354002070479A
:40080000012070471070004017280BD80001064A835C03F0F103490001F00E011943815400207047012070471070004041F6FF73994201D14FF4005141F6FF739A4201D1BD
:400840004FF40052172808D8C00000F1804000F5EC408180C280002070470120704700BF172805D8034B03EB0010417200207047012070471070004017281BD810B4C00041
:4008800000F1804404F5EC44D201D2B201F07F01114321709DF804201201D2B203F00F03134363709DF8083003F00F03A3700020E07001E00120704710BC704710B500F0E9
:4008C00033FD0A4B5B78182B0BD9084A1478013B5370E30003F1804303F5F0431B78137000E0FF2400F024FD204610BDD080FF1F10F0800F0CD111F4704F0BD1C00000F14F
:40090000804000F5F04001808270C37000207047012070470120704710F0800F08D1C00000F1804000F5F0408180C280002070470120704701BE704708B5034B1B7A00FBA4
:4009400003F000F0E9FC08BDD880FF1F70B504460E46074B1D681F2802D90020FFF7EAFF04F01F04103455F8240045F8246070BD08ED00E038B504460D46072902D9002075
:40098000FFF7D8FF1F2C02D90020FFF7D3FF04F01F0000F1604000F564406D01EDB2057038BD00BFF0B583B016461F460B4C0A2525700023019300932B460A460146284675
:4009C000FFF75AFF3A4631462078FFF72FFF02212078FFF719FF207803B0F0BDE880FF1F38B59DF81040651EEDB2032D51D8013809282ED8DFE800F0052D2D052D2D0F1954
:400A00002D230F2B03D92548007840B222E02448007840B21EE00F2B03D92248007840B218E02148007840B214E00F2B03D91F48007840B20EE01E48007840B20AE00F2B31
:400A400003D91C48007840B204E01B48007840B200E0002001EB401101FB02F2D20B91B20D2B0BD8C3F10E0192B20A4191B2621E124800EB82020133937005E0631E0F4ADF
:400A800002EB83030F229A70013C0C4B23F8241038BD0020FFF74EFF38BD00BF180100491C010049190100491D0100491A0100491E0100491B0100491F010049F081FF1FDE
:400AC000F8B5074600F030FC06460D4D2B7843F003032B700B4C237843F0030323700A4B1F700320FFF728FF2B7803F0FC032B70237803F0FC032370304600F019FCF8BD61
:400B0000F8460040F946004092580040F8B504460022C14B1A7401285CD13822BF4B1A70042202331A70062201331A70002501331D7001331D703F2201331A7002331D7044
:400B400001331D7001331D7001260A331E70502203F527631A700A2201331A702C2201331A7001331D70442203331A70482201331A7001331E7002331E70112201331A7008
:400B8000192201331A70972201331A705220FFF797FF5822A24B1A7001331D700223A14A137001321370A04B1D7001331D70284600F09EFA43F233329C4B1A603146052006
:400BC00000F0BAFA3146252000F03AFB98491D20FFF7BCFE022C5DD13822904B1A70042202331A70062201331A70002501331D7001331D703F2201331A7002331D70013300
:400C00001D7001331D7001260A331E70502203F527631A70272201331A702C2201331A7001331D70552203331A705A2201331A70052701331F7002331E70112201331A700E
:400C4000192201331A70972201331A704420FFF737FF5822724B1A7001331D7005331F70022201331A7001331D7001331D70284600F03EFA4FF47A426C4B1A60314638460C
:400C800000F05AFA3146252000F0DAFA69491D20FFF75CFE032C5DD13822604B1A70042202331A70062201331A70002501331D7001331D703F2201331A7002331D700133BE
:400CC0001D7001331D7001260A331E70502203F527631A70272201331A702C2201331A7001331D70552203331A705A2201331A70052701331F7002331E70112201331A704E
:400D0000192201331A70972201331A704420FFF7D7FE5822424B1A7001331D7005331F70022201331A7001331D7001331D70284600F0DEF94FF47A423C4B1A60314638466D
:400D400000F0FAF93146252000F07AFA3A491D20FFF7FCFD042C5DD13822304B1A70042202331A70062201331A70002401331C7001331C703F2201331A7002331C70013381
:400D80001C7001331C7001250A331D70502203F527631A70272201331A702C2201331A7001331C70552203331A705A2201331A70052601331E7002331D70112201331A7095
:400DC000192201331A70972201331A704420FFF777FE5822124B1A7001331C7005331E70022201331A7001331C7001331C70204600F07EF94FF47A420C4B1A6029463046E9
:400E000000F09AF92946252000F01AFA0B491D20FFF79CFDF8BD00BFF081FF1F004E0040945800409A5800409C5800401483FF1F591000005D1000006110000065100000C3
:400E40002DE9F04182B0394D4FF0010885F80080374E00247474102000F05CF9102000F0DDF907211D20FFF785FD0427314B1F7001331C7007331C702F4A137843F0180347
:400E800013702E4B1C7003F2F5231C7001331C700A22A3F209331A7001331C7002331C705B2205331A705E2201331A7004331C701422A3F68C231A70CDF8008010234FF446
:400EC000004248F6F0510220FFF78AFD0223009310234FF4004249F2DA012046FFF780FD0323009310234FF4004249F2DA012046FFF776FD009710234FF4004249F2DA0178
:400F00002046FFF76DFD2B78013B06EB83039A780B4B1A702B78013B36F82320094B1A802878FFF7F3FD02B0BDE8F081E980FF1FF081FF1F96580040075B00409358004006
:400F40000E4E00400C4E004070B500F0EDF906462A4B1B782A4B1A7842F001021A701A7842F010021A7010331A7842F001021A701A7842F010021A70224D2B7843F0020388
:400F80002B70214C237843F0020323701F4A137843F0030313700320FFF7CEFC2B7803F0FD032B70237803F0FD032370184A137843F0060313707A22164B1A70164A1378C0
:400FC00043F0010313701032137843F0010313700F3A137843F0010313701032137843F0010313704FF000530C4A1360A2F5C0721360304600F09CF970BD00BFE980FF1F96
:40100000AA430040F8460040F9460040915800407758004082580040A143004080E200E008B5084B9B7C4BB9064BDB7C13F0FF0F01D1FFF705FF0122024B9A74FFF784FF27
:4010400008BD00BFF081FF1F024A137843F0010313707047004E0040704700BF704700BF704700BF704700BF014B1B681864704708ED00E04001C0B2014B1870704700BFDB
:4010800000E400E00122014B1A60704700E100E00122014B1A60704780E100E010B50446FFF7F6FF2046FFF7DFFF0720FFF7E2FFFFF7E8FF10BD00BF044A137803F0FB03C5
:4010C000800000F004001843107070471051004010B5002404E02046FFF794F90134E4B2012CF8D9FF22014B1A7010BDEA80FF1F10B50446FFF7ECFF2046FFF775F9014B78
:401100001C7010BDEA80FF1F014B188880B2704780400040034B1A7800F0F80010431870704700BF82400040024B187800F00700704700BF8240004070B505460E46FFF7D8
:40114000F3FF0446FFF7E0FFA84256D02B4B1B7803F0010294B900B185B938B9284B1D80284A137803F0BF03137070BD254A137843F040031370224B1D8070BD22B300238E
:4011800021490B7001240F310C7004310B700C390B7803F07F030B701A4B1B7813F0080F00D08DB9194B18800721013B1970164B1B7813F0010FFAD110490B7803F0FE034E
:4011C0000B700021104B19700C4B1B7813F0010F0DD00E4B1D800EB1032200E001220A4B1A70094B1B7813F0010FFAD170BD044B1D8002490B7813430B7070BDA24300400A
:4012000080400040824000400140004002400040014B188880B2704700410040034B1A7800F0F80010431870704700BF02410040024B187800F00700704700BF02410040EA
:4012400070B505460E46FFF7F3FF0446FFF7E0FFA84256D02B4B1B7803F0010294B900B185B938B9284B1D80284A137803F0BF03137070BD254A137843F040031370224B95
:401280001D8070BD22B3002321490B70012413310C7004390B7008390B7803F07F030B701A4B1B7813F0080F00D08DB9194B18800721013B1970164B1B7813F0010FFAD153
:4012C00010490B7803F0FE030B700021104B19700C4B1B7813F0010F0DD00E4B1D800EB1032200E001220A4B1A70094B1B7813F0010FFAD170BD044B1D8002490B78134306
:401300000B7070BDA1430040004100400241004001400040024000400230800803D000BF01380046FCD17047EFF3108072B6704780F31088704700BFF0B50E46174683B030
:4013400005461146304600F055F801AA694600F023F83946304600F051F800F093F8019902F04AF939460446304600F047F800F049F8009902F040F900210646204602F013
:401380003BF90146304602F02DF82860284604F100446C6003B0F0BDF8B50D461646044600F06CF84FF07C5102F0CEFAC8B9204600F0FEF8074601464FF07C5002F0D0F9E3
:4013C0004FF07C510446384602F016F92146074602F008F839463060204602F005F82860F8BD204600F08CF82860204600F052F93060F8BD084682B002B0704782B002B0BC
:40140000704700BF00B51C4A20F00043934283B018DDB3F1FF4F05DB014601F0E3FF03B05DF804FB694600F007FB00F00302012A15D0022A0CD0CAB101220199009801F069
:4014400007F9ECE7002100F0EFFC03B05DF804FB0199009800F0E8FC00F10040DFE70199009801F0F5F800F10040D8E70199009800F0DAFCD3E700BFD80F493F20F0004069
:40148000704700BF00B51D4A20F00043934283B019DDB3F1FF4F05DB014601F0A3FF03B05DF804FB694600F0C7FA00F00300012818D002280ED0D0B10199009800F0B4FCD7
:4014C00000F10040EBE70022002101F0C1F803B05DF804FB01220199009801F0B9F800F10040DCE70199009800F09EFCD7E701220199009801F0ACF8D1E700BFD80F493FC0
:40150000F0B58BB0044600F025F9244E054696F9003001332CD02146204602F033FA074630BB2046FFF7AAFF1D4902F021FAF8B11C4A0323204600930897019201F098FC46
:4015400096F90030CDE90401CDE902019BB9164B4FF06042CDE90623684601F0EFF880B1089BABB9DDE9060101F0E8FE0BB0F0BD28460BB0F0BD0D490020022BCDE90601C3
:40158000EAD102F05BFA22230360089B002BE9D002F054FA089B0360E4E700BFEB80FF1FFCD4B242E4430000FFFFEF470000F07FF0B58BB0054600F041F9304E044696F967
:4015C0000030013335D0284601F042FA002830D02B49284602F0CCF9074600282CD12949284602F0A7F920B3274A0423284600930897019201F03CFC96F900300024002573
:40160000022BCDE90401CDE90201CDE906452FD0684601F093F800282AD0089B1BB102F00DFA089B0360DDE9060101F087FE0BB0F0BD20460BB0F0BD1349002303222846C4
:4016400008930191009201F013FC96F90030CDE90401CDE902012BB90C4B4FF06042CDE90623D5E70A490020022BCDE90601CFD102F0E4F922230360CFE700BFEB80FF1F4F
:401680008071B142B5F1CFC2EC430000FFFFEF470000F07FF0B58BB0064600F03FFB274D044695F90030013303D001F0D1F9074610B120460BB0F0BD304601F0C9F900287C
:4016C000F7D01F4A0323304608970192009301F0CFFB95F90040CDE90401CDE90201304600219CB902F044F94FF0604208B3154BCDE90623684601F021F880B1089B9BB986
:40170000DDE9060101F01AFE0BB0F0BD02F030F9002280B10C4B022CCDE90623EAD102F08DF922230360E9E702F088F9089B0360E6E7064BDCE7064BEDE700BFEB80FF1F27
:40174000F4430000FFFFEF470000F07FFFFFEFC70000F0FF70B520F00044B4F1FF4F10DA314B9C4211DD314B9C422DDD304B9C423FDD304B9C4245DD2F49084601F03CFF08
:4017800070BD014601F038FF70BDFFF777FE00F0D7FF4FF07E51064601F026FEB4F1105F054625DB3146304601F026FF29460446284601F019FE0146204601F0D1FF4FF082
:4017C0007E5101F011FE70BDFFF758FE00F036F84FF07C51054601F00FFF294604464FF07C5001F0BDFF0146204601F0FDFD70BD70BDFFF743FE00F021F84FF07C5101F08D
:40180000FBFE70BDFFF73AFE4FF07C5101F0F4FE00F014F804464FF07C5101F0EDFE214601F0EAFE70BD00BF1772B13EFFFFAF411772B142FCD4B242CAF2497120F000429D
:40184000B2F1FF4F2DE9F04104466FD84FEAD07571D06949884200F38C800028C0F28280664B9A426AD9664B9A4200F2A280654B204653F8251001F0B5FD634B0746C5F12E
:40188000010053F82580451B4146384601F0AAFD04462146204601F0AFFE06465B4901F0ABFE5B4901F09EFD314601F0A5FE594901F09AFD314601F09FFE574901F092FD71
:4018C000314601F099FE554901F08EFD314601F093FE0146204601F085FD0646002D4ED02046314601F088FE314604464FF0804001F078FD0146204601F032FF0146404609
:4019000001F070FD394601F06DFD01464FF07E5001F068FD15F17D0F6ADA643500EBC5504FF0586101F068FEBDE8F081014601F05BFDBDE8F081CDB9BDE8F081B2F1465F67
:4019400035D23749204601F04FFD4FF07E5102F00FF800284AD020464FF07E5101F044FDBDE8F0812F4B9A427FF67AAF0020BDE8F0812B49084601F03FFEBDE8F0810146C1
:40198000204601F039FE4FF080410546304601F029FD0146284601F0E3FE214601F022FD01464FF07E5001F01DFDBDE8F08100256FE71D49204601F01FFE1C4B53F8251012
:4019C00001F012FD01F0F4FF054601F0C1FD1849064601F011FE0146204601F003FD15490746304601F008FE80464DE7054650E700EBC550BDE8F0811772B1421872B13E1F
:401A00009115853F0C440000044400004CBB31330EEADD3555B38A38610B363BABAA2A3ECAF24971B5F1CF423BAAB83FFC4300008071313FD1F717372DE9F04FAA4A20F0B3
:401A40000044944289B067DDA84A0D469442074601461CDC0028A64940F3EA8001F0C2FCA44B24F00F049C42064663D0A24901F0B9FC01463046296001F0B4FC9E4901F002
:401A8000B1FC01236860184609B0BDE8F08F9B4A944261DDB4F1FF4F46DAE615863EA4EBC654204601F084FF01F052FD034620461946059301F096FC4FF0874101F09CFD0A
:401AC000804601F075FF01F043FD044640462146069401F087FC4FF0874101F08DFD0021079001F01DFF002800F0C3802046002101F016FF002814BF0123022380480221E7
:401B0000019000913246294605A800F051FA002FC0F2A580034603E0002208604A600023184609B0BDE8F08F01F05CFC002368602860F5E7734901F055FC7349044601F063
:401B400051FC01462046296001F04CFC6E4901F049FC01236860E3E7FFF790FC6B49804601F04AFD4FF07C5101F03EFC01F020FF064601F0EDFC5E49834601F03DFD014683
:401B8000404601F02FFC5C498146584601F034FD1F2E82460146484618DC5D4B721E53F8223024F0FF029A4210D001F01BFC8046C5F800804146484601F014FC514601F02A
:401BC00011FC002F686056DB3346A9E701F00AFCE215C0F3C753D31A082B8046E8DD49495846039201F008FD80460146484601F0F9FB01460446484601F0F4FB414601F08F
:401C0000F1FB80464049584601F0F6FC414601F0E9FB01468246204601F0E4FB039AC0F3C753D21A192A804641DC2860A146C1E701F0DAFB2F4B24F00F049C42064623D030
:401C40002D4901F0D1FB01463046296001F0CAFB294901F0C9FB4FF0FF33686060E795E80C0002F1004103F10042296043426A6056E7032342E708F1004800F10040C5F808
:401C80000080686073424BE71E4901F0ADFB1E49044601F0A9FB01462046296001F0A2FB194901F0A1FB4FF0FF33686038E71949584601F0A1FC01468046204601F092FB25
:401CC00001468146204601F08DFB414601F08AFB04461149584601F08FFC214601F082FB82460146484660E7D80F493FE3CB1640800FC93FD00FC93F43443537800F494384
:401D0000944400000044353708A3852E84F9223F1444000000A3852E32318D24F8B520F00045B5F1FF4F04461FDA3B4B0028B4BF4FF03F464FF07C569D420CDCB5F1465FDC
:401D400049DA364901F050FB4FF07E5101F010FE78B12046F8BD324B9D4253DD314B9D4228DD2E4901F048FCF8BD014601F03CFBF8BD2046FFF782FB00F0E2FC044621466B
:401D8000204601F031FB21460546204601F034FC4FF07E510746204601F026FB0146384601F0DEFC0146284601F01CFB314601F023FCF8BDFFF762FB4FF07C5101F01CFCA3
:401DC000FFF73CFD04460146304601F015FC214601F012FCF8BDFFF751FB00F0B1FCB5F17E5F0446CBDB4FF07E5101F0FDFA0146204601F0B5FC214601F0F6FA314601F049
:401E0000FBFBF8BDFFF73AFBFFF718FD0146304601F0F2FBF8BD00BFFFFFAF41C2BDF07C1772B142FCD4B2422DE9F84320F00044B4F1485F06460F4649DA01F0B9FD002815
:401E400000F09D803146304601F0D6FB05464E4901F0D2FB4D4901F0C7FA294601F0CCFB4B4901F0BFFA294601F0C6FB494901F0BBFA294601F0C0FB474901F0B3FA294648
:401E800001F0BAFB454901F0AFFA294601F0B4FB80464FF07C51284601F0AEFB41460446284601F0A9FB39460546304601F0A4FB0146284601F096FA0146204601F092FA67
:401EC00001464FF07E5001F08DFABDE8F883014601F092FB05462C4901F08EFB2B4901F083FA294601F088FB294901F07BFA294601F082FB274901F077FA294601F07CFBD4
:401F0000254901F06FFA294601F076FB234901F06BFA294601F070FB214B80469C42B8DD204B9C4227DC04F17F4421464FF07E5001F058FA81464FF07C51284601F05CFB92
:401F4000214601F04FFA41460446284601F054FB39460546304601F04FFB0146284601F041FA0146204601F03DFA0146484601F039FABDE8F883DFF834900B4CDBE74FF004
:401F80007E50BDE8F88300BF4ED747ADF6740F317CF29334010DD037610BB63AABAA2A3D9999993E0000483F0000903E0000383F2DE9F04F1C46DFB00891611E01910A93ED
:401FC0006899BB4B029053F821300793D31E48BF131DDB1023EAE37319460B930133A2EBC3030693019A079B8D1A9C1815D42C44013421AE699F08E057F8250001F0A8FA93
:402000000135A54246F8040F07D0002DF4DA01350020A54246F8040FF7D1079B002B2ADB079B0A9A19469346019E49AF01EB0208019B002BC0F2A18122ABCBEB060503EB16
:402040008505029B4FF00009A3F1040A22AB03EB86045AF8041F54F8040901F0CDFA0146484601F0C1F9AC428146F2D10136464547F8049FDCD1079B0EA91E4603F18043C7
:40208000023B9B001A1D0A440B440D920C935EAB03EB8603002E53F8508C23DD5EAB03EB8604543C0DAD49AF4FF06E51404601F0A3FA01F07DFC01F04BFA4FF0874181461E
:4020C00001F09AFA0146404601F08CF901F070FC54F8041945F8040F484601F085F9BC428046E1D14046DDF81880414600F0FEFC4FF07851044601F07FFA00F0B1FC4FF093
:40210000824101F079FA0146204601F06BF9044601F04EFC074601F01BFA01462046444601F060F9002C054640F30E81701E0EAB53F82030C8F1080243FA02F101FA02F220
:402140009B1AC8F1070A0EAA42F820300F4443FA0AFABAF1000F30DD002E07F1010740F34D82002214460DA907E0C3F580700BB108600124013296420BDD51F8043F002C5E
:40218000F3D00132C3F1FF0396420B604FF00104F3DC069B002B0DDD012B00F0DD80022B08D1721E0EAB53F822300EA903F03F0341F82230BAF1020F7CD00021284601F003
:4021C000AFFB002800F09080079B741EA34210DC06F180430EAA013B0D9802EB8303002253F80419834242EA0102F9D1002A40F0DE80079B0EAA013B52F82330002B40F0B4
:40220000FB810C9B012753F804290137002AFAD0F219731C9342099240DC0B9AB90003EB02080A9A08F1804803916999164408F1FF38B20001EB880822A99B00049201EB98
:40224000020A4AAA02EB0309043B0593002658F8040F01F07DF9019B4AF8040B002B1FDB049B0027F418059BF51822AB1C441D44029BA3F1040B5BF8041F54F8040901F07F
:40228000BBF90146384601F0AFF8AC420746F2D1039B04369E4249F8047BD8D1099EF6E6039B043600279E4249F8047BCFD1F5E7AC47000029464FF07E5001F093F805461A
:4022C000002C3FF47AAF06994FF07E5000F00EFC0146284601F086F805460021284601F01FFB00287FF470AF0297069F2846794200F0FCFB4FF08741044601F02FFB00280B
:4023000000F081814FF06E51204601F075F901F04FFB01F01DF94FF08741054601F06CF90146204601F05EF801F042FB0EAB43F82600284601F03CFB3B460833741C069347
:402340000EAB43F8240047E010D1731E0EAA52F823304FEA232AFCE6721E0EAB53F822300EA903F07F0341F8223023E74FF07C5101F0F4FA50B982461FE701364FF0000907
:40238000464547F8049F7FF453AE74E6002E07F10107C8BF4FF0020A3FF7E3AE29464FF07E5001F01FF84FF0020A054605E7069A0EAB53F82430083A0297069263B904F199
:4023C0008043013B0EA901EB830353F80419013C083A0029F9D0069206994FF07E5000F085FB002C0546C0F21881A3004AAA1F1D02EB030901930EAB1F4409F1040657F897
:40240000040D01F0A5F8294601F0F6F84FF06E5146F8040D284601F0EFF80EAB9F420546EDD1A346DDF81C80A9F104090027CDF80CA0B8F1000FB8BF002615DB824CCA46BD
:4024400082480026002503E0AF420DDB54F8040F5AF8041F01F0D0F80146304600F0C4FF0135A8450646EFDA5EAB03EB8703A9F1040943F8A06C48AB994507F10107D8D16D
:40248000689B5C46DDF80CA0032B5AD8DFE803F08D5F5F02002C40F3BE80019A5EA98B1836AE53F8A07CB51855F8049C3946484600F09AFF80460146484600F093FF394676
:4024C00000F092FF286045F8048DAE424746EBD1012C40F3A080019B5EAAF418254602EB030858F8A06C0DF1DC0955F8048C3046414600F079FF07460146404600F072FF3D
:40250000314600F071FF286045F8047DA9453E46EBD10020043438AD54F8041D00F064FFA542F9D1BAF1000F6AD0369A379B00F1004002F1004203F10043089CA060226049
:402540006360029B03F007005FB0BDE8F08F019D36AE04353544002055F8041D00F044FFB542F9D1BAF1000F39D0089A00F1004301461360369800F035FF002C0BDD36AEDB
:402580000125013556F8041F00F02EFFAC42F8DABAF1000F50D0089A00F100435360029B03F007005FB0BDE8F08F019B5EAA13440020A3F19C05013C55F8041D00F014FF46
:4025C000631CF8D1BAF1000F01D000F10040089B1860029B03F007005FB0BDE8F08F089B01461860369800F0FDFE002CD8BF0346C5DC089A5360D2E7012709E60024C8E534
:40260000369A379B99E7204601F0D2F90EAB344643F82600E0E6002084E7689B032B90D801A252F823F000BF452600004126000041260000172600000346089A5360AEE770
:4026400000208FE70020BDE7B84700000000C93F2DE9F84320F00043B3F1485F04460F46904603DA01F0A4F9002858D02146204600F0C2FF05460146204600F0BDFF294946
:402680000646284600F0B8FF274900F0ABFE294600F0B2FF254900F0A7FE294600F0ACFF234900F09FFE294600F0A6FF214900F09BFE8146B8F1000F22D04FF07C513846A8
:4026C00000F09AFF49468046304600F095FF0146404600F087FE294600F08EFF394600F081FE15490546304600F086FF0146284600F07AFE0146204600F074FEBDE8F88306
:402700000146284600F078FF0B4900F06BFE314600F072FF214600F067FEBDE8F8832046BDE8F883D3C92E2F342FD7321BEF3836010D50398988083CABAA2A3E0020704739
:40274000B04920F000428A422DE9F843044600F0004513D9B2F1FF4F00F2998000F00B81002D40F0B280A84B9A4200F24581A74900F042FF01464FF07C50B5E0A44B9A4225
:4027800000F28A80B2F14C5FC0F0E08000264FF07C51204600F030FF80460146204600F02BFF05469B4900F027FF9B4900F01CFE294600F021FF994900F014FE294600F086
:4027C0001BFF974900F010FE294600F015FF954900F008FE294600F00FFF4FF07E5100F003FE81460146404600F006FF01468E4800F0F8FD01468046484600F0F3FD4146A1
:402800008146204600F0F8FE0146884800F0EAFD0146484600F0A4FF294600F0EDFE01464EB3394600F0DEFD214600F0E5FE394600F0D8FD294600F0D5FD731C054600F0DA
:40284000B080012E66D0731C392B00F29A80162E40F3C280C6F17F01C90500F0C5FD0146204600F0BFFD4FF07E5100F0BDFD00EBC650BDE8F883204600F0BEFE294600F0B1
:40288000B1FD0146204600F0ADFDBDE8F883014600F0AAFDBDE8F883654B9A4262D86549002D4CD100F09EFD0746634D01262946384600F097FD01460446384600F092FD99
:4028C000294600F08FFD074661E75C4900F08CFD002101F02FF8002850D14C49204600F08BFE01464FF03F4000F07EFD01F060F8064600F02DFE4F49054600F07DFE01468F
:40290000204600F06FFD4C490746284600F074FE0546CCE74A49204601F00CF800284ED020464FF07C5100F05FFD0146284600F059FD4FF0404100F05FFEBDE8F88300F01B
:4029400053FD4FF0FF3607463E4DB0E73E4900F04BFD014600F046FD0146204600F042FDBDE8F883294900F047FE0146002DB9D14FF07C50B8E70DB9BDE8F8833348BDE89A
:40298000F883214600F02EFD01464FF07E5000F029FD4FF07E5100EBC65000F023FDBDE8F8830146204600F01DFD4FF07C5100F023FE4FF07C5100F015FDBDE8F883294600
:4029C000204600F00FFD014600F00EFD4FF07E5100F00AFDBDE8F8834FF0807333412146C3F17E5400F0FEFC0146204600F0FAFC00EBC650BDE8F8831349084600F0FCFD4A
:402A0000BDE8F88343B895411772B1423BAAB83F1872B13EBBED57B4547E8636CD70A638010DD03A8988083D000040400000C0409115853F8071313FD1F717376042A20D58
:402A4000000080BED1F717B7CAF24971000080BF20F00040B0F1FF4FACBF0020012070472DE9F04120F00047FC0D7F3C162C054613DC002C80461BDB194F2741384214D037
:402A8000184900F0B1FC002100F072FF68B1002D1BDB28EA0700BDE8F081B7F1FF4F04D3014600F0A1FCBDE8F0812846BDE8F0810C4900F099FC002100F05AFF0028F4D0C0
:402AC000002D08DB0020BDE8F0814FF4000343FA04F4A044DDE7002FE7D00348BDE8F081FFFF7F00CAF24971000080BF30F0004238B5034616D0B2F1FF4F0FD2B2F5000FEE
:402B00000D4610D30446D20D2A44FE2A2EDC002A1DDD24F0FF4444EAC25038BD014600F063FC38BD38BD4FF0984100F065FD184A0346954207DBC0F3C7520446193AE3E765
:402B4000144800F02BF8134900F056FD38BD12F1160F13DA4CF2503295421946F0DD0E4800F01CF80C4900F047FD38BD19460A4800F014F8084900F03FFD38BD193224F024
:402B8000FF4040EAC2504FF04C5100F035FD38BDB03CFFFF6042A20DCAF2497101F0004120F000400843704781F0004102E000BF83F0004330B54FEA41044FEA430594EA07
:402BC000050F08BF90EA020F1FBF54EA000C55EA020C7FEA645C7FEA655C00F0E2804FEA5454D4EB5555B8BF6D420CDD2C4480EA020281EA030382EA000083EA010180EA68
:402C0000020281EA0303362D88BF30BD11F0004F4FEA01314FF4801C4CEA113102D0404261EB410113F0004F4FEA03334CEA133302D0524263EB430394EA050F00F0A780B4
:402C4000A4F10104D5F1200E0DDB02FA0EFC22FA05F2801841F1000103FA0EF2801843FA05F359410EE0A5F120050EF1200E012A03FA0EFC28BF4CF0020C43FA05F3C01850
:402C800051EBE37101F0004507D54FF0000EDCF1000C7EEB00006EEB0101B1F5801F1BD3B1F5001F0CD349085FEA30004FEA3C0C04F101044FEA445212F5800F80F09A807D
:402CC000BCF1004F08BF5FEA500C50F1000041EB045141EA050130BD5FEA4C0C404141EB010111F4801FA4F10104E9D191F0000F04BF01460020B1FA81F308BF2033A3F1BD
:402D00000B03B3F120020CDA0C3208DD02F1140CC2F10C0201FA0CF021FA02F10CE002F11402D8BFC2F1200C01FA02F120FA0CFCDCBF41EA0C019040E41AA2BF01EB04511F
:402D4000294330BD6FEA04041F3C1CDA0C340EDC04F11404C4F1200220FA04F001FA02F340EA030021FA04F345EA030130BDC4F10C04C4F1200220FA02F001FA04F340EA19
:402D80000300294630BD21FA04F0294630BD94F0000F83F4801306BF81F480110134013D4EE77FEA645C18BF7FEA655C29D094EA050F08BF90EA020F05D054EA000C04BF50
:402DC0001946104630BD91EA030F1EBF0021002030BD5FEA545C05D14000494128BF41F0004130BD14F580043CBF01F5801130BD01F0004545F0FE4141F470014FF000002F
:402E000030BD7FEA645C1ABF194610467FEA655C1CBF0B46024650EA013406BF52EA033591EA030F41F4002130BD00BF90F0000F04BF0021704730B54FF4806404F13204B8
:402E40004FF000054FF0000150E700BF90F0000F04BF0021704730B54FF4806404F1320410F0004548BF40424FF000013EE700BF42004FEAE2014FEA31014FEA02701FBF33
:402E800012F07F4393F07F4F81F06051704792F0000F14BF93F07F4F704730B54FF4607401F0004521F0004120E700BF50EA010208BF704730B54FF000050AE050EA010263
:402EC00008BF704730B511F0004502D5404261EB41014FF4806404F132045FEA915C3FF4DCAE4FF003025FEADC0C18BF03325FEADC0C18BF033202EBDC02C2F1200300FAA4
:402F000003FC20FA02F001FA03FE40EA0E0021FA02F11444C1E600BF70B54FF0FF0C4CF4E06C1CEA11541DBF1CEA135594EA0C0F95EA0C0F00F0DEF82C4481EA030621EAEE
:402F40004C5123EA4C5350EA013518BF52EA033541F4801143F4801338D0A0FB02CE4FF00005E1FB02E506F00042E0FB03E54FF00006E1FB03569CF0000F18BF4EF0010E0F
:402F8000A4F1FF04B6F5007F64F5407404D25FEA4E0E6D4146EB060642EAC62141EA55514FEAC52040EA5E504FEACE2EB4F1FD0C88BFBCF5E06F1ED8BEF1004F08BF5FEAD4
:402FC000500E50F1000041EB045170BD06F0004646EA010140EA020081EA0301B4EB5C04C2BFD4EB0C0541EA045170BD41F480114FF0000E013C00F3AB8014F1360FDEBF29
:40300000002001F0004170BDC4F10004203C35DA0C341BDC04F11404C4F1200500FA05F320FA04F001FA05F240EA020001F0004221F0004110EBD37021FA04F642EB0601A5
:403040005EEA430E08BF20EAD37070BDC4F10C04C4F1200500FA04F320FA05F001FA04F240EA020001F0004110EBD37041F100015EEA430E08BF20EAD37070BDC4F1200563
:4030800000FA05F24EEA020E20FA04F301FA05F243EA020321FA04F001F0004121FA04F220EA020000EBD3705EEA430E08BF20EAD37070BD94F0000F0FD101F00046400052
:4030C00041EB010111F4801F08BF013CF7D041EA060195F0000F18BF704703F00046520043EB030313F4801F08BF013DF7D043EA0603704794EA0C0F0CEA135518BF95EA74
:403100000C0F0CD050EA410618BF52EA4306D1D181EA030101F000414FF0000070BD50EA410606BF1046194652EA430619D094EA0C0F02D150EA013613D195EA0C0F05D172
:4031400052EA03361CBF104619460AD181EA030101F0004141F0FE4141F470014FF0000070BD41F0FE4141F4780170BD70B54FF0FF0C4CF4E06C1CEA11541DBF1CEA135551
:4031800094EA0C0F95EA0C0F00F0A7F8A4EB050481EA030E52EA03354FEA013100F088804FEA03334FF0805545EA131343EA12634FEA022245EA111545EA10654FEA002633
:4031C0000EF000419D4208BF964244F1FD0404F5407402D25B084FEA3202B61A65EB03055B084FEA32024FF480104FF4002CB6EB020E75EB030E22BFB61A754640EA0C008D
:403200005B084FEA3202B6EB020E75EB030E22BFB61A754640EA5C005B084FEA3202B6EB020E75EB030E22BFB61A754640EA9C005B084FEA3202B6EB020E75EB030E22BFB3
:40324000B61A754640EADC0055EA060E18D04FEA051545EA16754FEA06164FEAC30343EA52734FEAC2025FEA1C1CC0D111F4801F0BD141EA00014FF000004FF0004CB6E70D
:4032800011F4801F04BF01430020B4F1FD0C88BFBCF5E06F3FF6AFAEB5EB030C04BFB6EB020C5FEA500C50F1000041EB045170BD0EF0004E4EEA113114EB5C04C2BFD4EBA2
:4032C0000C0541EA045170BD41F480114FF0000E013C90E645EA060E8DE60CEA135594EA0C0F08BF95EA0C0F3FF43BAF94EA0C0F0AD150EA01347FF434AF95EA0C0F7FF4D9
:4033000025AF104619462CE795EA0C0F06D152EA03353FF4FDAE1046194622E750EA410618BF52EA43067FF4C5AE50EA41047FF40DAF52EA43057FF4EBAE12E74FEA4102FA
:40334000B2F1E04324BFB3F5001CDCF1FE5C0DD901F0004C4FEAC0024CEA5070B2F1004F40EB830008BF20F00100704711F0804F21D113F13872BCBF01F00040704741F46E
:4033800080114FEA5252C2F11802C2F1200C10FA0CF320FA02F018BF40F001004FEAC1234FEAD32303FA0CFC40EA0C0023FA02F34FEA4303CCE77FEA625307D150EA0133A7
:4033C0001EBF4FF0FE4040F44000704701F0004040F0FE4040F40000704700BF80F0004002E000BF81F0004142001FBF5FEA410392EA030F7FEA226C7FEA236C6AD04FEA5F
:403400001262D2EB1363C1BFD218414048404140B8BF5B42192B88BF704710F0004F40F4000020F07F4018BF404211F0004F41F4000121F07F4118BF494292EA030F3FD09A
:40344000A2F1010241FA03FC10EB0C00C3F1200301FA03F100F0004302D5494260EB4000B0F5000F13D3B0F1807F06D340084FEA310102F10102FE2A51D2B1F1004F40EB6C
:40348000C25008BF20F0010040EA03007047490040EB000010F4000FA2F10102EDD1B0FA80FCACF1080CB2EB0C0200FA0CF0AABF00EBC25052421843BCBFD04018437047F9
:4034C00092F0000F81F4000106BF80F400000132013BB5E74FEA41037FEA226C18BF7FEA236C21D092EA030F04D092F0000F08BF0846704790EA010F1CBF0020704712F050
:403500007F4F04D1400028BF40F00040704712F100723CBF00F50000704700F0004343F0FE4040F4000070477FEA226216BF08467FEA23630146420206BF5FEA412390EA79
:40354000010F40F4800070474FF0000304E000BF10F0004348BF40425FEA000C08BF704743F0964301464FF000001CE050EA010208BF70474FF000030AE000BF50EA0102DB
:4035800008BF704711F0004302D5404261EB41015FEA010C02BF84460146002043F0B64308BFA3F18053A3F50003BCFA8CF2083AA3EBC25310DB01FA02FC634400FA02FC89
:4035C000C2F12002BCF1004F20FA02F243EB020008BF20F00100704702F1200201FA02FCC2F1200250EA4C0021FA02F243EB020008BF20EADC7070474FF0FF0C1CEAD0523F
:403600001EBF1CEAD15392EA0C0F93EA0C0F6FD01A4480EA010C400218BF5FEA41211ED04FF0006343EA501043EA5111A0FB01310CF00040B1F5000F3EBF490041EAD3715D
:403640005B0040EA010062F17F02FD2A1DD8B3F1004F40EBC25008BF20F00100704790F0000F0CF0004C08BF49024CEA502040EA51207F3AC2BFD2F1FF0340EAC2507047F9
:4036800040F400004FF00003013A5DDC12F1190FDCBF00F000407047C2F10002410021FA02F1C2F1200200FA02FC5FEA310040F1000053EA4C0308BF20EADC70704792F015
:4036C000000F00F0004C02BF400010F4000F013AF9D040EA0C0093F0000F01F0004C02BF490011F4000F013BF9D041EA0C018FE70CEAD15392EA0C0F18BF93EA0C0F0AD097
:4037000030F0004C18BF31F0004CD8D180EA010000F00040704790F0000F17BF90F0004F084691F0000F91F0004F14D092EA0C0F01D142020FD193EA0C0F03D14B0218BFFB
:40374000084608D180EA010000F0004040F0FE4040F40000704740F0FE4040F4400070474FF0FF0C1CEAD0521EBF1CEAD15392EA0C0F93EA0C0F69D0A2EB030280EA010CAB
:4037800049024FEA402037D04FF0805343EA111143EA10130CF000408B4238BF5B0042F17D024FF4000C8B4224BF5B1A40EA0C00B3EB510F24BFA3EB510340EA5C00B3EBCF
:4037C000910F24BFA3EB910340EA9C00B3EBD10F24BFA3EBD10340EADC001B0118BF5FEA1C1CE0D1FD2A3FF650AF8B4240EBC25008BF20F0010070470CF0004C4CEA50208E
:403800007F32C2BFD2F1FF0340EAC250704740F400004FF00003013A37E792F0000F00F0004C02BF400010F4000F013AF9D040EA0C0093F0000F01F0004C02BF490011F4D6
:40384000000F013BF9D041EA0C0195E70CEAD15392EA0C0F08D142027FF47DAF93EA0C0F7FF470AF084676E793EA0C0F04D14B023FF44CAF08466EE730F0004C18BF31F04F
:40388000004CCAD130F000427FF45CAF31F000437FF43CAF5FE700BF4FF0FF3C06E000BF4FF0010C02E000BF4FF0010C4DF804CD4FEA40024FEA41037FEA226C18BF7FEADD
:4038C000236C11D001B052EA530C18BF90EA010F58BFB2EB030088BFC81738BF6FEAE17018BF40F0010070477FEA226C02D15FEA402C05D17FEA236CE4D15FEA412CE1D005
:403900005DF8040B704700BF844608466146FFE70FB5FFF7C9FF002848BF10F1000F0FBD4DF808EDFFF7F4FF0CBF012000205DF808FB00BF4DF808EDFFF7EAFF34BF012008
:4039400000205DF808FB00BF4DF808EDFFF7E0FF94BF012000205DF808FB00BF4DF808EDFFF7D2FF94BF012000205DF808FB00BF4DF808EDFFF7C8FF34BF012000205DF82A
:4039800008FB00BF4FEA40024FEA41037FEA226C02D15FEA402C08D17FEA236C02D15FEA412C02D14FF0000070474FF0010070474FEA4002B2F1FE4F0FD34FF09E03B3EBE9
:4039C00012620DD94FEA002343F0004310F0004F23FA02F018BF404270474FF00000704712F1610F01D1420205D110F0004008BF6FF0004070474FF00000704742000ED263
:403A0000B2F1FE4F0BD34FF09E03B3EB126209D44FEA002343F0004323FA02F070474FF00000704712F1610F01D1420202D14FF0FF3070474FF00000704700BF014B186859
:403A4000704700BF4C81FF1F0E4B70B51E460E4C0025E41AA410A54204D056F8253098470135F8E700F0DAFE084B094C1E46E41AA4100025A54204D056F825309847013562
:403A8000F8E770BD2848000028480000284800003048000010B5431E0A44914204D011F8014B03F8014FF8E710BD03460244934202D003F8011BFAE7704700000CB430B541
:403AC000164B0C1E9DB01D6804DA8B232B604FF0FF301EE04FF40273ADF814300CBF234604F1FF33049307934FF6FF7302900690ADF81630209A21AB02A92846019300F0CC
:403B000069F8431CBCBF8B232B6014B1029B00221A701DB0BDE8304002B070474C81FF1F2DE9F0478E6882469E420C46914698463ED88A8912F4906F3AD02568096902237F
:403B40006F1A656905EB450595FBF3F57B1C43449D4238BF1D4653050FD5294600F040FB064698B13A462169FFF794FFA38923F4906343F08003A38113E02A4600F08EFBFB
:403B8000064670B92169504600F0DEFA0C23CAF80030A3894FF0FF3043F04003A381BDE8F08726613E44266046466561ED1BA560464528BF464649463246206800F0A8FA2A
:403BC000A36800209B1BA36023681E442660BDE8F08700002DE9F04F9DB003938B8980461C060D4616460DD50B695BB9402100F0F7FA2860286118B90C23C8F80030CDE015
:403C000040236B610023099320238DF82930DFF89CB130238DF82A3037463C4614F8013B1BB9B7EB060910D003E0252BF9D02746F3E74B46324629464046FFF771FF01309B
:403C400000F0A780099B4B4409933B78002B00F0A08000234FF0FF3204930793059206938DF853301A930126052221784E4800F041FA671C049B38B14B4A3C46801A06FA63
:403C800000F018430490EFE7D90644BF20228DF853201A0744BF2B228DF8532022782A2A03D0079A00210A200BE0039A111D12680391002A10DA524243F00200079204904F
:403CC0000BE027463B780134303B092B03D800FB02320121F5E701B107923B782E2B1ED17B782A2B0AD1039B02371A1D1B680392002BB8BF4FF0FF33059310E00023194631
:403D00000593781C0A2407463A780130303A092A03D804FB01210123F5E703B1059103223978224800F0E6F940B14023CBEB000003FA00F0049B0137184304903978062271
:403D40001B487E1C8DF8281000F0D4F988B1194B33B9039B073323F007030833039314E003AB00932A46144B04A94046AFF3008007E003AB00932A460F4B04A9404600F00F
:403D800093F8B0F1FF3F824603D0099B5344099342E7AB895B0601D4099801E04FF0FF301DB0BDE8F08F00BFE6470000EC470000F047000000000000213B00002DE9F047B4
:403DC00091461F460A698B6806469342B8BF1346C9F8003091F843200C46DDF8208012B10133C9F800302368990642BFD9F800300233C9F80030256815F0060510D104F1DF
:403E0000190A07E00123524639463046C04701301AD00135E368D9F800209B1A9D42F1DB94F843302268003318BF012392060FD5E118302081F843005A1C94F845102244DE
:403E4000023382F8431003E04FF0FF30BDE8F08704F1430239463046C0470130F4D02268D9F80050E36802F00602042A08BF5D1B2269A3680CBF25EAE57500259342C4BF04
:403E80009B1AED184FF000091A344D4509D00123224639463046C0470130D5D009F10109F3E70020BDE8F0872DE9F04317460A7E85B06E2A984606460C460C9B01F1430E6E
:403EC00000F0AE8011D8632A22D009D8002A00F0BB80582A40F0CA8081F84520834955E0642A1ED0692A1CD0C0E0732A00F0B08009D86F2A2ED0702A40F0B8800A6842F0B5
:403F000020020A603EE0752A24D0782A3AD0ADE01A6801F14205111D1960136884F84230A8E021681A6811F0800F02D0111D196008E011F0400F02F10401196002D0B2F97E
:403F4000003000E01368002B3CDA2D225B4284F8432037E021681A6811F0800F02D0111D196007E011F0400F02F10401196001D0138800E01368227E5C496F2A14BF0A2233
:403F800008221BE078225A4984F845202268186812F0800F00F104051D6003D1550601D5038800E00368D00744BF42F0200222601BB9226822F0200222601022002084F83F
:403FC000430001E049490A226568002DA56008DB206820F0040020602BB9002D7DD175460CE0002B79D07546B3FBF2F002FB1033CB5C05F8013D03460028F5D1082A0BD135
:404000002368DA0708D5236962689A42DEBF302305F8013C05F1FF35C5EB0E0323612EE008681A6810F0800F496903D0101D1860136808E010F0400F02F104001860136817
:4040400001D0198000E0196000232361754616E01A68111D1960156800216268284600F049F808B1401B6060636804E004F1420584F8422001232361002384F84330CDF8D9
:4040800000803B4603AA21463046FFF797FE013002D14FF0FF3026E023692A4639463046C0470130F5D023689B0710D5002504F1190907E001234A4639463046C04701306E
:4040C000E7D00135E368039A9B1A9D42F2DBE068039B9842B8BF184605E00B7804F1420584F842308AE705B0BDE8F083F74700000848000010B5C9B202449042034605D021
:404100001C7801308C42F8D1184610BD002010BD884210B501EB020301D8421E0BE09842FBD28118D21AD34204D013F8014D01F8014DF8E710BD994204D011F8014B02F808
:40414000014FF8E710BD000038B50546002944D051F8043C0C1F002BB8BFE41800F0D4F81E4A1368114613B96360146030E0A3420DD92268A018834201BF18685B68121874
:40418000226063600C6023E0A24203D813465A68002AF9D118681918A1420BD12168014458188242196013D110685268014419605A600DE002D90C232B6009E02168601898
:4041C000824201BF106852680918216062605C602846BDE8384000F098B838BD0C82FF1F70B5CD1C25F0030508350C2D38BF0C25002D064601DBA94202D90C23336046E0B1
:4042000000F082F8234B1C681A462146A1B10B685B1B0ED40B2B03D90B60CC18CD501EE08C420BBF63684B681360636018BF0C4615E00C464968E9E7174C23681BB930464D
:4042400000F052F820602946304600F04DF8431C18D0C41C24F00304A0420DD12560304600F053F804F10B00231D20F00700C31A0ED05A42E25070BD211A304600F034F858
:404280000130EBD10C233360304600F03EF8002070BD00BF0C82FF1F0882FF1FF8B5074615460E4621B91146BDE8F840FFF798BF1AB9FFF749FF2846F8BD00F027F8854245
:4042C0000ED929463846FFF78BFF044650B131462A46FFF7DFFB31463846FFF735FF01E03046F8BD2046F8BD38B5064C0023054608462360FCF730F9431C02D1236803B117
:404300002B6038BD1883FF1F7047704751F8040C0028BEBF091851F8043CC0180438704700000000496E2049535220444D4120444F4E450A000000004D61676E6974756423
:404340006520726573756C7461740A0025643A2025640A00425945204259452049535220444D4120444F4E450A0000005374617274696E672E2E2E0A000000007120707241
:40438000657373656421200A0000000077207072657373656421200A00000000035B00402443004040000000205100405000F0510040100000000140001000140140800485
:4043C00000190140000300400140000A004C0140000200500140200080180140C003004880000000636F736866000000657870660000000073696E68660000000000003F14
:40440000000000BFD1F71737D1F717B78071313F807131BF000FC93F000F494000CB9640000FC9400053FB4000CB164100ED2F41000F49410031624100537B41003A8A41D9
:4044400000CB9641005CA34100EDAF41007EBC41000FC94100A0D5410031E24100C2EE410053FB4100F20342003A0A420083104200CB164200141D42005C234200A5294266
:4044800000ED2F4200363642007E3C4200C74242000F4942A2000000F9000000830000006E0000004E000000440000001500000029000000FC000000270000005700000039
:4044C000D1000000F500000034000000DD000000C0000000DB0000006200000095000000990000003C000000430000009000000041000000FE0000005100000063000000B8
:40450000AB000000DE000000BB000000C500000061000000B7000000240000006E0000003A000000420000004D000000D2000000E000000006000000490000002E000000D0
:40454000EA00000009000000D1000000920000001C000000FE0000001D000000EB0000001C000000B100000029000000A70000003E000000E8000000820000003500000049
:40458000F50000002E000000BB0000004400000084000000E90000009C0000007000000026000000B40000005F0000007E000000410000003900000091000000D6000000C8
:4045C00039000000830000005300000039000000F40000009C000000840000005F0000008B000000BD000000F9000000280000003B0000001F000000F800000097000000AE
:40460000FF000000DE00000005000000980000000F000000EF0000002F000000110000008B0000005A0000000A0000006D0000001F0000006D000000360000007E00000026
:40464000CF00000027000000CB00000009000000B70000004F000000460000003F000000660000009E0000005F000000EA0000002D0000007500000027000000BA00000015
:40468000C7000000EB000000E5000000F10000007B0000003D0000000700000039000000F70000008A0000005200000092000000EA0000006B000000FB0000005F00000066
:4046C000B10000001F0000008D0000005D0000000800000056000000030000003000000046000000FC0000007B0000006B000000AB000000F0000000CF000000BC00000021
:40470000200000009A000000F4000000360000001D000000A9000000E300000091000000610000005E000000E60000001B0000000800000065000000990000008500000010
:404740005F00000014000000A000000068000000400000008D000000FF000000D8000000800000004D00000073000000270000003100000006000000060000001500000061
:4047800056000000CA00000073000000A8000000C900000060000000E20000007B000000C00000008C0000006B0000000400000007000000090000000000C93F0000F0393C
:4047C0000000DA370000A2330000842E0000502B0000C2270000D0220000C41F0000C61B000044174300232D302B2000686C4C0065666745464700303132333435363738A6
:4048000039414243444546003031323334353637383961626364656600000000F8B500BFF8BC08BC9E4670474D000000D5050000F8B500BFF8BC08BC9E46704729000000FA
:4048400050480000C880FF1F88000000D0010000000000002083FF1F7F800000000400000000E02EC05D00001800000000366E01FF01FF0100000000000000000000000035
:404880000000000000000000000000000000000000000000E447000000000000000000000000000000000000000000000000000000000000000000000000000000000000CD
:4048C0000000000000000000000000000000000000000000EC80FF1F000000000000000000000000000000000000000000000000000000000000000000000000000000002E
:404900000000000000000000000000000000000000000000000000000000000000000000000000000000000000000000000000000000000000000000000000000000000077
:404940000000000000000000000000000000000000000000000000000000000000000000000000000000000000000000000000000000000000000000000000000000000037
:4049800000000000000000000000000000000000000000000000000000000000000000000000000000000000000000000000000000000000000000000000000000000000F7
:4049C00000000000000000000000000000000000000000000000000000000000000000000000000000000000000000000000000000000000000000000000000000000000B7
:020000040003F7
:0200000480007A
:400000000452004001640040026500400404014002050140010701405E08014035090140010B014001150140021701400D18014036190140401A0140421B0140034001402D
:400040000541014004420140034301400244014001450140064601400447014006480140014901400B4C0140094D014004500140015101400804094461806440880F89381D
:400080008B7239803F4059045F012001EC80B401001302040615080A0A140E08110114131502160C18031A141B01210429013010320F3504370339803A083E013F10403679
:4000C0004101450C460E47B0482549FF4AFF4BFF4EF04F44500C5401580459045A045B045C115D115F0166C06A406B02821C87018C018E0E930C940195409616981C9972A7
:400100009A039B089D249F40A133A344A608A943AA03AB30AD50B01AB17CB40FB703B980BA22BF40C001C504C9FFCA07CBFFCC40CD20CEF0CF05D008D804D904DA04DC11A9
:40014000DD01DF01E040E1A8E240E320028104080511070209080A040D080F04102819111A041D081E401F08200121022680270A29012A012B092D012F883116328035110C
:4001800036083808400145084601482049044C044F04500C520857815D215E405F0865206704C0F9C266C406CAADCCEFCE02D058D220D6F0EC10EC80EC10E204EC200602A8
:4001C0000C02120114021A012A023002340138023E1058045C015F010040011804080701090A0A060E800F14104213181510181019011B201C041E802001210122012310C2
:400200002820292230403188331138483A013B1040014101420443084B145002590160066380834089928B088C128F20A102C0A7C27FC44FCA07CC0FCE0FD00FD204D6011F
:40024000D80DEC200233040C084F093E0A100C410D020F0C10031402152817121873193E1A0C1C4C1E232240240425142723287F2C08310E3330340F367C37013AA05804EC
:4002800059045C115F01800285018706880289068D068F0190019104940295069701980199029F01A402A801A907B002B201B507BB20BE01D602D710D804D904DB04DC1182
:4002C000DD10DF01014003540402051209080A060B400E580F1010201281131015101708180219101A061B401E801F0820402108228023402408270C28202E1031083320DF
:4003000035203749384039103E243F805E806D106E486F20742075207621771183488C208D489310944896049C209D2A9E019F18A508A708B204B301C05FC27FC46FCA229B
:40034000CCF6CE7CD610EC1033803580CC30100411409D80A780C4409D80A940AB80B00410019D80C4407C01DE01940145089401A002B002D001EC01A002A508B401EC088A
:40038000251081809D80B001C820E220B510540261028C01A002A102A508B102D604D802E002EC04128070018E809002B508C408DC01E202EC0800020C0210021C02000FE9
:4003C0000010000004180004001C0C000C00000101040018080000020C18000000000204001C0C0000000C020C080000000002000C1C020001000003000000080000144071
:4004000023060400010E00C021FFFFFF62A0F0410C000000180004000404040411110001000000000000400200103010001010120000000000000000000000000000000050
:400440000000000000000100800040808000800000000000004F4F004400000025001801000A00000000000000000000000000000000000000000000000000000000000011
:40048000000000000000000000000000000000000000000000000000000000000000000000000000000000000000000000000000000000000000000000000000000000003C
:4004C00000000000000000000000000000000000000000000000000000000000000000000000000000000000000000000000000000000000000000000000000000000000FC
:4005000000000000000000000000000000000000000000000000000000000000000000000000000000000000000000000000000000000000000000000000000000000000BB
:40054000000000000000000000000000000000000000000000000000000000000000000000000000000000000000000000000000000000000000000000000000000000007B
:0200000490006A
:0400000000004005B7
:0200000490105A
:04000000BC90ACAF55
:0200000490303A
:02000000AA4F05
:0200000490402A
:4000000000000000000000000000000000000000000000000000000000000000000000000000000000000000000000000000000000000000000000000000000000000000C0
:400040000000000000000000000000000000000000000000000000000000000000000000000000000000000000000000000000000000000000000000000000000000000080
:400080000000000000000000000000000000000000000000000000000000000000000000000000000000000000000000000000000000000000000000000000000000000040
:4000C0000000000000000000000000000000000000000000000000000000000000000000000000000000000000000000000000000000000000000000000000000000000000
:0200000490501A
:0C00000000012E16106900012E32BAB863
:00000001FF