:4000000000800020110000001D0600001D06000008B5044B1A6803F53F5302331A6000F01DFB00BFFA46004010B5054C237833B9044B13B10448AFF300800123237010BD19
:400040003881FF1F0000000074140000084B10B51BB108490848AFF300800848036803B910BD074B002BFBD0BDE81040184700BF000000003C81FF1F74140000C880FF1F12
:4000800000000000704700BF08B500F0B5FB034800F0B2FB024800F0AFFB08BD781400007C14000008B500F089FB00F0B7FB00F0EFFB124800F0DEFB00F05CFB00F0DCFCE1
:4000C00000230F4A13700F4A13700F4A13700F4A13700F4A13700F4A137000F0DBFC0E4B187040080D4B187000F080FC00F0D6FB01300B4B188062B608BD00BF8500000078
:400100006681FF1F6481FF1F6981FF1FB481FF1F6881FF1F6D81FF1F6C81FF1F6781FF1FB281FF1F10B5054C054B064A0649204600F07CFD2046FFF7A7FF10BD7081FF1F35
:40014000801400008C1400009814000010B5074B1A78074B1B78074CD31A0749204600F065FD2046FFF790FF10BD00BF6C81FF1F6781FF1F7081FF1FB414000038B5054632
:400180000A4B188800FB05F0013880B2084B1880012100F091FB074C2B46074A4021204600F012FD2046FFF76FFF38BDB281FF1F6A81FF1F7081FF1FE814000008B5012089
:4001C00000F08CFC002000F095FC08BD08B5002000F084FC012000F08DFC08BD08B5FFF761FFFFF79FFFFFF7B1FF00F0D1FA6E4B18702B384D285DD8DFE800F04B5C4F5C16
:400200005C5C272B2F33373B5C5C5C5C5C5C5C5C5C5C5C5C5C5C5C5C5C5C5C5C5C5C5C5C3F5C5C535C5C5C5C5C435C5C5C5C5C5C5C5C5C5C5C5C5C575C5C475C5C5C5C5C19
:400240003F5C5C535C5A5C5C5C430120FFF796FF30E00220FFF792FF2CE00420FFF78EFF28E00820FFF78AFF24E01020FFF786FF20E04020FFF782FF1CE001224B4B1A709B
:4002800018E001224A4B1A7014E00122494B1A7010E00122484B1A700CE00122474B1A7008E00122464B1A7004E0FFF787FF01E0FFF78CFF3D4B1B7843B100F005FC414803
:4002C000FFF7E2FE0022394B1A708EE7384B1B7843B100F0E5FB3C48FFF7D6FE0022344B1A7082E7364B1B787BB1384B18784008374B187000F07AFB3648FFF7C5FEFFF790
:4003000025FF00222E4B1A706FE72A4B1B782BB1FFF71CFF0022274B1A7066E7264B1B78FBB12B4B1B78294A1278934203D20133274A137001E0264B1A70254C207800F061
:4003400055FB224B1A782378234CD21A2349204600F06CFC2046FFF797FE0022164B1A7043E7164B1B78002B3FF43FAF184B1B781BB1013B164A137002E00022144B1A70D8
:40038000134C207800F032FB104B1A782378124CD21A1349204600F049FC2046FFF774FE0022064B1A7020E76581FF1F6681FF1F6481FF1FB481FF1F6881FF1F6D81FF1F1C
:4003C0006981FF1F001500000C1500006C81FF1F6781FF1F181500007081FF1F301500006C150000FEE700BFF0B40022174611E050F82760F3B226F0FF0608E001EB42054A
:4004000011F812406D78A5550132013BDBB2002BF4D10137162FEBD9F0BC7047064B1B78DBB203F00701054A11701B09013213704422034B1A707047CF0100496E580040C8
:400440007658004008B50A46002100F0B4FB08BD38B50B22254B1A801823254A1370192502321580023213700222224B1A7008224FF040231A70032103F5007319701E4BDB
:400480001B78DBB21D490B701D4B1A8041F25122023B1A8000240CE01A4B1B7803F0010343EA440404F003044FF4F07000F03CFB013D0DB1032CEFD115B90320FFF792FF20
:4004C000114B4FF480721A8007221A7000220F490A704820023108701A700222033B1A700B4A137843F00303137038BD80400040824000400043004008010049A146004012
:4005000022420040254200400440004006400040A243004008B500F043FB08BD38B572B62D4A137843F00403137000240CE02B4D630019194A0011462A44084691882858AA
:40054000FFF780FF0134E4B2072CF0D924494FF09040FFF749FF234A137843F0020313701032137843F0020313701F4C237843F040032370A2F58632513A137843F0100390
:400580001370082219491A48FFF7C4FF0A2219491948FFF7BFFF082218491948FFF7BAFF0A2218491848FFF7B5FF184A137843F008031370164D61232B70FFF749FF81232A
:4005C0002B700122134B1A70FFF728FF0E2221461148FFF79FFF38BDE8460040A81500005C00004803500140A0430040180400480251004020040048C05100402C0400480D
:40060000125100403404004820510040224300400048004004000840B043004008B500F093FA03680C2B00D1FEE7FEE708B5094B1A681044084BC31A802B02DC054B18605B
:4006400005E000F081FA0C2303604FF0FF32104608BD00BFCC80FF1FC081FF1F08B5104E104D16E029686B68AC68002204E051F8040B43F8040B0432A242F8D1E8680022A2
:4006800003E0002143F8041B04328242F9D11035013E002EE6D100F05DFAFFF79FFDFEE7010000003416000008B5104A104B1A60104A136843F40073136000230AE0032B8D
:4006C00003D80D4A52F8231000E00C490C4A42F8231001332F2BF2D90A4B1A780A4B1A70074A0A4B1A60FFF719FF08BD0004FA050CED00E014ED00E0000000001D06000061
:400700000080FF1FBC760040C080FF1F08ED00E07222084B1A702022A3F580731A700622613B1A70472210331A70002203F253131A7070478965004010B500F0FDF9044649
:400740000B4A137843F020031370A2F58072137843F01003137002F58172137843F01003137000F0D3F9204600F0EAF910BD00BF9965004008B5054B1B7823B9FFF7C8FFAD
:400780000122024B1A70FFF7D7FF08BD5481FF1F084B1B78DBB213F0200F06D0064A1078C0B213F01E0F02D17047002070470020704700BF696400404A65004008B500F026
:4007C000BBF9064B1A7842F001021A701A7802F0FE021A7000F0B4F908BD00BF9A650040034B1B7813F0040FFAD1024B187070476B6500404865004038B5074B1B782BB934
:4008000038BDFFF7EDFF0134A4B201E005460024285D0028F5D138BD5481FF1F08B500F08BF9064B1A7842F001021A701A7802F0FE021A7000F084F908BD00BF986500409C
:40084000014B1B681864704708ED00E04001C0B2014B1870704700BF00E400E00122014B1A60704700E100E00122014B1A60704780E100E010B50446FFF7F6FF2046FFF748
:40088000DFFF0720FFF7E2FFFFF7E8FF10BD00BF0122014B1A60704780E200E0014B188880B2704780400040024B187800F00700704700BF8240004070B505460E46FFF736
:4008C000F3FF0446FFF7EAFFA84256D02B4B1B7803F0010294B900B185B938B9284B1D80284A137803F0BF03137070BD254A137843F040031370224B1D8070BD22B300230D
:4009000021490B7001240F310C7004310B700C390B7803F07F030B701A4B1B7813F0080F00D08DB9194B18800721013B1970164B1B7813F0010FFAD110490B7803F0FE03D6
:400940000B700021104B19700C4B1B7813F0010F0DD00E4B1D800EB1032200E001220A4B1A70094B1B7813F0010FFAD170BD044B1D8002490B7813430B7070BDA243004092
:4009800080400040824000400140004002400040084A137843F0010313701032137843F00103137002F64D32137843F001031370704700BFA3430040084A137803F0FE03EB
:4009C0001370A2F65D32137803F0FE0313701032137803F0FE031370704700BF004F0040014B1880704700BF044F0040014B1880704700BF064F0040014B1870704700BFDC
:400A0000034F004008B5194A137843F0020313700232137803F08F0343F030031370144B1A7802F0CF021A701A7842F030021A701A7802F0F0021A701A7842F00F021A7074
:400A40006420FFF7CDFF3220FFF7D0FF0020FFF7D3FF084A137843F00103137002F65E32137843F00103137008BD00BF004F00400B4F0040A343004008B5054B1B7823B97E
:400A8000FFF7C0FF0122024B1A70FFF781FF08BD5681FF1F014B1888C0B27047044F004008B5074B1B7813F0010F03D00122054B1A7002E00022034B1A70FFF77DFF08BD17
:400AC000004F00405881FF1F08B5034B1B780BB1FFF75EFF08BD00BF5881FF1F044A137803F0FD03400000F0020018431070704700510040044A137803F0FB03800000F0ED
:400B0000040018431070704700510040054A137843F0020313701032137843F002031370704700BFA24300400230800803D000BF01380046FCD17047EFF3108072B6704736
:400B400080F31088704700BF014B1868704700BF3081FF1F0E4B70B51E460E4C0025E41AA410A54204D056F8253098470135F8E700F04EFD084B094C1E46E41AA410002560
:400B8000A54204D056F8253098470135F8E770BD1C1600001C1600001C1600002416000010B5431E0A44914204D011F8014B03F8014FF8E710BD03460244934202D003F84E
:400BC000011BFAE7704700000CB430B5164B0C1E9DB01D6804DA8B232B604FF0FF301EE04FF40273ADF814300CBF234604F1FF33049307934FF6FF7302900690ADF81630C5
:400C0000209A21AB02A92846019300F08DF8431CBCBF8B232B6014B1029B00221A701DB0BDE8304002B070473081FF1F0EB400B54FF402719CB0ADF814106FF0004104915A
:400C400007914FF6FF711DAB02900690084853F8042BADF81610006802A9019300F064F8029B00221A701CB05DF804EB03B070473081FF1F2DE9F0478E6882469E420C46E0
:400C8000914698463ED88A8912F4906F3AD02568096902236F1A656905EB450595FBF3F57B1C43449D4238BF1D4653050FD5294600F040FB064698B13A462169FFF770FFE9
:400CC000A38923F4906343F08003A38113E02A4600F08EFB064670B92169504600F0DEFA0C23CAF80030A3894FF0FF3043F04003A381BDE8F08726613E4426604646656159
:400D0000ED1BA560464528BF464649463246206800F0A8FAA36800209B1BA36023681E442660BDE8F08700002DE9F04F9DB003938B8980461C060D4616460DD50B695BB9C7
:400D4000402100F0F7FA2860286118B90C23C8F80030CDE040236B610023099320238DF82930DFF89CB130238DF82A3037463C4614F8013B1BB9B7EB060910D003E0252B3F
:400D8000F9D02746F3E74B46324629464046FFF771FF013000F0A780099B4B4409933B78002B00F0A08000234FF0FF3204930793059206938DF853301A930126052221782A
:400DC0004E4800F041FA671C049B38B14B4A3C46801A06FA00F018430490EFE7D90644BF20228DF853201A0744BF2B228DF8532022782A2A03D0079A00210A200BE0039A07
:400E0000111D12680391002A10DA524243F00200079204900BE027463B780134303B092B03D800FB02320121F5E701B107923B782E2B1ED17B782A2B0AD1039B02371A1D0E
:400E40001B680392002BB8BF4FF0FF33059310E0002319460593781C0A2407463A780130303A092A03D804FB01210123F5E703B1059103223978224800F0E6F940B140236D
:400E8000CBEB000003FA00F0049B013718430490397806221B487E1C8DF8281000F0D4F988B1194B33B9039B073323F007030833039314E003AB00932A46144B04A94046F3
:400EC000AFF3008007E003AB00932A460F4B04A9404600F093F8B0F1FF3F824603D0099B5344099342E7AB895B0601D4099801E04FF0FF301DB0BDE8F08F00BFDA150000BD
:400F0000E0150000E415000000000000750C00002DE9F04791461F460A698B6806469342B8BF1346C9F8003091F843200C46DDF8208012B10133C9F800302368990642BFAB
:400F4000D9F800300233C9F80030256815F0060510D104F1190A07E00123524639463046C04701301AD00135E368D9F800209B1A9D42F1DB94F843302268003318BF012371
:400F800092060FD5E118302081F843005A1C94F845102244023382F8431003E04FF0FF30BDE8F08704F1430239463046C0470130F4D02268D9F80050E36802F00602042A3B
:400FC00008BF5D1B2269A3680CBF25EAE57500259342C4BF9B1AED184FF000091A344D4509D00123224639463046C0470130D5D009F10109F3E70020BDE8F0872DE9F043EF
:4010000017460A7E85B06E2A984606460C460C9B01F1430E00F0AE8011D8632A22D009D8002A00F0BB80582A40F0CA8081F84520834955E0642A1ED0692A1CD0C0E0732AC9
:4010400000F0B08009D86F2A2ED0702A40F0B8800A6842F020020A603EE0752A24D0782A3AD0ADE01A6801F14205111D1960136884F84230A8E021681A6811F0800F02D0FC
:40108000111D196008E011F0400F02F10401196002D0B2F9003000E01368002B3CDA2D225B4284F8432037E021681A6811F0800F02D0111D196007E011F0400F02F1040172
:4010C000196001D0138800E01368227E5C496F2A14BF0A2208221BE078225A4984F845202268186812F0800F00F104051D6003D1550601D5038800E00368D00744BF42F097
:40110000200222601BB9226822F0200222601022002084F8430001E049490A226568002DA56008DB206820F0040020602BB9002D7DD175460CE0002B79D07546B3FBF2F084
:4011400002FB1033CB5C05F8013D03460028F5D1082A0BD12368DA0708D5236962689A42DEBF302305F8013C05F1FF35C5EB0E0323612EE008681A6810F0800F496903D060
:40118000101D1860136808E010F0400F02F104001860136801D0198000E0196000232361754616E01A68111D1960156800216268284600F049F808B1401B6060636804E020
:4011C00004F1420584F8422001232361002384F84330CDF800803B4603AA21463046FFF797FE013002D14FF0FF3026E023692A4639463046C0470130F5D023689B0710D5C8
:40120000002504F1190907E001234A4639463046C0470130E7D00135E368039A9B1A9D42F2DBE068039B9842B8BF184605E00B7804F1420584F842308AE705B0BDE8F0830F
:40124000EB150000FC15000010B5C9B202449042034605D01C7801308C42F8D1184610BD002010BD884210B501EB020301D8421E0BE09842FBD28118D21AD34204D013F8AF
:40128000014D01F8014DF8E710BD994204D011F8014B02F8014FF8E710BD000038B50546002944D051F8043C0C1F002BB8BFE41800F0D4F81E4A1368114613B96360146033
:4012C00030E0A3420DD92268A018834201BF18685B681218226063600C6023E0A24203D813465A68002AF9D118681918A1420BD12168014458188242196013D1106852685C
:40130000014419605A600DE002D90C232B6009E021686018824201BF106852680918216062605C602846BDE8384000F098B838BD6081FF1F70B5CD1C25F0030508350C2D93
:4013400038BF0C25002D064601DBA94202D90C23336046E000F082F8234B1C681A462146A1B10B685B1B0ED40B2B03D90B60CC18CD501EE08C420BBF63684B68136063603A
:4013800018BF0C4615E00C464968E9E7174C23681BB9304600F052F820602946304600F04DF8431C18D0C41C24F00304A0420DD12560304600F053F804F10B00231D20F0A8
:4013C0000700C31A0ED05A42E25070BD211A304600F034F80130EBD10C233360304600F03EF8002070BD00BF6081FF1F5C81FF1FF8B5074615460E4621B91146BDE8F8405B
:40140000FFF798BF1AB9FFF749FF2846F8BD00F027F885420ED929463846FFF78BFF044650B131462A46FFF7BBFB31463846FFF735FF01E03046F8BD2046F8BD38B5064C9E
:401440000023054608462360FFF7F0F8431C02D1236803B12B6038BDB881FF1F7047704751F8040C0028BEBF091851F8043CC01804387047000000000A0A00003E200000B4
:4014800031373A32313A3034000000004E6F7620313320323032300050726F6772616D207374617274656420617420282573202573290A0050574D20706572696F6420691F
:4014C00073203A202020202020282564290A50574D2064757479206379636C652069733A205B25645D0A0000436C6F636B206469766973696F6E206973202F25640000008B
:401500005B50574D206F6E5D000000005B50574D206F66665D0000005B50574D20686173206265656E2072657365745D00000000436F6D706172653A2020202020202020F5
:4015400020202020205B696E6372656D656E7465645D0A50574D2064757479206379636C65206973203A205B25645D00436F6D706172653A20202020202020202020202039
:40158000205B64656372656D656E7465645D0A50574D2064757479206379636C65206973203A205B25645D00004F00400C00305100404000F051004010000000014000108A
:4015C00000140140000800400140000A004C014000020050014020004300232D302B2000686C4C006566674546470030313233343536373839414243444546003031323329
:4016000034353637383961626364656600000000F8B500BFF8BC08BC9E4670474D000000A9060000F8B500BFF8BC08BC9E4670472900000048160000C880FF1F70000000B7
:40164000880000000000000000000000C081FF1F0000000000000000000000000000000000000000000000000000000000000000D815000000000000000000000000000096
:40168000000000000000000000000000000000000000000000000000000000000000000000000000000000000000000000000000D080FF1F000000000000000000000000BC
:4016C00000000000000000000000000000000000000000000000000000000000000000000000000000000000000000000000000000000000000000000000000000000000EA
:4017000000000000000000000000000000000000000000000000000000000000000000000000000000000000000000000000000000000000000000000000000000000000A9
:401740000000000000000000000000000000000000000000000000000000000000000000000000000000000000000000000000000000000000000000000000000000000069
:401780000000000000000000000000000000000000000000000000000000000000000000000000000000000000000000000000000000000000000000000000000000000029
:020000040003F7
:0200000480007A
:40000000014F004004520040016400400265004004060140040701405508014035090140471801403C190140591A0140401B01400240014003410140024201400D430140F6
:40004000024501400146014003470140024C0140074D014004500140015101400A2D0001140461806440893889728B0FB802BE01D804DF011A808240E204E60201100801F5
:400080000A0E0B201303156C1603171119701A0C1B0C1E08215C230225092710280129142A062C0C2E033360360F371F39083A803F044002454049FF4A074BFF4C404D2014
:4000C0004EF04F055008580459045A045C115D015F01604061A8624063208101840C870288018B028C018F0190019408960498019B019C029F04A010A304A40CA901AC049A
:40010000AE08B002B20CB301B401B502B610B704B908BE51BF50D418D604D804D904DB04DC11DD10DF01004801200201070408800A540B800C200E080F22100211041280ED
:400140001602171019111A111E021F802004218023102680272129222C202E022F883010314037153A013B983F2247204F0257105A02600461806340810187408A01C0471E
:40018000C2EFC4CDCAE5CCECCEAFD020D601D80D0302070609100B011508170319081B05210623093318350739083B2040264103450C47EB483149FF4AFF4BFF4EF04F44F6
:4001C000500C59045A045C105D015F0166C06A406B02830385048613881F89048C138D048E0C900F9101921094029503981C9A039B039C039D03A008A103A404A703A80C5A
:40020000A902AC01B00FB103B504B61CBA22D602D711D804D904DB04DC11DD10DF0100440120081009800A5410AA184019611A0820042120220125042604270428182901F8
:400240002E402F81300231A03204371439543B023D083F2247144F245501570859106804695C70A89210944095049646970899109C109D629F14A201A391A406A604A708CC
:40028000AC80C007C20FC40FCA87CC6FCEEFD060D220D604EE02001C0222050E0623083F090E0C270E18101C11041221130316801A041D021E401F0C20102408281829088C
:4002C0002B022C042E8030383301341F36C0370E3A223E40404241064205440145C0470E481249FF4AFF4BFF4C624DA04EF04F41500C580459045A045C115D015F0166405E
:40030000670269106A306B106D106E106F1281108401870888018B0595039601970499039A019B0C9E01A10AA304A503A704B001B30FB510BB08BE01BF10D401D804D90489
:40034000DB04DC10DD10DF010044012002800714080809800A580C100E030F2410AA180119101A441E8021802204271828082C102E0130023180371439183D0B3F20404544
:400380004430496253045C205D015E805F0881108280880290449118921093049644970899609B049C089D029F10A0A8A105A201A310A402A580C06FC2EFC40FCAC4CC694D
:4003C000CEE6D00DD20CD6F03220CC105708A620D440A620A7081B0861016B40810183408620A620A708C610D840DC20E220E6C00308C002A3088B10A308E4019310AF08CD
:400400001080731088809310C408DC01E60100020C0210021C0200030007070001000000800040808000800000000000000B0B0000000000040000040000000000000000BE
:40044000000000000000000000000000000000000000000000000000000000000000000000000000000000000000000000000000000000000000000000000000000000007C
:40048000000000000000000000000000000000000000000000000000000000000000000000000000000000000000000000000000000000000000000000000000000000003C
:4004C00000000000000000000000000000000000000000000000000000000000000000000000000000000000000000000000000000000000000000000000000000000000FC
:4005000000000000000000000000000000000000000000000000000000000000000000000000000000000000000000000000000000000000000000000000000000000000BB
:0200000490006A
:0400000000004005B7
:0200000490105A
:04000000BC90ACAF55
:0200000490303A
:0200000019588D
:0200000490402A
:4000000000000000000000000000000000000000000000000000000000000000000000000000000000000000000000000000000000000000000000000000000000000000C0
:400040000000000000000000000000000000000000000000000000000000000000000000000000000000000000000000000000000000000000000000000000000000000080
:400080000000000000000000000000000000000000000000000000000000000000000000000000000000000000000000000000000000000000000000000000000000000040
:4000C0000000000000000000000000000000000000000000000000000000000000000000000000000000000000000000000000000000000000000000000000000000000000
:0200000490501A
:0C00000000012E16106900012E1F29C1FE
:00000001FF