:40000000001000206D2400006924000069240000F8B51148114A1AE055689368D4689D4209D0002104E06E1877683668C0C30831A142F8D100E01B191469002103E00025B4
:40004000002660C30831A142F9D1143201380028E2D105F08BFAC04601000000BC58000010B572B62F4C0021A288206805F038FA2189E388080462891843002105F030FA59
:40008000294CEE20294B01020622D82021601A600101274C9922274813042160036020300360254B0224197806200C431C701A7880241043214A18701168E3020B4313601B
:4000C0001F4B197801331A780D3B587A2F2810D99879997ADA7A2F280BD9DC78D9791A7A2F2C06D9187819795A792F2801D959789A78144B1448196004331A600178134CF8
:400100000520216002F0EEF9114B35221A608020104A040614608021043A1460CB02043A136010BD345600000C000140080104400803044010500F4000700F4000010B40D0
:40014000CCF1FF0F1CFF0B40FDF1FF0F28FF0B402CFF0B4008010B4000B5034B1A78002A01D10120187000BDE001002008B504480368002B03D0034B002B00D0984708BDBF
:40018000C800002000000000F0B55F4656464D464446F0B43A4ADDB0131C684610CB6530FF305B940590071C30CB30C76F465537FF37161C0497391C0C3631CE31C1306826
:4001C000203F08603B1C03971C3213CA13C31E1CA1CAA1C62349224830CA30C6224D234E069007912749284A002400278A4690460698079905F0ACF8244903F0A1FC03F0CC
:40020000B1FDA146D14449460880311C281C05F09FF842461E49A618051C03F091FC03F0A1FD023430800137402C33D0381C05F045F80F4A0F4B04F041FA0F4A0F4B04F065
:400240003DFA051C0E1C02F0B3F906900791281C311C02F005FA051C0E1CC9E7C046C046000000000000F03F00000000000000006E861BF0F9211940000000000000903F37
:40028000F8550000F4040020B805002000008043000080C33A4B08271D60BC46402220273849394D0023042402209146BB46DAB297081609274006403E4367463A403243BA
:4002C0004F469E013E4016435F461A013A40164310279A003A40324392005659013340C1402BE4D1294C2A482A492B4B28942B4D2B4C18901B911C931E1C81460F1C01203F
:4003000002F03AF91F480288838818989918D31A01804380021C1B481A490830131C0A89818893468C460691DC44189962468A80069A59460433891A598008300433028873
:40034000934682889446DC446146198059468A1A011C00890831844688885A8083461A1DE34406925A469A806346069A181A5080081C0C49131C083004338842DFD113E042
:40038000B4050020F0030020CC00002034050020AC020020EC0100206C0300202C0300206C020020F004002040235246D25E40460D924021435E189A069310881899099032
:4003C0008B881B9A191828980A931180028883881C989918018018990F934B88189810930623C35E0D995943C8178C46010E8B46DC441099604600128C4684440E901B9899
:400400006146418006985843C1178446080E8346DC441C986146091241800A990998401A011C1B9881800F991C98521A82800E991098421A1B98C280069A58425043C117C5
:400440000A0E13181C991812189BC8801989189A0A9190891B9A43182899138109900A8988891C9B1090811818981981438918990F930E23CB5E0D985843C1178446080E0A
:400480008346DC440F986146091284468C440E911B996046488106995943C8178C46010E8B46DC441C9960460012488109980A99091A081C1B99888110991C98521A828158
:4004C0000F990E980A1A1B99CA81069A59425143C817020E53181C991812189BC881198A189A0A91908A1B9A0990431828981382028A838A1C9899180182189910934B8AD5
:400500000F9318980D991623C35E5943C8178C46010E8B46DC440F99604600128C460E9084441B986146418206985843C1178446080E8346DC441C986146091241820999B2
:400540000A98401A011C1B98818210991C98521A82820E990F98421A1B98C282069A58425043C1170A0E13181C991812189BC882198B189A0A91908B1B9A43182899138307
:400580000990888B0A8B10901C9B811818981983438B18990F931E23CB5E0D985843C1178446080E8346DC440F986146091284460E918C441B996046488306995943C81771
:4005C0008C46010E8B46DC441C996046001248830A990998091A081C1B99888310991C98521A82830F990E980A1A1B99CA83069A59425143C817020E53181C991812189BAB
:40060000C883198C189A0A91908C09901B9A431828981384838C028C1C9899180184189910934B8C18980F932623C35E0D995943C8178C46010E8B46DC440F9960460012A0
:400640008C460E9084441B986146418406985843C1178446080E8346DC441C9861460912418409990A98401A011C1B98818410991C98521A82840E990F98421A1B98C28429
:40068000069A58425043C1170A0E13181C991812C884189B189A198D0A91908D1B9A4318289909901385888D0A8D1C9B1090811818981985438D18990F932E23CB5E0D9836
:4006C0005843C1178446080E8346DC440F986146091284468C440E911B996046488506995943C8178C46010E8B46DC441C9960460012488509980A99091A081C1B99888583
:4007000010991C98521A82850F990E980A1A1B99CA85069A59425143C817020E53181C991812189BC885198E189A0A91908E1B9A0990431828981386028E838E1C98991852
:400740000186189910934B8E18980F933623C35E0D995943C8178C46010E8B46DC440F99604600128C4684440E901B986146418606985843C1178446080E8346DC446146CC
:400780001C980912418609990A98401A011C1B98818610991C98521A82860E990F98421A1B98C286069A58425043C1170A0E13181C991812189BC886198F189A0A91908FDC
:4007C0001B9A43182899138709900A8F888F1C9B1090811818981987438F18990F933E23CB5E0D985843C1178446080E8346DC44614609120E910F9884468C441B99604679
:40080000488706995943C8178C46010E8B46DC441C9960460012488709980A99091A081C1B99888710991C98521A82870F990E980A1A1B980699C28758424843C217110E77
:400840000B181C991A12189BCA874020195A189A0A914423D05A099042181B9840214252289A525A28990E92C85A10901C99821840200A52189942200A5A46210F92189A57
:40088000525E0D990C925143CA178C46110E8B46DC440F99624612128C460B9294441B9A614611520C99069A4A43D11794460A0E9346DC441C99624612120A520A99099AAB
:4008C000881A1B990E9AC8521099501A1C9A0B99D0520F9A1B98531A0C9A46214352069851424143CB171A0E50181C9A03124621189853524822835A0A9318994C23C85A12
:40090000099083460A9883441B985946815228982899805A0E90C95A8C4684441C98109161468152189A4A20115A4E220F911899895E0D9A0C914A43D11794460A0E93468F
:40094000DC440F9A6146091294468C440B911B9962460A520C9A06995143CA178C46110E8B46DC441C9A6146091211520A9A0999501A1B99109AC8520E99881A1C99C85237
:400980000F9A0B981B99131A0C984E228B52069B41425943C817030E58181C99031218988B525022835A18990A935423C85A099083460A9883441B985946815228982899FB
:4009C000805A0E90C95A8C4684441C98109161468152189A5220115A56220F911899895E0D9A0C914A43D11794460A0E9346DC440F9A6146091294468C440B911B99624603
:400A00000A520C9A06995143CA178C46110E8B46DC441C9A6146091211520A9A0999501A1B99109AC8520E99881A1C990F9AC8520B981B99131A56220C988B52069B414259
:400A40005943C817030E58181C99031218988B525822835A18990A935C23C85A099083460A9883441B985946815228982899805A0E90C95A8C46109184441C986146815268
:400A8000189A5A20115A5E220F911899895E0D9A0C914A43D11794460A0E9346DC440F9A6146091294460B918C441B9962460A520C9A06995143CA178C46110E8B46DC443E
:400AC0001C9A6146091211520A9A0999501A1B99109AC8520E99881A1C990F9AC8520B981B99131A5E220C988B52069B41425943C817030E58181C99031218988B526022B4
:400B0000835A0A9318996423C85A099083460A9883441B985946815228982899805A0E90C95A8C4684441C98109161468152189A6220115A66220F911899895E0D9A0C91C9
:400B40004A43D11794460A0E9346DC440F9A6146091294468C440B911B9962460A520C9A06995143CA178C46110E8B46DC441C9A6146091211520A9A0999501A1B99109A27
:400B8000C8520E99881A1C99C8520F9A0B981B99131A66220C988B52069B41425943C817030E58181C99031218988B526822835A18990A936C23C85A099083460A98834425
:400BC0001B985946815228982899805A0E90C95A8C4684441C98109161468152189A6A20115A6E220F911899895E0D9A0B914A43D11794460A0E9346DC440F9A61460912CE
:400C000094468C4418911B9962460A520B9A06995143CA178C46110E8B46DC441C9A6146091211520A9A0999501A1B99109AC8520E99881A1C990F9AC85218981B99131AB9
:400C40006E220B988B52069B41425943C817030E581801124B46B15218931C9670224846805A74230A904946C95A1B978B4609918344EF495846B8522891885A0E90C95A43
:400C80008C46844460461091B052494672200A5A76210F924A46525E0D990C925143CA178C46110E8B46DC440F99624612128C46944461460B9239520C9A06995143CA1712
:400CC0008C46110E8B46DC446146091231520A9A0999501A0E9A1099F852501AF0520B990F987622431ABB520C9B06985A424243D1170B0E981801127622B1524B46782299
:400D00009B5A48460A937C23C05A0A9983468B440990C7495846B852895AC5480E91C05A84468C4410906046B0527A204A46115A7E220F914946895E0D9A0B914A43D117C0
:400D400094460A0E9346DC440F9A6146091294468C4462460D913A520B99069A4A43D11794460A0E9346DC446246121232520A9909980A1A10980E99FA520A1AF2520D989D
:400D80000F9A7E21131A0B9A06987B5251424143CB171A0E501803127E22B352A549A64BA348A64A10910D93191CA24B0690834600200F920E901F93209258461F9A0823AA
:400DC000D25E0C925BAA13785A00131C5344934600229B5E0B93209B08229B5E0A935B46434400229B5E0B9A09930C9B5343099A9C460A9B53436246D21AD31794461A0E67
:400E00009346DC4463461B12119311AA13880B9A2B800A9B5343099A9C460C9B53439B46DC446346DA17130E9B46DC4462461312139313AA13881F9A23800A23D25E0C92BD
:400E40007F4A6A4413785A00131C5344934600229B5E0B93209B0A229B5E0A935B46434400229B5E0B9A09930C9B5343099A9C460A9B53436246D21AD31794461A0E934667
:400E8000DC4463461B12149314AA13880B9A6B800A9B5343099A9C460C9B53439B46DC446346DA17130E9B46DC4462461312159315AA13881F9A63800C23D25EB7230C92B0
:400EC0005A006A4413785A00131C5344934600229B5E0B93209B0C229B5E0A935B46434400229B5E0B9A09930C9B5343099A9C460A9B53436246D21AD31794461A0E934654
:400F0000DC4463461B12169316AA1388AB800B9A0A9B5343099A9C460C9B53439B46DC446346DA17130E9B46DC4462461312179317AA13881F9AA3800E23D25E0C92414AF4
:400F40006A4413785A00131C5344934600229B5E0B93209B0E229B5E0A935B46434400229B5E0B9A09930C9B5343099A9C460A9B53436246D21AD31794461A0E9346DC440B
:400F800063461B129AB2129212AB1A880B9BEA800A9A5A43099B94460C9A5A439346DC446246D3171A0E9346E3445B461B129AB29346E2801F9B11AA12881B8894469C4486
:400FC00019921D9363460B8013AA209B12881B8894469C441E936346038011921F9B14AA12885B8894469C44149363464B800C92209B15AA12885B8894469C441593634609
:4010000043800B921F9B16AA12889B8894469C44169363468B800A92209B17AA12889B8894469C4417936346838009921F9B0BE034050020EC010020AC0200206C0300201A
:401040006D0100006F01000012AA1288DB8894469C4413921A936346CB80209B5A46DB8892B29B469446DC4412926246C280199B1D9AD21A0A811E9B119A9B1A0381149A41
:401080000C9BD21A4A81159B0B9A9B1A4381169A0A9BD21A8A81179B099A9B1A83811A9A139BD21ACA81129A5B469B1A0E9AC381944608239C446246D3B20E931F9A209BFC
:4010C000103210331F9220930E9A10311030402A00D073E6F64BF74A9C46F74B0020F7490E90309331926046309A1023D25E0C9259AA13785A00131C5344934600229B5E0E
:401100000B93319B10229B5E0A935B46434400229B5E0B9A09930C9B5343099A9C460A9B53436246D21AD31794461A0E9346DC4463461B12119311AA13880B9A2B800A9BBE
:401140005343099A9C460C9B53439B46DC446346DA17130E9B46DC4462461312199319AA1388309A23801223D25E0C92D44A6A4413785A00131C5344934600229B5E0B930A
:40118000319B12229B5E0A935B46434400229B5E0B9A09930C9B5343099A9C460A9B53436246D21AD31794461A0E9346DC4463461B12129312AA13880B9A6B800A9B534302
:4011C000099A9C460C9B53439B46DC446346DA17130E9B46DC4462461312139313AA1388309A63801423D25EB3230C925A006A4413785A00131C5344934600229B5E0B93D8
:40120000319B14229B5E0A935B46434400229B5E0B9A09930C9B5343099A9C460A9B53436246D21AD31794461A0E9346DC4463461B12149314AA1388AB800B9A0A9B53433B
:40124000099A9C460C9B53439B46DC446346DA17130E9B46DC44624613121F931FAA1388309AA3801623D25E0C92964A6A4413785A00131C5344934600229B5E0B93319B81
:4012800016229B5E0A935B46434400229B5E0B9A09930C9B5343099A9C460A9B53436246D21AD31794461A0E9346DC4463461B12209320AA13880B9AEB800A9B5343099A8A
:4012C0009C460C9B53439B46DC446346DA17130E9B46DC4462461312219321AA1388309AE3801823D25E0C925AAA13785A00131C5344934600229B5E0B93319B18229B5EB5
:401300000A935B46434400229B5E0B9A09930C9B5343099A9C460A9B53436246D21AD31794461A0E9346DC4463461B12229322AA13880B9A2B810A9B5343099A9C460C9B6C
:4013400053439B46DC446346DA17130E9B46DC4462461312239323AA1388309A23811A23D25E0C92584A6A4413785A00131C5344934600229B5E0B93319B1A229B5E0A938B
:401380005B46434400229B5E0B9A09930C9B5343099A9C460A9B53436246D21AD31794461A0E9346DC4463461B1224AA249313880B9A6B810A9B5343099A9C460C9B5343AF
:4013C0009B46DC446346DA17130E9B46DC4462461312259325AA1388309A63811C23D25EB5230C925A006A4413785A00131C5344934600229B5E0B93319B1C229B5E0A93C9
:401400005B46434400229B5E0B9A09930C9B5343099A9C460A9B53436246D21AD31794461A0E9346DC4463461B12269326AA13880B9AAB810A9B5343099A9C460C9B5343EA
:401440009B46DC446346DA17130E9B46DC4462461312279327AA1388A381309A1E23D25E0C921A4A6A4413785A00131C5344934600229B5E0B93319B1E229B5E0A935B462D
:40148000434400229B5E0B9A09930C9B5343099A9C460A9B53436246D21AD31794461A0E9346DC4463461B129AB21A9210E0C0466C03002034050020AC020020EC0100204C
:4014C0006501000067010000690100006B0100001AAB1A880B9BEA810A9A5A43099B94460C9A5A439346DC446246D3171A0E9346E3445B461B129AB29346E281309B11AA3F
:4015000012881B8894469C442C9363460B801E92319B19AA12881B8894469C441D922D936346038012AA309B12885B8894469C442E9363464B801792319B13AA12885B884E
:4015400094469C442F93634643801692309B14AA12889B8894469C44299363468B801592319B1FAA12889B8894469C442A93634683801492309B20AA1288DB8894469C445D
:4015800020936346CB801392319B21AA1288DB8894469C44129221936346C38022AA309B12881B8994469C44229363460B811992319B23AA12881B8994469C442393634639
:4015C00003811192309B24AA12885B8994469C44249363464B810C92319B25AA12885B8994469C442593634643810B92309B26AA12889B8994469C44269363468B810A9277
:40160000319B27AA12889B8994469C4409922793634683811AAA309B1288DB8994469C442B936346CB81319B1F92DB895A4692B29B469446DC441A926246C2811E9B2C9AE3
:40164000D21A0A822D9B1D9A9B1A03822E9A179BD21A4A822F9B169A9B1A4382299A159BD21A8A822A9B149A9B1A8382209A139BD21ACA82219B129A9B1AC382199B229A09
:40168000D21A0A83239B119A9B1A0383249A0C9BD21A4A83259B0B9A9B1A4383269A0A9BD21A8A83279B099A9B1A83832B9A1F9BD21ACA831A9A5B469B1A0E9AC383934608
:4016C00010239B445A46D3B2309A0E932032319B30920E9A2033319320312030402A00D002E500210A9110982021425E55A90C920B7850465B00185E0F9A099041465B5E9A
:401700002020105E09990C9A4A439446021C5A436146891ACA178C46110E8B46DC44624611120B912C226946515A0C9A2980099953434143C918C817030E5A1810120C9069
:401740006B463021CA5A0A9B2280F8182222815EEA4A139109906A44137851465B00585E0A99129070180E9042462221405E9B5E1399129A51438C46011C59436246521A1F
:40178000D11794460A0E9346DC4461460A12119211A90A886A801299414313984343C818C217130E1A181112199119A80388099A6380AB202423D15E420014916A4413784E
:4017C00051465B00585E0E99139042469B5E2420085E139A149951438C46011C59436246521AD11794460A0E9346DC4461460912129112AA1188149AA98013995343414315
:40180000CA18D017030E99180812139013AA13880999A380BA4A2623C85E6A441690137851465B00585E0E99159042462620085E9B5E1699159A51438C46011C59436246AB
:40184000521AD11794460A0E9346DC446146091214AA14911188169AE980159953434143CA18D017030E99180812159015AA13880999E3802823C85E56AA1A9013785146A4
:401880005B00585E0E99179042469B5E2820085E179A1A9951438C46011C59436246521AD11794460A0E9346DC4461460912169116AA11881A9A2981179953434143CA1864
:4018C000D017030E99180812179017AA1388099923818C4A2A23C85E6A441E90137851465B00585E0E991A9042462A20085E9B5E1E991A9A51438C46011C59436246521AE4
:40190000D11794460A0E9346DC4461460A121DA91D920A881A996A8141431E984343C818C217130E1A1811121E911EA80388099A6381AD202C23D15E420020916A4413787F
:4019400051465B00585E0E991F9042469B5E2C20085E1F9A209951438C46011C59436246521AD11794460A0E9346DC44614609121A911AAA1188209AA9811F99534341433E
:40198000CA18D017030E991808121F901FAA13880999A3815C4A2E23C85E6A442190137851465B00585E0E99209042462E20085E9B5E2199209A51438C46011C5943624633
:4019C000521AD11794460A0E9346DC44614609122AAA2A911188219AE981209953434143CA18D017030E991808122B902BAA13880999E3813023C85E57AA219013785146A3
:401A00005B00585E0E99209042469B5E3020085E209A219951438C46011C59436246521AD11794460A0E9346DC4461460912309130AA1188219A2982209953434143CA187C
:401A4000D017030E99180812319031AA1388099923822E4A3223C85E6A442190137851465B00585E0E99209042463220085E9B5E2199209A51438C46011C59436246521A69
:401A8000D11794460A0E9346DC4461460A1232A932920A8820996A82414321984343C818C217130E1A181112339133A80388099A6382AF203423D15E420021916A44137894
:401AC00051465B00585E0E99209042469B5E3420085E209A219951438C46011C59436246521AD11794460A0E9346DC4461460912349134AA1188219A0AE0C0465501000033
:401B000057010000590100005B0100005D010000A982209953434143CA18D017030E99180812359035AA13880999A382DC4A3623C85E6A442190137851465B00585E0E99B2
:401B4000209042463620085E9B5E2199209A51438C46011C59436246521AD11794460A0E9346DC446146091236AA36911188219AE982209953434143CA18D017030E991878
:401B80000812379037AA13880999E3823823C85E58AA2190137851465B00585E0E99209042469B5E3820085E209A219951438C46011C59436246521AD11794460A0E93466A
:401BC000DC4461460912389138AA1188219A2983209953434143CA18D017030E99180812399039AA138809992383AE4A3A23C85E6A442190137851465B00585E0E992090ED
:401C000042463A20085E9B5E2199209A51438C46011C59436246521AD11794460A0E9346DC4461460A123AA93A920A8820996A83414321984343C818C217130E1A1811124D
:401C40003B913BA80388099A6383B1203C23D15E420021916A44137851465B00585E0E99209042469B5E3C20085E209A219951438C46011C59436246521AD11794460A0E52
:401C80009346DC44614609123C913CAA1188219AA983209953434143CA18D017030E991808123D903DAA13880999A3837E4A3E23C85E6A442090137851465B00585E0E9920
:401CC000099042463E20085E9B5E2099099A51438C46011C59436246521AD11794460A0E9346DC44614609128AB2299229AA1188209AE983099953434143CA18D017030EC3
:401D00009818011210982C226B46D35A02880D9802939B18038030206B46C35A0F989B4600882F9383443E9006985B460380109B11A85B8800889C460D9B8346604458802D
:401D40000F9B19A85B8800883F932E90C01809906B462420C05A069B89B2588012AB1B88E1832D93109889B280881B1809934090242368461B5A0D9883800F9B13A89B8821
:401D8000008841932C90C01809906B462420C05A069B9880109814ABC0881B88429027931B180993684624231B5A0D98C3800F9B15A8DB88008843932690C01809906B46D3
:401DC0002420C05A069BD880109816AB00891B88449025931B180993684624231B5A0D9803810F9B17A81B89008845932490C01809906B462420C05A069B188110981DABBE
:401E000040891B88469023931B180993684624231B5A0D9843810F9B1EA85B89008847932290C01809906B462420C05A069B588110981AAB1B88808921931B180993489032
:401E4000242368461B5A0D9883810F9B1FA800889B892090C0180990499324206B46C05A069B988110982AABC0891B884A901F931B180993684624231B5A0D98C3810F9BAB
:401E80002BA80088DB891A90C01809902B9324206B46C05A069BD881109830AB1B8805E05F0100006101000063010000008A1E931B1809933090242368461B5A0D980382F2
:401EC0000F9B31A800881B8A1D90C0180990319324206B46C05A069B1882109832AB1B88408A17931B1809933290242368461B5A0D9843820F9B33A800885B8A1690C01895
:401F00000990339324206B46C05A069B5882109834AB1B88808A15931B1809933490242368461B5A0D9883820F9B35A800889B8A1490C0180990359324206B46C05A069B74
:401F40009882109836AB1B88C08A13931B1809933690242368461B5A0D98C3820F9B37A80088DB8A1290C0180990379324206B46C05A069BD882109838AB1B88008B199380
:401F80001B1809933890242368461B5A0D9803830F9B39A800881B8B1190C0180990399324206B46C05A069B188310983AAB1B88408B0C931B1809933A90242368461B5A76
:401FC0000D9843830F9B3BA800885B8B0B90C01809903B9324206B46C05A069B588310983CAB1B88808B09931B180E933C90382368461B5A0D9883830F9B3DA800889B8B37
:402000000E90C0182A903D932AAB1888069B9883109829AB1B88C08B2A931B1829934B9029A803880D982991C3830F9BD88B069B091801900298D9830D99131A0B843E9AED
:402040002F980699131A0A980B845A46031C61464B44881A58840A99E14842182E993F98401A508440992D98091A998441982C99401A908442992798091AD9844398269999
:40208000401AD08444992598091A198545982499401A108546992398091A598547982299401A508521984899091A998549982099401A90854A991F98091AD9852B981A99B5
:4020C000401AD08530991E98091A198631981D99401A108632991798091A598633981699401A508634991598091A998635981499401A908636991398091AD986379812993F
:40210000401AD08619983899091A198739981199401A10873A990C98091A59873B980B99401A50873C990998091A99873D980E99401A90874B992A98091AD987019B2999EF
:40214000581A0A9BD087403310980F990D9A0A93069B403040314032403310900F910D9206930A98802801D0FFF7BDFA6B463533FF33069300234846C21840320020115ED3
:40218000069A0A9110784100081C50448B460021415E9348C21840320020125E09925A4642440020125E09980D920A9A4A4394460D9A50436246121AD0179446020E9346C7
:4021C000DC44099A60460012585351430D980A9A42438818C217120E11180812185349460233CA1840320021505E069A099050787B4A4100081C50448B460021405ED118F1
:402200005A460A904244081C0021525E40300021405E0D920A99099A4A4394460D9A61464243891ACA178C46110E8B46DC440A99624612125A534143099A0D984243891827
:40224000C817020E501802121A530699023302310691402B8FD100234846595B1A5A60488A18DA53195B1A5A48468A189A530233595B1A5A5A488A18DA53195B1A5A8A1870
:402280009A530233402BE7D100232022F8181F211140403006904800099009984946405B595A0132091A081C06990880F018403083464B48195A09988C46015B60460233DC
:4022C000411A58460180F8181F21114040300692099049004A46485B9A5A121A101C099A10803F4A095B9A5AF018511A069A4030013201800233402AC8D10023FA188032F0
:402300000021505EF118524680310A90985E0022895E09914146595E099A06910A9941438C4606994A436146891ACA178C46110E8B46DC446246099912125A5341430A9A5C
:40234000069842438818C217120E1118081218530233FA1880320020115E09915146585E42460A90F1189A5E80310020095E06920A98099A42439446069A60464A43801A80
:40238000C2178446100E8346DC44624612125A530A9A06985143099A42438818C217120E11180A121A530233802BA7D10023595BD85B0A1849465A52985B195B0A18084819
:4023C0001A520233595BDA5B8A1849465A52195B9A5B8A181A520233802BE8D1402301E034050020181C3F21194040385A004000490006920A900991495BC05B0133401A68
:40240000011C484611520A99099A885B115B144A401A0699DBB28852181C3F21194040385A004000490006920A900991495BC05B0133401A011C484611520A99099A885BA3
:40244000115B074A401A0699DBB28852802BC9D1002000F091F80A2000F04EF8FDF74FFF34050020C046C04600B5FEE701488546014B1847001000201100000038B50022B1
:4024800000231449144D154C0BE0201C013388500432032B0DD8A858013388500432302B0DD0032BF1D8A858013388500432032BF1D9201C013388500432302BF1D1FDF724
:4024C000CFFD074C80200021C305012221601A6038BDC046000000200000000069240000C000002008B503490B79584300F050F808BDC046CC010020F0B5474680B4802769
:402500003F02061C184DB84226D9184A81180804C30FE868984600F03BF8154BF418BC4213D94346002B06D0E86800F031F8114AB418BC4209D9E86800F02AF8E86800F0BE
:4025400027F80C4BE418BC42F5D8084FF119C80B0137C403F619361BA868704300F018F804BC9046F0BDC046CC010020FF7FFFFF0080FFFF0000FFFF044BFE2219680A4060
:4025800001210840104318607047C046000104400230800804D0C0460138FDD1C046C0467047EFF3108072B6704780F31088704710B5274C021C27480B1C214086B081422D
:4025C0001DDD2548814205DD101C191C02F0A4FA06B010BD02AC101C191C221C00F09CF80323184001281BD002280FD0002822D120686168A268E36800F0AEFAE8E7101C9B
:40260000191C124B104A00F0A7FAE1E7A268E3682068616800F0A0FA80231B06C918D7E7A268E36800900298039900F0EDFF80231B06C918CCE7A268E368206861680124A8
:40264000009400F0E1FFC3E70000000000000000FFFFFF7FFB21E93FFFFFEF7FC046C04610B5294C021C29480B1C214086B081421FDD2748814205DD101C191C02F04CFA21
:4026800006B010BD02AC101C191C221C00F044F803231840012821D0022813D0002824D1A268E368206861680124009400F0ACFFE6E700210091101C191C124B104A00F0DB
:4026C000A3FFDDE7A268E368206861680124009400F09AFF80231B06C918D1E7A268E3680298039900F038FACAE7A268E3682068616800F031FA80231B06C918C0E7C046BE
:402700000000000000000000FFFFFF7FFB21E93FFFFFEF7FC046C046F0B557464646C0B4C74CC84B91B00C4002900391151C0F1C9C4200DC8CE0C44B9C4222DC02980399A3
:40274000AE4BAD4A002F00DC8EE102F0E5F9BF4B061C0F1C9C4200D190E0A94AA94B02F0DBF9021C0B1C2A606B60301C391C02F0D3F9A34AA34B02F0CFF90126A860E960F6
:402780006DE0B34B9C4200DC92E0B24B02980399021C9C4200DD68E0AF48211540180105631A191C8246101C0292039302F052FD02F084FD0B1C0AA9021C88460298039943
:4027C0000A920B9302F0A8F98F4A904B01F076FF0290039102F03EFD02F070FD4446021C0B1CA260E3600298039902F095F9864A864B01F063FF424610615161844A854B39
:402800000CAC032601F06EF9002809D0206861687F4A804B013E083C01F064F90028F5D1022300938D4B40460193291C331C524600F0B6FA061C002F11DA6B688024240667
:402840001B196B6008356B6846421B196B6006E06F4B704C106051609360D460002611B0301C0CBC90469A46F0BD0B1C02F054F90026A860E96028606960F0E7664A674B59
:4028800002F04AF9664A674B061C0F1C02F044F9021C0B1C2A606B60301C391C02F03CF95F4A604B02F038F90126A860E960D6E70298039900F05CFF5B4A5C4B0290039104
:4028C00001F0FCFE5A4A5B4B01F070FA02F0C2FC061C02F0F3FC584A584B0690079101F0EDFE021C0B1C0298039901F05FFA444A444B029003910698079901F0DFFE04909E
:4029000005911F2E28DC721E554B9200D358A34222D0049A059B0298039902F0FDF8021C0B1C2A606B600298039902F0F5F8049A059B02F0F1F82C1C0834A860E960002FC5
:4029400000DB8CE76B68802109065B186B60636876425B18636082E7049A059B0298039902F0DAF82415A0463E4C0B1C090D021C21404046411A2A606B601029D3DD264AFA
:40298000264B0698079901F099FE04900591049A059B0298039902F0BFF808900991089A099B0298039902F0B7F8049A059B02F0B3F81B4A1B4B029003910698079901F04F
:4029C0007DFE029A039B02F0A7F804900591049A059B0898099902F09FF80B1C090D0C404146021C0C1B2A606B60312C73DC089809990290039196E700004054FB21F93F3B
:402A00003163621A61B4D03D000000000000704100000000000000000000601A61B4D03D7370032E8A19A33B83C8C96D305FE43F000000000000E03F00004054FB21F9BFC8
:402A4000FFFFFF7FFB21E93F7BD90240FB21F93FFB213941FFFFEF7FEAFBFFFFC056000040560000FF07000001F0A0F9384B061C0F1C9C4214D02D4B2B4A01F097F9021C6D
:402A80000B1C2A606B60301C391C02F045F8274B254A01F08BF90126A860E9607642DEE6234A244B01F082F9234A244B061C0F1C01F07CF9021C0B1C2A606B60301C391C6E
:402AC00002F02AF81C4A1D4B01F070F90126A860E9607642C3E61A4A1A4B0698079901F0EDFD04900591049A059B0898099902F013F802900391029A039B0898099902F0A4
:402B00000BF8049A059B02F007F80F4A0F4B049005910698079901F0D1FD049A059B01F0FBFF04900591F4E63163621A61B4D03D0000601A61B4D03D7370032E8A19A33BF9
:402B40000000002E8A19A33BC14920259A837B39FB21F93FC046C046F0B5474680B488B002920393884A894B0A409046061C0F1C984563DC02F06EFB002800D1DBE0321CD2
:402B80003B1C301C391C01F099FD6E4B6C4A041C0D1C01F093FD6C4A6C4B01F007F9221C2B1C01F08BFD6A4A6A4B01F0B5FF221C2B1C01F083FD684A684B01F0F7F8221C7A
:402BC0002B1C01F07BFD664A664B01F0A5FF221C2B1C01F073FD644A644B01F0E7F8221C2B1C01F06BFD04900591201C291C604A604B01F063FD049A059B00900191201C51
:402C0000291C01F05BFD029A039B041C0D1C301C391C01F053FD021C0B1C201C291C01F07BFF021C0B1C0098019901F075FF021C0B1C5148514901F06FFF71E0321C3B1CC7
:402C400001F03CFD3F4B3E4A041C0D1C01F036FD3D4A3E4B01F0AAF8221C2B1C01F02EFD3B4A3C4B01F058FF221C2B1C01F026FD394A3A4B01F09AF8221C2B1C01F01EFD5E
:402C8000374A384B01F048FF221C2B1C01F016FD354A364B01F08AF82B1C221C01F00EFD3B4B0490059198459FDD3A4B98453BDD3349344A00910192009A019B2E482F4996
:402CC00001F02AFF2A4A2B4B06900791201C291C01F0F4FC009A019B01F01EFF049A059B00900191201C291C01F0E8FC029A039B041C0D1C301C391C01F0E0FC021C0B1C10
:402D0000201C291C01F008FF021C0B1C0098019901F002FF021C0B1C0698079901F0FCFE08B004BC9046F0BD1B4900220B1C434400920193C0E710481049F1E7C046C046B2
:402D4000D43888BEE9FAA8BDC4B1B4BD9EEE213EAD529C804F7E923E9015CB19A001FA3E7751C1166CC1563F4C5555555555A53F000000000000E03F000000000000F03F46
:402D8000000000000000D23FFFFFFF7FFFFF3F3E3233D33F0000E93F0000E0FFC046C046F0B55F4656464D464446F0B4864C8046A544A298099308918449141C8300099AC7
:402DC0005B58013AE01E18210693039200F018FE0B90002801DA00F0BCFB0B980699C3435A00D318DB00039A1B1905938F1816D4841AA39BA5005CAE5D19E71907E028685B
:402E000002F05CFA043503C6BC4208D00134002CF5DA64496248043503C6BC42F6D1069C002C01DA00F0E8FB099C069B6946039A30311B19E40007918B4691460093A246E2
:402E4000039C002C00DAB6E14846C5005CA94D190024544F524E40460319186859682A686B6801F02BFC021C0B1C301C391C00F09DFF0834061C0F1C083D5445EBD159465D
:402E800008310122009B8B4691440839C0C19945D6D1069A93465C460798E3001B181E685F68002C27DD013CE4000AA984AD04198A463D4A3D4B301C391C01F0FFFB02F062
:402EC000C9F902F0FBF93A4A3A4B0090019101F0F5FB321C3B1C00F069FF02F0BBF92268636801C50098019900F060FF083C061C0F1C5445DDD1301C391C059A00F0E4FCF7
:402F00002D4A2E4B041C0D1C01F0D8FB00F038FC2B4A2C4B01F0D2FB021C0B1C201C291C00F044FF0D1C041C02F094F9071C02F0C5F9021C0B1C201C291C01F0EDFD059AF2
:402F4000051C0E1C002A00DC05E15B46013B84249B00A400E41868462258059C1821091B101C08413F188840111A84208000C01817236A461B1B815019410291029B002BD3
:402F800045DD5C460137002C00DC1CE15846810084AB8020C9180024400421E0C046C0460000000000000000000000000000703E00000000000070C1000000000000C03FEE
:402FC00000000000000020C09CFDFFFFC8570000002A02D0821A1A60012404338B4209D01A68002CF4D0CA4CA21A1A60043301248B42F5D10598002805DD012800D1C7E032
:40300000022800D1B5E0029A022A00D18AE0281C311CB44BB24A00F065FD002800D1D4E05C46069B013CA3420FDC069984A8A5008A00431983A8801800221968043B0A43DA
:403040008342FAD1002A00D0E8E1069B8422013B9B009200D2186C461359002B00D0B0E0069B84A8023B9B00C31801211A680131043B002AFAD05A46594401320A918A425A
:403080004ADC0B9B099801335B44A39C9B00E418031C07985B44D200D9008218A1465CAC641802920A99099A00948918D2009B46049192464B46186802F000F9009C2060A6
:4030C0006160039800282ADB5946CD005CAA55190024844F824E40460319186859682A686B6801F0EBFA021C0B1C301C391C00F05DFE0834061C0F1C083D5445EBD1029993
:40310000009BC0C10124049804220833A3440291914400938345CDD10A998B46BBE6714F6F4EECE72A1C331C6F48704901F0F4FC051C0E1C002C00D169E7059A6A486B4921
:4031400000F0C2FB021C0B1C281C311C01F0E4FC051C0E1C5BE7059B002B23D15B46013B84249B00A400E41868462358DB15029304E75B46013B84229B009200D21868460E
:403180001158644A0A4084218900C9180A503AE75B46013B84229B009200D218684611585D4AEFE7524A534B00F0C0FC002805D1002102912BE74B4F494E60E6022202921D
:4031C000DFE6012157E7002414E70497002800D00EE2059B281C5A42311C00F075FB464A464B041C0D1C00F0A1FC002800D1B4E1434A444B201C291C01F060FA02F02AF85A
:4032000002F05CF8404A414B061C584680008046301C0F1C01F052FA021C0B1C201C291C00F0C4FD02F016F80123059C424684A99B445050183458460594391C8400301C60
:4032400002F008F88421890009196A468850059A2548264900F038FB5A46061C0F1C002A00DA7CE00798950084ABD4000AA95D1904198846286802F021F8321C3B1C01F01D
:403280001DFA1F4A1F4B20606160301C391C01F015FA083C061C0F1C043D4445EAD101229246DA4450461D4C03900698A14634AB10240027A1449A4680465B464446DE1B13
:4032C000002C00DA96E0002F00DA8EE0079AF600044C034B4D46009301949619002423E00000000000000000000000000000F03F000000000000E03F000000000000704116
:40330000000000000000703E00000000000070C1FFFFFF00FFFF3F00FFFF7F00C857000008350836BC4210DC326873682868696801F0C4F9021C0B1C0098019900F036FD55
:40334000013400900191A045EADAFB0053440099019A19605A60039A01379742ADD1A29C022C4CDC002C00DC1FE15B46002B00DA16E134A95A468846D4000023444432AD46
:403380000026191C301C2268636800F00FFD083C061CAC42F6D10B1C029C002C59D0802109065818089C021C311C2160626034983599321C01F0B0FB5A46002A09DD4446B0
:4033C000D5006519A268E368083400F0EFFCAC42F8D1029B002B02D0802424060919031C08980C1C8360C4600CE0864A844900910192AAE78349824800900191A5E7A29823
:40340000032828D0049B0720184099239B009D443CBC90469946A246AB46F0BD049784208000059A401969464358183A0592002B00D0B3E0631E84AA9B00D318059A211C57
:4034400018680139183A043B0028F9D005928B46FDE6181CA6E75946002900DC99E05A4634A9D2005C468846131C013C4344E4001868596844440090019132A992468946E4
:40348000251C009A019B2868696800F08FFC061C0F1C321C286869683B1C01F03DFB009A019B00F083FC2E606F60A860E960083D009601974D45E4D15A46012A6BDD534684
:4034C000434419685A6800910192226863680098019900F06BFC051C0E1C2A1C20686168331C01F019FB021C0B1C0098019900F05DFC25606660A060E160083C009501960E
:403500004445E2D144464546544408350020002122686368083C00F049FCAC42F8D1029B002B26D0349B089A4446136063688022089C12069B18636042469368A360D36813
:403540008024089A24061B190919D3601061516158E700230B93FFF740FC5B46201C291C9E0001F077FE8424A400A419694660506DE6089A349B359C136054604246936830
:40358000D468089A9360D460031C0C1C1361546138E734AA904600200021C0E7A34656E634AC00260023A046F6E6002C00D029E75846002819DB5946CB0034ACE41832ADE0
:4035C0000020002122686368083C00F0EFFBAC42F8D1029A002A02D080231B06C918031C08980C1C036044600CE700200021F0E75C46013CA50012E768463030079048E4DC
:403600000000000000000000F0B589B0029203930D1C554B2A1C1A40544B041C9A4204DC291C01F017FE002866D0221C2B1C201C291C01F043F8221C2B1C061C0F1C01F000
:403640003DF83C4B3A4A00900191301C391C01F035F8394A394B01F05FFA321C3B1C01F02DF8374A374B00F0A1FB321C3B1C01F025F8354A354B01F04FFA321C3B1C01F00C
:403680001DF8334A334B00F091FB0E9B04900591002B35D0304A314B0298039901F00EF8049A059B069007910098019901F006F8021C0B1C0698079901F02EFA321C3B1C8A
:4036C00000F0FCFF029A039B01F026FA244A254B061C0F1C0098019900F0F0FF021C0B1C301C391C00F062FB021C0B1C201C291C01F012FA041C0D1C09B0291C201CF0BD32
:40370000049A059B301C391C00F0D8FF144A154B01F002FA009A019B00F0D0FF021C0B1C201C291C00F042FB041C0D1CE4E7C0467CD5CF5A3AD9E53DEB9C2B8AE6E55A3EE8
:403740007DFEB157E31DC73ED561C119A0012A3FA6F810111111813F000000000000E03F495555555555C53FFFFFFF7FFFFF3F3E10B5024A0C1C111C214010BDFFFFFF7FEA
:40378000F0B557464E464546E0B4021C0B1C041C0D1C88468146824649004748490D0E18132E20DC002E49DB444C34411C4242D0101C191C3D4B3C4A00F0F8FA3C4A3D4B72
:4037C00000F0AAF900284AD04346002B53DB4146A14300240B1C221C101C191C1CBC90469946A246F0BD332E0ADD8021C9008E42F2D1101C191C00F0D9FA021C0B1CEBE71B
:403800002F480F1801204042F840071C1042E3D0101C191C254B244A00F0C8FA244A254B00F07AF900281DD0002D29DB4146BC430B1C221CD0E7002ACED0B9E7101C191C04
:403840001A4B194A00F0B2FA194A1A4B00F064F9002807D0002D07DB00240021E8E741465446E5E7291CE3E7690001D1002C13D000241449DCE780235B0333419844A6E745
:40388000142E0CD03424A61B0124B4404C44A145CCD901218844C9E7291C0024C8E701208044C3E7C046C0469C7500883CE4377E000000000000000001FCFFFFFFFF0F00D6
:4038C000EDFBFFFF0000F0BF70B54B005B0D141C051C0E1C0A1C002B26D1510021D0354B334A281C311C00F0E9FE394B051C0E1C0A1C9C4227DB4B005B0D363B35491B1946
:403900008B4218DD2A1C331C2B482C4900F06CF8294A2A4B00F0D2FE051C0E1C281C311C70BD0028FAD0DAE72B498B4225D029491B198B42E6DC002B0CDD28491B050A4036
:403940001E1C1643EAE71E4A1E4B00F0B7FE051C0E1CE3E7191C353118DA214B9C42D1DC2A1C331C1648174900F03EF8144A154B00F0A4FE051C0E1CD0E7281C311C2A1C32
:40398000331C00F013FA051C0E1CC7E7134936331B050A401E1C1643281C311C0A4A0B4B00F08CFE051C0E1CB8E7C046C046C04600000000000050439C7500883CE4377E4E
:4039C00059F3F8C21F6EA501000000000000903CB03CFFFFFE070000FF070000FFFF0F8050C30000C046C046F0B51F1C80231B06024A3B400A40191C1143F0BDFFFFFF7FBA
:403A0000002941D010B4041C4C40A44601230022002900D54942002800D5404288422CD301242407A14204D2814202D209011B01F8E7E400A14204D2814202D249005B005E
:403A4000F8E7884201D3401A1A434C08A04202D3001B5C0822438C08A04202D3001B9C082243CC08A04202D3001BDC082243002803D01B0901D00909E3E7101C6446002CF7
:403A800000D5404210BC7047002806D003DB0020C043400801E08020000607B4024802A14018029003BDC046190000000029EBD003B5FFF7A7FF0EBC4243891A1847C0465E
:403AC0007047C0468446101C62468C46191C634600E0C0461FB500F07DFD002801D40021C8421FBD10B500F0CFFC4042013010BD10B500F06FFD002801DB002010BD012060
:403B000010BDC04610B500F065FD002801DD002010BD012010BDC04610B500F0E9FC002801DC002010BD012010BDC04610B500F0DFFC002801DA002010BD012010BDC046C0
:403B4000F8B55F4656464D464446F0B4450044022D0EC00F0F1C640A8046002D42D1002C74D178007E0204230122000E9A469146760AFF0F002846D0FF285CD08022130412
:403B80001E43F6007F38002253464146134379400F2B41D94019A2B2B5B28346101C6843360C230C72435D43040C17195E437B199D4200D9A2E084B21F043D19AC01601E4F
:403BC00084411B0CA80EF21804439601231C33431A0100D4A5E0012401221C405E089344344351E0FF2D1FD080210B0400221C43E4007F3D9246914678007E02000E760A68
:403C0000FF0F0028B8D1002E2CD1012253464146134379400F2BBDD89B009A464E4B9C46534663441B689F46002C0AD10822022392469946E0E7002E01D10222A4E7032233
:403C4000A2E70C22032392469946D5E7201C01F029FC76250023411F6E428C40351A9A469946C9E7301C01F01DFC7623421F59429640081A002287E70F1C4A46022A14D00C
:403C8000032A33D0012A44D05B467F33002B3BDD0F202040042800D00434220102D52F4D01332C40FE2B37DD0F1CFF230020DB05F907184308433CBC90469946A246AB4670
:403CC000F8BD341C391CD9E70F1C341CD6E78021CB031C4216D01E4214D1341C391C05E0474641464A46C9E71D4C00218026F00320431B4C0F1C2040FF23D8E780277D021D
:403D0000761958E74146F1E70126F31A1B2B0ADD0F1C00230020CAE7A701780ADBB20F1CC5E71C1CB0E72020C51A221CAC40DA40631E9C4114430F232340042B00D0043495
:403D4000630103D50F1C01230020B0E7A701780A00230F1CABE7C04618580000FFFFFFF7FFFF7F0010B5430041021B0E4C0AC20F7E2B11DD9D2B0CDC802001042143952B65
:403D80000CDC9624E01AC140081C002A03D0404201E0054C101910BD0020FCE71C1C963CA140081CF1E7C046FFFFFF7FF8B557464646C0B4041C0803CD0FDF0F4E00400A58
:403DC000610F0843B846111C1F03AC467A0A5D004B0F1A43760D6D0D9246E400C900721BC44500D196E0002A00DCFFE0002D0DD15346002B02D1002900D1C3E0013A002A49
:403E000000D044E15546611A431B1FE0B34B9E4200D1C3E0802357461D042F43BA46382A00DD0BE11F2A00DD48E12025AB1A57460D1C9F409940D5403D430F1C791E8F41CC
:403E40005346291C3943D340611AC31A8C42A4411B19351C0C1C66461F0200D4C4E0A04F1F40002F00D1E4E0381C01F01BFB021C083A1F2A00DDD7E02023211C981A974025
:403E8000C1400F439440954200DDAAE0521B01321F2A00DD00E12023991A201C3D1CD0408D408C400543631E9C413B1C2C43D340002501220F212140042905D0211DA14247
:403EC000A4411B1B6A1C0C1C1F0200D56CE08349101C5F07E40808402A1C3C43DB08012800DC70E07F4D0A402B407F4F002000210F407A497D4D3B430A40201C1D40140542
:403F00007B4B25431D40F607291C31430CBC90469A46F8BD002A00DC9FE0002D2DD06F4B9E423BD0802357461D042F43BA46382A00DC0EE15246002A02D1002900D15EE1EB
:403F40000023012109191D18A14280412B1A0C1C351C1F020ED5614A0135954200D148E1644E01272740334060083C1CD90704430C435B086A1C66469CE75346002B06D1F0
:403F8000002904D1721C351C031C664692E7013A002A00D1F8E0514B9E42C8D18027031C66463A014D4D85E74C498A4239D051484A490340501C5F07E40808403C43DB08C9
:403FC000012800DD8EE7002C01D1002B07D0002A3FD080274349380303430B403F490A4083E7444BAD1A3B406A1C63E7002A00D082E03A4D771C2F40012F00DCE0E05246E8
:40400000631A851A9C429241AF183D0200D498E00C1B5246131AA1428041351C1F1846461FE70023002460E7271C28388740002429E7201C01F036FA203018E75246002A1D
:4040400004D1002902D100230021FDE600230121FAE6244A1340002247E7002A00D0E2E0751C1E4B2F1C1F40012F00DC99E09D4200D1BEE00A195646A242A44133181B1BD6
:40408000DF0754083C435B086A1C664612E7134B9E4200D0C3E681E7202A00D17DE04020811A3D1C8D402B1C1C43203A631E9C41D7403C43012200230025FBE6202A6ED031
:4040C0004027BB1A55469D402B1C1943203A57464B1E9941D74039430023B5E6FF070000FFFF7F00FFFF0F000000F0FFFFFF0F80FFFFFF7FFFFF7FFF5242002E3BD0BC4B06
:404100009D4200D1B1E0802637043843382A00DDBDE01F2A00DD4EE12026B31A071C261C9F409C40D640631E9C413E43031C3443D34052460C1BD01AA1429241831846465A
:404140008AE6002F01D1002B4DD0351C1C1C664687E61F2A56DC2025AB1A57460D1C9F409940D5403D430F1C791E8F415346291C3943D340E6E600287ED1002C7CD16A1C0B
:4041800053460C1C464695E60A1955462F18A242A4413B1B351C141CDBE6002384E7002393E7002E00D0D1E0002800D02BE1002C00D028E153460C1C66460122002579E6DA
:4041C000002E3ED1002800D088E0002C00D085E05346002B01D1002905D053460C1C46460122002566E60026012200230421002569E68022664612010023042163E6002332
:4042000000219FE6202A00D1D3E04027BB1A55469D402B1C1943203A57464B1E9941D740394300238EE65242002E38D1002800D0D3E0002C00D0D0E06A1C53460C1C66463A
:4042400038E6002861D1002C5FD15246002A0CD100290AD18020042400260201654B614231E6634B9D4200D050E7802253460C1C464612015E4D1DE6013A002AF1D1564665
:404280000C1B331AA14289415B184646E4E5002802D1002C00D19DE00023012449E7544B9D427AD0802637043843382A00DDA3E01F2A00DDCAE02026B31A071C261C9F401B
:4042C0009C40D640631E9C413E43031C3443D340641853448C4292419B1A3AE65546002D01D1002960D0621A5646871B94429B41FB181F0200D49CE00C1B321AA1428941B8
:404300005318464601220025D4E55346002B02D1002900D142E680264507E408C00833032C43184200D182E05546EA081A4200D07DE0CF086C07101C3C434646C200630F29
:4043400080211343E4000A01294DB3E5002801D1002C22D05746002F02D1002900D11DE680264207E408C00833031443184200D17DE05546EA081A4279D1C9086C07131C37
:404380000C434646600F8025DB002A010343E400174D8FE5164B9D4287D180252A0153460C1C6646124D85E5031C66460122002580E500232EE7202A57D04026B31A071CF1
:4043C0009F403B1C1C43203A631E9C41D04004430023AEE600230024ABE6013A002AD9D156460C1933188C42B6419B1BB1E5C046FF070000FFFF7F00002801D1002C22D0BD
:404400000023012464E75246002A01D10029CBD0091955462B18A142A4411B1B1E0229D518480C1C034066460222012542E5664684E7002B02D1002A00D1D4E6141C6646E7
:404440000122002536E50023002441E7202A16D04026B31A071C9F403B1C1C43203A631E9C41D0400443002332E70023AAE7031C664687E70C1C6646012200251AE50023D9
:40448000EBE7C046FFFF7FFFF0B594461A030D034C00061C170BC80FDA0F5900134B640D2D0B490D9C4213D0104B994215D08C4201D00120F0BDBD42FBD16645F9D190429B
:4044C00011D0002CF5D13543281C431E9841F1E7002DEED1002EECD1E6E7002FE9D16346002BE6D1E3E70020E4E7C046FF070000F0B557464E464546E0B491461A030D0349
:404500004C00061CC80F110B8C46DA0F5900304B640D2D0B490D9C4248D02D4B99424CD0002C17D000239A46002905D16746002F02D14B46002B13D00027B8465346002BDB
:4045400013D0002A18D1012670421CBC90469946A246F0BD2F1C37437B427B419A46E3E75746002F30D00020EFE74746002F01D1904203D00028E6D10120E6E78C42F9DCFD
:404580008C420FDB6545F5D86246AB1A5A425341002B01D04E45EDD8654503D3002BE2D0B145E0D90028CED00120CEE7002D01D1002EB2D002204042C7E76346002BF9D194
:4045C0004F46002FF6D1ABE701239846B6E7C046FF070000F0B557464E464546E0B494461A030D034C00CF0F061C5900100BDA0F314B640D2D0BB946490D9C422CD02E4B81
:40460000994211D0002C17D00027BA46002901D100282AD00027B8465346002B12D0002A18D10120404202E000281AD002201CBC90469946A246F0BD2B1C33435F425F41B0
:40464000BA46E3E74746002F17D191451AD04F46002FE6D10120EAE7002DE7D1002EE5D1CDE76346002BE1D1CCE76346002BD1D15746002F1DD00020D9E74B46002BD0D17D
:404680000120D4E78C42F8DC8C420EDB8542F4D82B1A5A425341002B01D06645EDD8854203D3002BE7D0B445E5D94F46002FB8D0D0E701239846AFE7FF070000F0B55F4630
:4046C00056464D464446F0B41F1C4B00161C0C035B0DCA0F8BB0051C240B98469146002B1CD1002C00D02EE1002800D19EE100F0D9FE2030031C0B3B1C2B00DDC1E11D21FA
:404700000838CA1A291C8440D1400C438540CA48C21A90460022934603920EE0C74880453DD0802043031C43C5496A0F0020E4001443ED00884483460390391C4A003F03E7
:40474000CB0F520D301C3F0B9A46002A31D1002F00D0FCE0002E00D18AE100F0A3FE2030031C0B3B1C2B00DD85E11D210838CA1A311C8740D1400F438640AF480021C21AB6
:40478000484653464340584608430F2826D880008346AC4884465846604400688746002C02D1002D00D15DE10C239B4603230393C3E7A24B9A4200D1BCE0802043031F4384
:4047C0009F48710FFF000F43F60012180021484653464340584608430F28D8D942440492AAB29446B0B26146360C714342438946290C93460A1C42430D1C754390465A4690
:40480000AA46150C4D4445440195A84500D9FEE0019D2A0490465A4695B24544BAB20595654655433F0CA94665467D43AC460D1C55437943AB464D468846290C61445944DB
:404840008B4502D980256D02A8440D0CAC464D46ADB20904C444A8468844A1B20D1C4543A9460D1C7543240C03954D462D0C6043AB46039D6643AB448344584502D98025A9
:40488000680236185D46280C361828044D46ADB2A9460D1C554362437C437943A3462C0C0F19B9184844A9468A4202D980277A029344019F0D043A0C424452444245A44178
:4048C000A8464D46AFB2B84445461218644265446545BF41824280412D194042A542A44182467F42701964423C43B042B6410D0C504461195045A441764267423743CC1992
:404900004502D10D29435502059A5C446402C60D15436A1E954134430D43E70123D5049A012668083540E1070132054304920D43640818E0002F01D0032148E7002EFBD116
:40494000371C022143E7201C00F0ACFDD2E6381C00F0A8FD04E703991A1C02291BD003294DD001295ED00499374FCA19002A54DD0F202840042804D02E1DAE42AD41641B0D
:40498000351CE00102D5314901320C4030498A4200DC7CE01A1C294E002400252D4F002000210F40281C2C4D27433D4034052B4B25431D40D607291C0BB031433CBC90463F
:4049C0009946A246AB46F0BD52463C1C351C5346C3E71A1C3C1C351CBFE780231B031C4219D01F4217D13C1C351C534607E04A464B460399B1E70125194C6D42002380227B
:404A00001003174904430C401A1C0C4EC6E780225502AA44FCE64B46F1E70120821A382A3EDD1A1C002600240025B7E704218B460121041C039180E602FCFFFFFF07000050
:404A400001FCFFFF58580000FF030000FFFFFFFEFE0700000000F0FFFFFF0F80FFFFFF7FFFFF0F0008218B4602212C1C039164E6371C0121ABE6071C283FBE40371C00263A
:404A80007BE6041C283CA5402C1C00253FE6214E6707ED08640216403D43240B1A1C7DE71F2A1DDC2026B11A201C2F1C88408D40D7402E1C0743751EAE413D1C3543D44042
:404AC0000F222A40042A04D02E1DAE42AD41641B351C220213D51A1C0126002400255DE7202A14D04020811A271C8F403E1C3543203AD440691E8D4125430024E0E7670799
:404B0000ED0864023D43240B1A1C002646E70026EDE7C046FF070000F8B557464646C0B4041C0F03CD0F4E00780A610F0843171CAC4680465D001803D90FBE4B400A520FFA
:404B4000FF006D0D760DE4001043BA469D4200D1F6E001235940721B8C4500D19CE0002A00DC10E1002D14D1002803D15146002900D1F1E0013A002A00D069E15346E21A99
:404B800045462B1A9442AD415B19141C351C664624E0A84B9E4200D1EAE080210F043843382A00DD1CE11F2A00DD67E120218F1A5346011CD340B94019435346BB401D1CA0
:404BC0006B1E9D41031C2943D340611A42468C42A441D01A0319351C0C1C6646190200D4CFE0954F1F40002F00D1EBE0381C00F059FC021C083A1F2A00DDECE02020211CBB
:404C0000831A9740D9400F439440954200DDB5E0521B01321F2A00DD1FE12023991A201C3D1CD0408D408C400543631E9C413B1C2C43D340002501220F21214004295FD0CA
:404C4000211DA142BF410124DB1B6A1C26400C1C190259D47749101C5F07E40808402A1C3C43DB0801285DDD74480A400340744D002000210D406F49201C0A401405714A61
:404C80002B431A40704B22431A40F607111C31430CBC90469A46F8BD002A00DCAFE0002D55D0644B9E4263D0802739040843382A00DC22E1002803D15146002900D177E1E3
:404CC000002301210819A042924143449B1A041C351C1E020ED5574A0135954200D161E15A49012626400B406708341CD8073C4304435B080F2121406A1C664604299FD186
:404D0000012006401902A5D54A498A4257D04F4D48492B40501C5F07E40808403C43DB080128A1DC002C01D1002B07D0002A62D0802742493D032B430B403E490A4096E776
:404D4000002800D007E7002F00D004E701E7002807D15146002904D1721C351C434666466AE7013A002A00D1E4E0324B9E429ED18027434666463A012E4D5DE7334BAD1AA0
:404D80003B406A1C58E7002A00D087E0294D771C2F40012F00DCEBE05246A31A45462F1A9C429241BF183A0200D49EE053461C1B401BA2459B41351CC7180E1C13E700235F
:404DC000002454E7201C00F06DFB2030021C083A1F2A00DC12E7271C28388740002414E7002805D15546002D02D100230021ECE600230121E9E6114A1340002237E7002A8E
:404E000000D0E9E0751C0B4B2F1C1F40012F00DC9EE09D4200D1C5E051460E194246A642A44181180B1BDF0774083C435B086A1C664601E7FF070000FFFF7F00FFFF0F00A9
:404E40000000F0FFFFFF0F80FFFFFF7FFFFF7FFFC34B9E4200D0A3E68AE7202A74D04020811A3D1C8D402B1C1C43203A631E9C41D7403C43012200230025DDE6202A65D0B6
:404E800040239F1A051CBD40291C53461943203A4B1E9941D0400143002396E65242002E3DD0AF4B9D4200D1B8E0802346461F043E43B046382A00DDC3E01F2A00DD65E1C6
:404EC0002026B31A4746261C9F409C40D640631E9C413E4343463443D3405246141BC21AA245804113180E1C78E6002F01D1002B52D0351C1C1C664675E61F2A5BDC202170
:404F00008F1A051C5146BD40D14029435546BD402B1C5D1EAB411943031CD340D2E64346002B00D081E0002C7FD16A1C031C54460E1C81E653461A1945464719A242A44159
:404F40003B1B351C141CC4E600238DE700219CE7002E00D0DDE04346002B00D03BE1002C00D038E1031C544666460122002563E64346002E3FD1002B00D08FE0002C00D0E2
:404F80008CE0002802D15546002D05D0031C54460E1C012200254FE60026012200230421002554E6802066460201002304214EE60023002186E6202A00D1E5E04025AF1A14
:404FC000031CBB40191C55462943203A4B1E9941D0400143002375E65242002E3AD14346002B00D0E5E0002C00D0E2E06A1C031C5446664620E6002B69D1002C67D1002836
:405000000CD15646002E09D1802404212201554B49421CE6524B9D4200D04BE78022031C54460E1C12014E4D06E6013A002AF1D15646341B4246861AA245BF41F3190E1CE2
:40504000CCE54646002E02D1002C00D1AEE00023012442E7424B9D4200D189E080264146370439438846382A00DDACE01F2A00DDD2E020239F1A211C4646BC40BE40D1402B
:40508000231C31435C1EA3410C1C1C434346D34054441B18544580411B1A1AE6002802D15646002E6BD05346E21A45462F1A94429B41FB181E0200D4A4E05246141B421B98
:4050C000A245804113180E1C01220025B4E5002803D15246002A00D14AE645466E07EA088025E4082B0334431A4200D188E0C5081D4200D084E05646F40847072A1C3C434B
:405100000E1CD100630F80200B43E4000201144D92E54646002E01D1002C29D0002803D15246002A00D123E645466B07E40880271C43EA083B031A4200D182E0C5081D4232
:4051400000D07EE05646F40840072B1C04430E1C620FDB0080211343E4000A01004D6BE5FF070000FFFF7F00384B9D4200D07AE780252A01031C54466646344D5CE5434605
:4051800066460122002557E500211CE7202A56D04027BB1A46469E40331C1C43631E9C41203A4346D3401C43002396E60023002493E6013A002AD7D1464654448119544561
:4051C000B6418B1B85E54246002A01D1002C33D0002301245CE7002802D15546002DCED05646321941464618A242A441331B1D020DD51748141C03406646022201251BE55D
:4052000066467EE7002B02D1002A00D1C4E6141C6646012200250FE5202A15D04027B91A46468E40331C1C43203A4146631E9C41D1400C4300232BE70023002428E70023E4
:40524000ABE7131C664683E70023ECE7FF070000FFFF7FFF70B54B00124A051C5B0D0803040BC90F934214DD0F4A93420EDC0F4E80204203F61A22431F2E0CDD0C48C61A99
:40528000F240101C002903D0404201E0094C081970BD0020FCE7084C281C1D19F040AA401043EFE7FE0300001D0400003304000013040000FFFFFF7FEDFBFFFF70B5041C63
:4052C00000282FD0C50F002D00D04442201C00F0E9F8164B164E181A361A1F2E17DD154B154E191A154A8C40344002400026144B002000210B402343124C301C1C4016052C
:40530000114A34431440ED07211C294370BD221C0E4BB240161CC118074ACC401440074A0240E4E7002500220026E0E71E0400003304000013040000FFFF0F00FF07000023
:405340000000F0FFFFFF0F80FFFFFF7FEDFBFFFF70B54B000A03460F5B0DCD0F520A4A49041C3243C600581C014001293FDD47481918FE2912DD802043000422FF215001A4
:4053800021D4D208181C0B1C002A24D14048DBB21040DB05ED071843284370BD00293FDDA401601E8441700F261C0643D000394A9B18321C02430F2010400428DFD0043218
:4053C0004B1C5001DDD5FF2B31D0334C581C2240D208002ADAD0C1B20129D7DC002B10D08026F00310432A4ADBB21040D1E7002B0AD1002A17D1002E15D10123042200212E
:40540000BDE723481040C4E7002A01D1002EB2D08026B3048021D2001A434B00FF21CAE70C1C173405DA012305220021A7E70020AFE78020000410431E22541A1F2C0FDC90
:40544000164A9918321CE2408E40141C331C021C8A40591E8B411A43224301230021AAE7202C0ED00E4A9C18021CA24032430224531E9A4163425E1AF040024301230021A7
:4054800099E70022F2E7C046FF07000080FCFFFFFFFF7F0081FCFFFFFFFFFFFB82FCFFFFA2FCFFFF1C2101231B04984201D3000C10391B0A984201D3000A08391B09984244
:4054C00001D30009043902A2105C40187047C0460403020201010101000000000000000030B5C9B2032A08D8002A05D0031C1218197001339342FBD130BD8418031C03227E
:4055000001E0197001331342FBD10A02521815045219E51A11E01A605A609A60DA601A615A619A61DA611A625A629A62DA621A635A639A63DA63403D40333F2DEBDCE51AE8
:4055400005E01A605A609A60DA60103D10330F2DF7DCE51A01E004C3043D032DFBDC01E0197001339C42FBD8C6E7C04608B500F01DF80A4B002B01D1002000E01868084B67
:40558000002B01D1002100E019680022FAF7FCFD044B002B01D000E000BFFEE7000000000000000000000000FEE7000070B50D4D0D4E761BB610002E05D0002408CD01344A
:4055C0009847A642FAD800F067F9084D084E761BB610002E05D0002408CD01349847A642FAD870BDA4580000A4580000A4580000AC58000000000000001020300008101841
:40560000202830380004080C1014181C2024282C3034383C00020406080A0C0E10121416181A1C1E20222426282A2C2E30323436383A3C3E00300F40000400400F400004E4
:40564000FB21F93FFB2109407CD91240FB2119407A6A1F407CD92240BBFD2540FB2129403A462C407A6A2F405C4731407CD932409C6B3440BBFD3540DB8F3740FB21394081
:405680001BB43A403A463C405AD83D407A6A3F404C7E40405C4741406C1042407CD942408CA243409C6B4440AC344540BBFD4540CBC64640DB8F4740EB584840FB214940FA
:4056C00083F9A200444E6E00FC291500D1572700DD34F50062DBC0003C999500419043006351FE00BBDEAB00B761C5003A6E2400D24D42004906E00009EA2E001C92D100B3
:40570000EB1DFE0029B11C00E83EA700F535820044BB2E009CE98400B4267000417E5F00D6913900538339009CF439008B5F840028F9BD00F81F3B00DEFF97000F98050020
:40574000112FEF000A5A8B006D1F6D00CF7E360009CB2700464FB7009E663F002DEA5F00BA277500E5EBC7003D7BF100F739070092528A00FB6BEA001FB15F00085D8D00E3
:40578000300356007BFC4600F0AB6B0020BCCF0036F49A00E3A91D005E619100081BE60085996500A0145F008D40680080D8FF0027734D0006063100CA561500C9A87300CD
:4057C0007BE260006B8CC0000200000003000000040000000600000000000040FB21F93F000000002D44743E000000809846F83C0000006051CC783B00000080831BF03966
:405800000000004020257A38000000802282E336000000001DF36935943B0000C83C0000C83C0000C23C0000783C0000783C0000E83C0000C23C0000783C0000E83C00000F
:40584000783C0000C23C0000E03C0000E03C0000E03C0000CE3C0000DC470000D2490000D2490000C84900005649000056490000F6490000C849000056490000F649000042
:4058800056490000C8490000EE490000EE490000EE490000DA490000F8B5C046F8BC08BC9E4670476D0100007D240000F8B5C046F8BC08BC9E46704759010000000000007B
:4058C000D0580000C800002018010000180400000000000080000000CB000000F9000000F9000000CB00000080000000340000000600000006000000340000007F000000E8
:40590000CB000000F9000000F9000000CB00000080000000340000000600000006000000340000007F000000CB000000F9000000F9000000CB000000800000003400000030
:405940000600000006000000340000007F000000CB000000F9000000F9000000CB00000080000000340000000600000006000000340000007F000000CB000000F9000000A9
:40598000F9000000CB00000080000000340000000600000006000000340000007F000000CB000000F9000000F9000000CB0000008000000034000000060000000600000068
:4059C000340000007F000000CB000000F9000000F9000000006CDC023000000080BB00000000C05D0000000000000000000000000000000000000000000000000000000065
:405A00000000000000000000000000000000000000000000000000000000000000000000000000000000000000000000000000000000000000000000000000000000000066
:405A40000000000000000000000000000000000000000000000000000000000000000000000000000000000000000000000000000000000000000000000000000000000026
:405A800000000000000000000000000000000000000000000000000000000000000000000000000000000000000000000000000000000000000000000000000000000000E6
:405AC00000000000000000000000000000000000000000000000000000000000000000000000000000000000000000000000000000000000000000000000000000000000A6
:0200000490303A
:02000000DB32F1
:0200000490501A
:0C000000000204C81193110104E5ECC5D6
:0200000490600A
:0100000001FE
:0200000490402A
:4000000000000000000000000000000000000000000000000000000000000000000000000000000000000000000000000000000000000000000000000000000000000000C0
:00000001FF
